{
  "_format": "hh-sol-artifact-1",
  "contractName": "BSATSF_ERC1155",
  "sourceName": "contracts/BSATSF_ERC1155.sol",
  "abi": [
    {
      "inputs": [
        {
          "internalType": "address",
          "name": "initialOwner",
          "type": "address"
        }
      ],
      "stateMutability": "nonpayable",
      "type": "constructor"
    },
    {
      "inputs": [
        {
          "internalType": "address",
          "name": "sender",
          "type": "address"
        },
        {
          "internalType": "uint256",
          "name": "balance",
          "type": "uint256"
        },
        {
          "internalType": "uint256",
          "name": "needed",
          "type": "uint256"
        },
        {
          "internalType": "uint256",
          "name": "tokenId",
          "type": "uint256"
        }
      ],
      "name": "ERC1155InsufficientBalance",
      "type": "error"
    },
    {
      "inputs": [
        {
          "internalType": "address",
          "name": "approver",
          "type": "address"
        }
      ],
      "name": "ERC1155InvalidApprover",
      "type": "error"
    },
    {
      "inputs": [
        {
          "internalType": "uint256",
          "name": "idsLength",
          "type": "uint256"
        },
        {
          "internalType": "uint256",
          "name": "valuesLength",
          "type": "uint256"
        }
      ],
      "name": "ERC1155InvalidArrayLength",
      "type": "error"
    },
    {
      "inputs": [
        {
          "internalType": "address",
          "name": "operator",
          "type": "address"
        }
      ],
      "name": "ERC1155InvalidOperator",
      "type": "error"
    },
    {
      "inputs": [
        {
          "internalType": "address",
          "name": "receiver",
          "type": "address"
        }
      ],
      "name": "ERC1155InvalidReceiver",
      "type": "error"
    },
    {
      "inputs": [
        {
          "internalType": "address",
          "name": "sender",
          "type": "address"
        }
      ],
      "name": "ERC1155InvalidSender",
      "type": "error"
    },
    {
      "inputs": [
        {
          "internalType": "address",
          "name": "operator",
          "type": "address"
        },
        {
          "internalType": "address",
          "name": "owner",
          "type": "address"
        }
      ],
      "name": "ERC1155MissingApprovalForAll",
      "type": "error"
    },
    {
      "inputs": [
        {
          "internalType": "address",
          "name": "owner",
          "type": "address"
        }
      ],
      "name": "OwnableInvalidOwner",
      "type": "error"
    },
    {
      "inputs": [
        {
          "internalType": "address",
          "name": "account",
          "type": "address"
        }
      ],
      "name": "OwnableUnauthorizedAccount",
      "type": "error"
    },
    {
      "anonymous": false,
      "inputs": [
        {
          "indexed": true,
          "internalType": "address",
          "name": "account",
          "type": "address"
        },
        {
          "indexed": true,
          "internalType": "address",
          "name": "operator",
          "type": "address"
        },
        {
          "indexed": false,
          "internalType": "bool",
          "name": "approved",
          "type": "bool"
        }
      ],
      "name": "ApprovalForAll",
      "type": "event"
    },
    {
      "anonymous": false,
      "inputs": [
        {
          "indexed": false,
          "internalType": "uint256[]",
          "name": "tokenIds",
          "type": "uint256[]"
        },
        {
          "indexed": true,
          "internalType": "address",
          "name": "to",
          "type": "address"
        },
        {
          "indexed": false,
          "internalType": "uint256[]",
          "name": "amounts",
          "type": "uint256[]"
        }
      ],
      "name": "AssetBatchMinted",
      "type": "event"
    },
    {
      "anonymous": false,
      "inputs": [
        {
          "indexed": true,
          "internalType": "uint256",
          "name": "tokenId",
          "type": "uint256"
        },
        {
          "indexed": true,
          "internalType": "address",
          "name": "to",
          "type": "address"
        },
        {
          "indexed": false,
          "internalType": "uint256",
          "name": "amount",
          "type": "uint256"
        },
        {
          "indexed": false,
          "internalType": "string",
          "name": "metadataURI",
          "type": "string"
        }
      ],
      "name": "AssetMinted",
      "type": "event"
    },
    {
      "anonymous": false,
      "inputs": [
        {
          "indexed": true,
          "internalType": "address",
          "name": "previousOwner",
          "type": "address"
        },
        {
          "indexed": true,
          "internalType": "address",
          "name": "newOwner",
          "type": "address"
        }
      ],
      "name": "OwnershipTransferred",
      "type": "event"
    },
    {
      "anonymous": false,
      "inputs": [
        {
          "indexed": true,
          "internalType": "address",
          "name": "operator",
          "type": "address"
        },
        {
          "indexed": true,
          "internalType": "address",
          "name": "from",
          "type": "address"
        },
        {
          "indexed": true,
          "internalType": "address",
          "name": "to",
          "type": "address"
        },
        {
          "indexed": false,
          "internalType": "uint256[]",
          "name": "ids",
          "type": "uint256[]"
        },
        {
          "indexed": false,
          "internalType": "uint256[]",
          "name": "values",
          "type": "uint256[]"
        }
      ],
      "name": "TransferBatch",
      "type": "event"
    },
    {
      "anonymous": false,
      "inputs": [
        {
          "indexed": true,
          "internalType": "address",
          "name": "operator",
          "type": "address"
        },
        {
          "indexed": true,
          "internalType": "address",
          "name": "from",
          "type": "address"
        },
        {
          "indexed": true,
          "internalType": "address",
          "name": "to",
          "type": "address"
        },
        {
          "indexed": false,
          "internalType": "uint256",
          "name": "id",
          "type": "uint256"
        },
        {
          "indexed": false,
          "internalType": "uint256",
          "name": "value",
          "type": "uint256"
        }
      ],
      "name": "TransferSingle",
      "type": "event"
    },
    {
      "anonymous": false,
      "inputs": [
        {
          "indexed": false,
          "internalType": "string",
          "name": "value",
          "type": "string"
        },
        {
          "indexed": true,
          "internalType": "uint256",
          "name": "id",
          "type": "uint256"
        }
      ],
      "name": "URI",
      "type": "event"
    },
    {
      "inputs": [
        {
          "internalType": "uint256",
          "name": "",
          "type": "uint256"
        }
      ],
      "name": "assetMetadata",
      "outputs": [
        {
          "internalType": "string",
          "name": "name",
          "type": "string"
        },
        {
          "internalType": "string",
          "name": "description",
          "type": "string"
        },
        {
          "internalType": "string",
          "name": "ipfsHash",
          "type": "string"
        },
        {
          "internalType": "uint256",
          "name": "timestamp",
          "type": "uint256"
        },
        {
          "internalType": "address",
          "name": "creator",
          "type": "address"
        },
        {
          "internalType": "uint256",
          "name": "maxSupply",
          "type": "uint256"
        }
      ],
      "stateMutability": "view",
      "type": "function"
    },
    {
      "inputs": [
        {
          "internalType": "address",
          "name": "account",
          "type": "address"
        },
        {
          "internalType": "uint256",
          "name": "id",
          "type": "uint256"
        }
      ],
      "name": "balanceOf",
      "outputs": [
        {
          "internalType": "uint256",
          "name": "",
          "type": "uint256"
        }
      ],
      "stateMutability": "view",
      "type": "function"
    },
    {
      "inputs": [
        {
          "internalType": "address[]",
          "name": "accounts",
          "type": "address[]"
        },
        {
          "internalType": "uint256[]",
          "name": "ids",
          "type": "uint256[]"
        }
      ],
      "name": "balanceOfBatch",
      "outputs": [
        {
          "internalType": "uint256[]",
          "name": "",
          "type": "uint256[]"
        }
      ],
      "stateMutability": "view",
      "type": "function"
    },
    {
      "inputs": [
        {
          "internalType": "address",
          "name": "account",
          "type": "address"
        },
        {
          "internalType": "uint256",
          "name": "id",
          "type": "uint256"
        },
        {
          "internalType": "uint256",
          "name": "value",
          "type": "uint256"
        }
      ],
      "name": "burn",
      "outputs": [],
      "stateMutability": "nonpayable",
      "type": "function"
    },
    {
      "inputs": [
        {
          "internalType": "address",
          "name": "account",
          "type": "address"
        },
        {
          "internalType": "uint256[]",
          "name": "ids",
          "type": "uint256[]"
        },
        {
          "internalType": "uint256[]",
          "name": "values",
          "type": "uint256[]"
        }
      ],
      "name": "burnBatch",
      "outputs": [],
      "stateMutability": "nonpayable",
      "type": "function"
    },
    {
      "inputs": [],
      "name": "getAllAssets",
      "outputs": [
        {
          "components": [
            {
              "internalType": "uint256",
              "name": "id",
              "type": "uint256"
            },
            {
              "components": [
                {
                  "internalType": "string",
                  "name": "name",
                  "type": "string"
                },
                {
                  "internalType": "string",
                  "name": "description",
                  "type": "string"
                },
                {
                  "internalType": "string",
                  "name": "ipfsHash",
                  "type": "string"
                },
                {
                  "internalType": "uint256",
                  "name": "timestamp",
                  "type": "uint256"
                },
                {
                  "internalType": "address",
                  "name": "creator",
                  "type": "address"
                },
                {
                  "internalType": "uint256",
                  "name": "maxSupply",
                  "type": "uint256"
                }
              ],
              "internalType": "struct BSATSF_ERC1155.AssetMetadata",
              "name": "metadata",
              "type": "tuple"
            },
            {
              "internalType": "uint256",
              "name": "totalSupply",
              "type": "uint256"
            },
            {
              "internalType": "string",
              "name": "uri",
              "type": "string"
            }
          ],
          "internalType": "struct BSATSF_ERC1155.RenderAsset[]",
          "name": "",
          "type": "tuple[]"
        }
      ],
      "stateMutability": "view",
      "type": "function"
    },
    {
      "inputs": [
        {
          "internalType": "uint256",
          "name": "tokenId",
          "type": "uint256"
        }
      ],
      "name": "getAssetMetadata",
      "outputs": [
        {
          "components": [
            {
              "internalType": "string",
              "name": "name",
              "type": "string"
            },
            {
              "internalType": "string",
              "name": "description",
              "type": "string"
            },
            {
              "internalType": "string",
              "name": "ipfsHash",
              "type": "string"
            },
            {
              "internalType": "uint256",
              "name": "timestamp",
              "type": "uint256"
            },
            {
              "internalType": "address",
              "name": "creator",
              "type": "address"
            },
            {
              "internalType": "uint256",
              "name": "maxSupply",
              "type": "uint256"
            }
          ],
          "internalType": "struct BSATSF_ERC1155.AssetMetadata",
          "name": "",
          "type": "tuple"
        }
      ],
      "stateMutability": "view",
      "type": "function"
    },
    {
      "inputs": [],
      "name": "getMyAssets",
      "outputs": [
        {
          "components": [
            {
              "internalType": "uint256",
              "name": "id",
              "type": "uint256"
            },
            {
              "components": [
                {
                  "internalType": "string",
                  "name": "name",
                  "type": "string"
                },
                {
                  "internalType": "string",
                  "name": "description",
                  "type": "string"
                },
                {
                  "internalType": "string",
                  "name": "ipfsHash",
                  "type": "string"
                },
                {
                  "internalType": "uint256",
                  "name": "timestamp",
                  "type": "uint256"
                },
                {
                  "internalType": "address",
                  "name": "creator",
                  "type": "address"
                },
                {
                  "internalType": "uint256",
                  "name": "maxSupply",
                  "type": "uint256"
                }
              ],
              "internalType": "struct BSATSF_ERC1155.AssetMetadata",
              "name": "metadata",
              "type": "tuple"
            },
            {
              "internalType": "uint256",
              "name": "balance",
              "type": "uint256"
            },
            {
              "internalType": "string",
              "name": "uri",
              "type": "string"
            }
          ],
          "internalType": "struct BSATSF_ERC1155.UserAsset[]",
          "name": "",
          "type": "tuple[]"
        }
      ],
      "stateMutability": "view",
      "type": "function"
    },
    {
      "inputs": [
        {
          "internalType": "address",
          "name": "owner",
          "type": "address"
        }
      ],
      "name": "getTokensByOwner",
      "outputs": [
        {
          "internalType": "uint256[]",
          "name": "",
          "type": "uint256[]"
        },
        {
          "internalType": "uint256[]",
          "name": "",
          "type": "uint256[]"
        }
      ],
      "stateMutability": "view",
      "type": "function"
    },
    {
      "inputs": [
        {
          "internalType": "address",
          "name": "account",
          "type": "address"
        },
        {
          "internalType": "address",
          "name": "operator",
          "type": "address"
        }
      ],
      "name": "isApprovedForAll",
      "outputs": [
        {
          "internalType": "bool",
          "name": "",
          "type": "bool"
        }
      ],
      "stateMutability": "view",
      "type": "function"
    },
    {
      "inputs": [
        {
          "internalType": "uint256",
          "name": "tokenId",
          "type": "uint256"
        },
        {
          "internalType": "address",
          "name": "to",
          "type": "address"
        },
        {
          "internalType": "uint256",
          "name": "amount",
          "type": "uint256"
        }
      ],
      "name": "mintAdditional",
      "outputs": [],
      "stateMutability": "nonpayable",
      "type": "function"
    },
    {
      "inputs": [
        {
          "internalType": "address",
          "name": "to",
          "type": "address"
        },
        {
          "internalType": "uint256",
          "name": "amount",
          "type": "uint256"
        },
        {
          "internalType": "string",
          "name": "name",
          "type": "string"
        },
        {
          "internalType": "string",
          "name": "description",
          "type": "string"
        },
        {
          "internalType": "string",
          "name": "ipfsHash",
          "type": "string"
        },
        {
          "internalType": "uint256",
          "name": "maxSupply",
          "type": "uint256"
        }
      ],
      "name": "mintAsset",
      "outputs": [
        {
          "internalType": "uint256",
          "name": "",
          "type": "uint256"
        }
      ],
      "stateMutability": "nonpayable",
      "type": "function"
    },
    {
      "inputs": [
        {
          "internalType": "address",
          "name": "to",
          "type": "address"
        },
        {
          "internalType": "uint256[]",
          "name": "amounts",
          "type": "uint256[]"
        },
        {
          "internalType": "string[]",
          "name": "names",
          "type": "string[]"
        },
        {
          "internalType": "string[]",
          "name": "descriptions",
          "type": "string[]"
        },
        {
          "internalType": "string[]",
          "name": "ipfsHashes",
          "type": "string[]"
        },
        {
          "internalType": "uint256[]",
          "name": "maxSupplies",
          "type": "uint256[]"
        }
      ],
      "name": "mintBatch",
      "outputs": [
        {
          "internalType": "uint256[]",
          "name": "",
          "type": "uint256[]"
        }
      ],
      "stateMutability": "nonpayable",
      "type": "function"
    },
    {
      "inputs": [],
      "name": "owner",
      "outputs": [
        {
          "internalType": "address",
          "name": "",
          "type": "address"
        }
      ],
      "stateMutability": "view",
      "type": "function"
    },
    {
      "inputs": [],
      "name": "renounceOwnership",
      "outputs": [],
      "stateMutability": "nonpayable",
      "type": "function"
    },
    {
      "inputs": [
        {
          "internalType": "address",
          "name": "from",
          "type": "address"
        },
        {
          "internalType": "address",
          "name": "to",
          "type": "address"
        },
        {
          "internalType": "uint256[]",
          "name": "ids",
          "type": "uint256[]"
        },
        {
          "internalType": "uint256[]",
          "name": "values",
          "type": "uint256[]"
        },
        {
          "internalType": "bytes",
          "name": "data",
          "type": "bytes"
        }
      ],
      "name": "safeBatchTransferFrom",
      "outputs": [],
      "stateMutability": "nonpayable",
      "type": "function"
    },
    {
      "inputs": [
        {
          "internalType": "address",
          "name": "from",
          "type": "address"
        },
        {
          "internalType": "address",
          "name": "to",
          "type": "address"
        },
        {
          "internalType": "uint256",
          "name": "id",
          "type": "uint256"
        },
        {
          "internalType": "uint256",
          "name": "value",
          "type": "uint256"
        },
        {
          "internalType": "bytes",
          "name": "data",
          "type": "bytes"
        }
      ],
      "name": "safeTransferFrom",
      "outputs": [],
      "stateMutability": "nonpayable",
      "type": "function"
    },
    {
      "inputs": [
        {
          "internalType": "address",
          "name": "operator",
          "type": "address"
        },
        {
          "internalType": "bool",
          "name": "approved",
          "type": "bool"
        }
      ],
      "name": "setApprovalForAll",
      "outputs": [],
      "stateMutability": "nonpayable",
      "type": "function"
    },
    {
      "inputs": [
        {
          "internalType": "bytes4",
          "name": "interfaceId",
          "type": "bytes4"
        }
      ],
      "name": "supportsInterface",
      "outputs": [
        {
          "internalType": "bool",
          "name": "",
          "type": "bool"
        }
      ],
      "stateMutability": "view",
      "type": "function"
    },
    {
      "inputs": [
        {
          "internalType": "uint256",
          "name": "",
          "type": "uint256"
        }
      ],
      "name": "tokenSupply",
      "outputs": [
        {
          "internalType": "uint256",
          "name": "",
          "type": "uint256"
        }
      ],
      "stateMutability": "view",
      "type": "function"
    },
    {
      "inputs": [
        {
          "internalType": "uint256",
          "name": "tokenId",
          "type": "uint256"
        }
      ],
      "name": "totalSupply",
      "outputs": [
        {
          "internalType": "uint256",
          "name": "",
          "type": "uint256"
        }
      ],
      "stateMutability": "view",
      "type": "function"
    },
    {
      "inputs": [
        {
          "internalType": "address",
          "name": "newOwner",
          "type": "address"
        }
      ],
      "name": "transferOwnership",
      "outputs": [],
      "stateMutability": "nonpayable",
      "type": "function"
    },
    {
      "inputs": [
        {
          "internalType": "uint256",
          "name": "",
          "type": "uint256"
        }
      ],
      "name": "uri",
      "outputs": [
        {
          "internalType": "string",
          "name": "",
          "type": "string"
        }
      ],
      "stateMutability": "view",
      "type": "function"
    }
  ],
  "bytecode": "0x60806040523480156200001157600080fd5b506040516200377938038062003779833981016040819052620000349162000101565b8060405180606001604052806029815260200162003750602991396200005a816200009d565b506001600160a01b0381166200008a57604051631e4fbdf760e01b81526000600482015260240160405180910390fd5b6200009581620000af565b5050620002a4565b6002620000ab8282620001d8565b5050565b600380546001600160a01b038381166001600160a01b0319831681179093556040519116919082907f8be0079c531659141344cd1fd0a4f28419497f9722a3daafe3b4186f6b6457e090600090a35050565b6000602082840312156200011457600080fd5b81516001600160a01b03811681146200012c57600080fd5b9392505050565b634e487b7160e01b600052604160045260246000fd5b600181811c908216806200015e57607f821691505b6020821081036200017f57634e487b7160e01b600052602260045260246000fd5b50919050565b601f821115620001d357600081815260208120601f850160051c81016020861015620001ae5750805b601f850160051c820191505b81811015620001cf57828155600101620001ba565b5050505b505050565b81516001600160401b03811115620001f457620001f462000133565b6200020c8162000205845462000149565b8462000185565b602080601f8311600181146200024457600084156200022b5750858301515b600019600386901b1c1916600185901b178555620001cf565b600085815260208120601f198616915b82811015620002755788860151825594840194600190910190840162000254565b5085821015620002945787850151600019600388901b60f8161c191681555b5050505050600190811b01905550565b61349c80620002b46000396000f3fe608060405234801561001057600080fd5b506004361061014c5760003560e01c8063715018a6116100c3578063cc45c9ea1161007c578063cc45c9ea1461030e578063cf2acf8414610321578063e985e9c514610341578063f242432a14610354578063f2fde38b14610367578063f5298aca1461037a57600080fd5b8063715018a6146102925780638da5cb5b1461029a578063a22cb465146102b5578063bd5a7a23146102c8578063bd85b039146102db578063c11f4e46146102fb57600080fd5b80632eb2c2d6116101155780632eb2c2d6146101ef57806340398d671461020457806347002d1d146102255780634e1273f41461023a578063504e35d31461025a5780636b20c4541461027f57600080fd5b8062fdd58e1461015157806301ffc9a7146101775780630e89341c1461019a5780632693ebf2146101ba5780632acada4d146101da575b600080fd5b61016461015f366004612760565b61038d565b6040519081526020015b60405180910390f35b61018a6101853660046127a0565b6103b5565b604051901515815260200161016e565b6101ad6101a83660046127c4565b610405565b60405161016e919061282d565b6101646101c83660046127c4565b60066020526000908152604090205481565b6101e2610499565b60405161016e9190612906565b6102026101fd366004612aab565b61080b565b005b610217610212366004612b54565b610877565b60405161016e929190612baa565b61022d610ac6565b60405161016e9190612bcf565b61024d610248366004612c24565b610e26565b60405161016e9190612ce3565b61026d6102683660046127c4565b610efa565b60405161016e96959493929190612cf6565b61020261028d366004612d57565b6110d2565b61020261115c565b6003546040516001600160a01b03909116815260200161016e565b6102026102c3366004612dca565b611170565b6101646102d6366004612e06565b61117f565b6101646102e93660046127c4565b60009081526006602052604090205490565b610202610309366004612eb0565b611340565b61024d61031c366004612f64565b611692565b61033461032f3660046127c4565b611a17565b60405161016e9190613044565b61018a61034f366004613057565b611c6d565b61020261036236600461308a565b611c9b565b610202610375366004612b54565b611cfa565b6102026103883660046130ee565b611d38565b6000818152602081815260408083206001600160a01b03861684529091529020545b92915050565b60006001600160e01b03198216636cdb3d1360e11b14806103e657506001600160e01b031982166303a24d0760e21b145b806103af57506301ffc9a760e01b6001600160e01b03198316146103af565b60606002805461041490613121565b80601f016020809104026020016040519081016040528092919081815260200182805461044090613121565b801561048d5780601f106104625761010080835404028352916020019161048d565b820191906000526020600020905b81548152906001019060200180831161047057829003601f168201915b50505050509050919050565b6004546060906000805b828110156104df57600081815260066020526040902054156104cd57816104c981613171565b9250505b806104d781613171565b9150506104a3565b506000816001600160401b038111156104fa576104fa612968565b60405190808252806020026020018201604052801561053357816020015b6105206126d7565b8152602001906001900390816105185790505b5090506000805b8481101561080157600081815260066020526040902054156107ef57600061056182611d6b565b604051602001610571919061318a565b60408051601f1981840301815260808301825284835260008581526005602090815290839020835160c0810190945280549295509084019291829082906105b790613121565b80601f01602080910402602001604051908101604052809291908181526020018280546105e390613121565b80156106305780601f1061060557610100808354040283529160200191610630565b820191906000526020600020905b81548152906001019060200180831161061357829003601f168201915b5050505050815260200160018201805461064990613121565b80601f016020809104026020016040519081016040528092919081815260200182805461067590613121565b80156106c25780601f10610697576101008083540402835291602001916106c2565b820191906000526020600020905b8154815290600101906020018083116106a557829003601f168201915b505050505081526020016002820180546106db90613121565b80601f016020809104026020016040519081016040528092919081815260200182805461070790613121565b80156107545780601f1061072957610100808354040283529160200191610754565b820191906000526020600020905b81548152906001019060200180831161073757829003601f168201915b50505050508152602001600382015481526020016004820160009054906101000a90046001600160a01b03166001600160a01b03166001600160a01b03168152602001600582015481525050815260200160066000858152602001908152602001600020548152602001828152508484815181106107d4576107d46131de565b602002602001018190525082806107ea90613171565b935050505b806107f981613171565b91505061053a565b5090949350505050565b336001600160a01b038616811480159061082c575061082a8682611c6d565b155b156108625760405163711bec9160e11b81526001600160a01b038083166004830152871660248201526044015b60405180910390fd5b61086f8686868686611e73565b505050505050565b60045460609081906000816001600160401b0381111561089957610899612968565b6040519080825280602002602001820160405280156108c2578160200160208202803683370190505b5090506000826001600160401b038111156108df576108df612968565b604051908082528060200260200182016040528015610908578160200160208202803683370190505b5090506000805b8481101561099e576000818152600660205260409020541561098c576000610937898361038d565b9050801561098a5781858481518110610952576109526131de565b60200260200101818152505080848481518110610971576109716131de565b60209081029190910101528261098681613171565b9350505b505b8061099681613171565b91505061090f565b506000816001600160401b038111156109b9576109b9612968565b6040519080825280602002602001820160405280156109e2578160200160208202803683370190505b5090506000826001600160401b038111156109ff576109ff612968565b604051908082528060200260200182016040528015610a28578160200160208202803683370190505b50905060005b83811015610ab757858181518110610a4857610a486131de565b6020026020010151838281518110610a6257610a626131de565b602002602001018181525050848181518110610a8057610a806131de565b6020026020010151828281518110610a9a57610a9a6131de565b602090810291909101015280610aaf81613171565b915050610a2e565b50909890975095505050505050565b600454606090600033815b83811015610b0b576000610ae5838361038d565b1115610af95782610af581613171565b9350505b80610b0381613171565b915050610ad1565b506000826001600160401b03811115610b2657610b26612968565b604051908082528060200260200182016040528015610b5f57816020015b610b4c6126d7565b815260200190600190039081610b445790505b5090506000805b85811015610e1b576000610b7a858361038d565b90508015610e08576000610b8d83611d6b565b604051602001610b9d919061318a565b60408051601f1981840301815260808301825285835260008681526005602090815290839020835160c081019094528054929550908401929182908290610be390613121565b80601f0160208091040260200160405190810160405280929190818152602001828054610c0f90613121565b8015610c5c5780601f10610c3157610100808354040283529160200191610c5c565b820191906000526020600020905b815481529060010190602001808311610c3f57829003601f168201915b50505050508152602001600182018054610c7590613121565b80601f0160208091040260200160405190810160405280929190818152602001828054610ca190613121565b8015610cee5780601f10610cc357610100808354040283529160200191610cee565b820191906000526020600020905b815481529060010190602001808311610cd157829003601f168201915b50505050508152602001600282018054610d0790613121565b80601f0160208091040260200160405190810160405280929190818152602001828054610d3390613121565b8015610d805780601f10610d5557610100808354040283529160200191610d80565b820191906000526020600020905b815481529060010190602001808311610d6357829003601f168201915b50505050508152602001600382015481526020016004820160009054906101000a90046001600160a01b03166001600160a01b03166001600160a01b03168152602001600582015481525050815260200183815260200182815250858581518110610ded57610ded6131de565b60200260200101819052508380610e0390613171565b945050505b5080610e1381613171565b915050610b66565b509095945050505050565b60608151835114610e575781518351604051635b05999160e01b815260048101929092526024820152604401610859565b600083516001600160401b03811115610e7257610e72612968565b604051908082528060200260200182016040528015610e9b578160200160208202803683370190505b50905060005b8451811015610ef257602080820286010151610ec59060208084028701015161038d565b828281518110610ed757610ed76131de565b6020908102919091010152610eeb81613171565b9050610ea1565b509392505050565b600560205260009081526040902080548190610f1590613121565b80601f0160208091040260200160405190810160405280929190818152602001828054610f4190613121565b8015610f8e5780601f10610f6357610100808354040283529160200191610f8e565b820191906000526020600020905b815481529060010190602001808311610f7157829003601f168201915b505050505090806001018054610fa390613121565b80601f0160208091040260200160405190810160405280929190818152602001828054610fcf90613121565b801561101c5780601f10610ff15761010080835404028352916020019161101c565b820191906000526020600020905b815481529060010190602001808311610fff57829003601f168201915b50505050509080600201805461103190613121565b80601f016020809104026020016040519081016040528092919081815260200182805461105d90613121565b80156110aa5780601f1061107f576101008083540402835291602001916110aa565b820191906000526020600020905b81548152906001019060200180831161108d57829003601f168201915b5050505060038301546004840154600590940154929390926001600160a01b03909116915086565b6110dd838383611eda565b60005b8251811015611156578181815181106110fb576110fb6131de565b602002602001015160066000858481518110611119576111196131de565b60200260200101518152602001908152602001600020600082825461113e91906131f4565b9091555081905061114e81613171565b9150506110e0565b50505050565b611164611f3e565b61116e6000611f6b565b565b61117b338383611fbd565b5050565b60048054600091600190836111948385613207565b90915550508215806111a65750828711155b6111ee5760405162461bcd60e51b8152602060048201526019602482015278416d6f756e742065786365656473206d617820737570706c7960381b6044820152606401610859565b6040805160c081018252878152602080820188905281830187905242606083015233608083015260a082018690526000848152600590915291909120815181906112389082613260565b506020820151600182019061124d9082613260565b50604082015160028201906112629082613260565b506060820151600382015560808201516004820180546001600160a01b0319166001600160a01b0390921691909117905560a09091015160059091015560008181526006602090815260408083208a9055805191820190529081526112cc90899083908a90612053565b876001600160a01b0316817fa7598e50d42ce6a6edf2857b3d93931f9421a00b5ed66fe99422219dfd67e31a8961130285611d6b565b604051602001611312919061318a565b60408051601f198184030181529082905261132d929161331f565b60405180910390a3979650505050505050565b6000838152600660205260409020546113925760405162461bcd60e51b8152602060048201526014602482015273151bdad95b88191bd95cc81b9bdd08195e1a5cdd60621b6044820152606401610859565b600083815260056020526040808220815160c081019092528054829082906113b990613121565b80601f01602080910402602001604051908101604052809291908181526020018280546113e590613121565b80156114325780601f1061140757610100808354040283529160200191611432565b820191906000526020600020905b81548152906001019060200180831161141557829003601f168201915b5050505050815260200160018201805461144b90613121565b80601f016020809104026020016040519081016040528092919081815260200182805461147790613121565b80156114c45780601f10611499576101008083540402835291602001916114c4565b820191906000526020600020905b8154815290600101906020018083116114a757829003601f168201915b505050505081526020016002820180546114dd90613121565b80601f016020809104026020016040519081016040528092919081815260200182805461150990613121565b80156115565780601f1061152b57610100808354040283529160200191611556565b820191906000526020600020905b81548152906001019060200180831161153957829003601f168201915b50505091835250506003820154602082015260048201546001600160a01b0390811660408301526005909201546060909101526080820151919250163314806115a957506003546001600160a01b031633145b6115e65760405162461bcd60e51b815260206004820152600e60248201526d139bdd08185d5d1a1bdc9a5e995960921b6044820152606401610859565b60a0810151156116525760a081015160008581526006602052604090205461160f908490613207565b11156116525760405162461bcd60e51b815260206004820152601260248201527145786365656473206d617820737570706c7960701b6044820152606401610859565b60008481526006602052604081208054849290611670908490613207565b9250508190555061115683858460405180602001604052806000815250612053565b606084518651146116b55760405162461bcd60e51b815260040161085990613338565b83518651146116d65760405162461bcd60e51b815260040161085990613338565b82518651146116f75760405162461bcd60e51b815260040161085990613338565b81518651146117185760405162461bcd60e51b815260040161085990613338565b600086516001600160401b0381111561173357611733612968565b60405190808252806020026020018201604052801561175c578160200160208202803683370190505b50905060005b87518110156119ad576004805490600190600061177f8385613207565b92505081905550848281518110611798576117986131de565b6020026020010151600014806117e057508482815181106117bb576117bb6131de565b60200260200101518983815181106117d5576117d56131de565b602002602001015111155b6118285760405162461bcd60e51b8152602060048201526019602482015278416d6f756e742065786365656473206d617820737570706c7960381b6044820152606401610859565b6040518060c00160405280898481518110611845576118456131de565b60200260200101518152602001888481518110611864576118646131de565b60200260200101518152602001878481518110611883576118836131de565b60200260200101518152602001428152602001336001600160a01b031681526020018684815181106118b7576118b76131de565b6020908102919091018101519091526000838152600590915260409020815181906118e29082613260565b50602082015160018201906118f79082613260565b506040820151600282019061190c9082613260565b506060820151600382015560808201516004820180546001600160a01b0319166001600160a01b0390921691909117905560a090910151600590910155885189908390811061195d5761195d6131de565b602002602001015160066000838152602001908152602001600020819055508083838151811061198f5761198f6131de565b602090810291909101015250806119a581613171565b915050611762565b506119c9888289604051806020016040528060008152506120b0565b876001600160a01b03167f90f2e1a10c2d3075749fc7f611671901cb1b19b7919d2c4a46689394580392738289604051611a04929190612baa565b60405180910390a2979650505050505050565b611a1f612705565b600082815260066020526040902054611a715760405162461bcd60e51b8152602060048201526014602482015273151bdad95b88191bd95cc81b9bdd08195e1a5cdd60621b6044820152606401610859565b60008281526005602052604090819020815160c08101909252805482908290611a9990613121565b80601f0160208091040260200160405190810160405280929190818152602001828054611ac590613121565b8015611b125780601f10611ae757610100808354040283529160200191611b12565b820191906000526020600020905b815481529060010190602001808311611af557829003601f168201915b50505050508152602001600182018054611b2b90613121565b80601f0160208091040260200160405190810160405280929190818152602001828054611b5790613121565b8015611ba45780601f10611b7957610100808354040283529160200191611ba4565b820191906000526020600020905b815481529060010190602001808311611b8757829003601f168201915b50505050508152602001600282018054611bbd90613121565b80601f0160208091040260200160405190810160405280929190818152602001828054611be990613121565b8015611c365780601f10611c0b57610100808354040283529160200191611c36565b820191906000526020600020905b815481529060010190602001808311611c1957829003601f168201915b50505091835250506003820154602082015260048201546001600160a01b0316604082015260059091015460609091015292915050565b6001600160a01b03918216600090815260016020908152604080832093909416825291909152205460ff1690565b336001600160a01b0386168114801590611cbc5750611cba8682611c6d565b155b15611ced5760405163711bec9160e11b81526001600160a01b03808316600483015287166024820152604401610859565b61086f86868686866120e8565b611d02611f3e565b6001600160a01b038116611d2c57604051631e4fbdf760e01b815260006004820152602401610859565b611d3581611f6b565b50565b611d43838383612176565b60008281526006602052604081208054839290611d619084906131f4565b9091555050505050565b606081600003611d925750506040805180820190915260018152600360fc1b602082015290565b8160005b8115611dbc5780611da681613171565b9150611db59050600a8361337e565b9150611d96565b6000816001600160401b03811115611dd657611dd6612968565b6040519080825280601f01601f191660200182016040528015611e00576020820181803683370190505b5090505b8415611e6b57611e156001836131f4565b9150611e22600a86613392565b611e2d906030613207565b60f81b818381518110611e4257611e426131de565b60200101906001600160f81b031916908160001a905350611e64600a8661337e565b9450611e04565b949350505050565b6001600160a01b038416611e9d57604051632bfa23e760e11b815260006004820152602401610859565b6001600160a01b038516611ec657604051626a0d4560e21b815260006004820152602401610859565b611ed385858585856121ac565b5050505050565b6001600160a01b0383163314801590611efa5750611ef88333611c6d565b155b15611f2e57335b60405163711bec9160e11b81526001600160a01b0391821660048201529084166024820152604401610859565b611f398383836121ff565b505050565b6003546001600160a01b0316331461116e5760405163118cdaa760e01b8152336004820152602401610859565b600380546001600160a01b038381166001600160a01b0319831681179093556040519116919082907f8be0079c531659141344cd1fd0a4f28419497f9722a3daafe3b4186f6b6457e090600090a35050565b6001600160a01b038216611fe65760405162ced3e160e81b815260006004820152602401610859565b6001600160a01b03838116600081815260016020908152604080832094871680845294825291829020805460ff191686151590811790915591519182527f17307eab39ab6107e8899845ad3d59bd9653f200f220920489ca2b5937696c31910160405180910390a3505050565b6001600160a01b03841661207d57604051632bfa23e760e11b815260006004820152602401610859565b6040805160018082526020820186905281830190815260608201859052608082019092529061086f6000878484876121ac565b6001600160a01b0384166120da57604051632bfa23e760e11b815260006004820152602401610859565b6111566000858585856121ac565b6001600160a01b03841661211257604051632bfa23e760e11b815260006004820152602401610859565b6001600160a01b03851661213b57604051626a0d4560e21b815260006004820152602401610859565b6040805160018082526020820186905281830190815260608201859052608082019092529061216d87878484876121ac565b50505050505050565b6001600160a01b038316331480159061219657506121948333611c6d565b155b156121a15733611f01565b611f39838383612245565b6121b8858585856122ad565b6001600160a01b03841615611ed357825133906001036121f157602084810151908401516121ea8389898585896124ca565b505061086f565b61086f8187878787876125ee565b6001600160a01b03831661222857604051626a0d4560e21b815260006004820152602401610859565b611f398360008484604051806020016040528060008152506121ac565b6001600160a01b03831661226e57604051626a0d4560e21b815260006004820152602401610859565b604080516001808252602082018590528183019081526060820184905260a08201909252600060808201818152919291611ed3918791859085906121ac565b80518251146122dc5781518151604051635b05999160e01b815260048101929092526024820152604401610859565b3360005b83518110156123eb576020818102858101820151908501909101516001600160a01b03881615612393576000828152602081815260408083206001600160a01b038c1684529091529020548181101561236c576040516303dee4c560e01b81526001600160a01b038a166004820152602481018290526044810183905260648101849052608401610859565b6000838152602081815260408083206001600160a01b038d16845290915290209082900390555b6001600160a01b038716156123d8576000828152602081815260408083206001600160a01b038b168452909152812080548392906123d2908490613207565b90915550505b5050806123e490613171565b90506122e0565b50825160010361246c5760208301516000906020840151909150856001600160a01b0316876001600160a01b0316846001600160a01b03167fc3d58168c5ae7397731d063d5bbf3d657854427343f4c083240f7aacaa2d0f62858560405161245d929190918252602082015260400190565b60405180910390a45050611ed3565b836001600160a01b0316856001600160a01b0316826001600160a01b03167f4a39dc06d4c0dbc64b70af90fd698a233a518aa5d07e595d983b8c0526c8f7fb86866040516124bb929190612baa565b60405180910390a45050505050565b6001600160a01b0384163b1561086f5760405163f23a6e6160e01b81526001600160a01b0385169063f23a6e619061250e90899089908890889088906004016133a6565b6020604051808303816000875af1925050508015612549575060408051601f3d908101601f19168201909252612546918101906133eb565b60015b6125b2573d808015612577576040519150601f19603f3d011682016040523d82523d6000602084013e61257c565b606091505b5080516000036125aa57604051632bfa23e760e11b81526001600160a01b0386166004820152602401610859565b805160208201fd5b6001600160e01b0319811663f23a6e6160e01b1461216d57604051632bfa23e760e11b81526001600160a01b0386166004820152602401610859565b6001600160a01b0384163b1561086f5760405163bc197c8160e01b81526001600160a01b0385169063bc197c81906126329089908990889088908890600401613408565b6020604051808303816000875af192505050801561266d575060408051601f3d908101601f1916820190925261266a918101906133eb565b60015b61269b573d808015612577576040519150601f19603f3d011682016040523d82523d6000602084013e61257c565b6001600160e01b0319811663bc197c8160e01b1461216d57604051632bfa23e760e11b81526001600160a01b0386166004820152602401610859565b6040518060800160405280600081526020016126f1612705565b815260200160008152602001606081525090565b6040518060c001604052806060815260200160608152602001606081526020016000815260200160006001600160a01b03168152602001600081525090565b80356001600160a01b038116811461275b57600080fd5b919050565b6000806040838503121561277357600080fd5b61277c83612744565b946020939093013593505050565b6001600160e01b031981168114611d3557600080fd5b6000602082840312156127b257600080fd5b81356127bd8161278a565b9392505050565b6000602082840312156127d657600080fd5b5035919050565b60005b838110156127f85781810151838201526020016127e0565b50506000910152565b600081518084526128198160208601602086016127dd565b601f01601f19169290920160200192915050565b6020815260006127bd6020830184612801565b6000815160c0845261285560c0850182612801565b90506020830151848203602086015261286e8282612801565b915050604083015184820360408601526128888282612801565b606085810151908701526080808601516001600160a01b03169087015260a0948501519490950193909352509192915050565b8051825260006020820151608060208501526128da6080850182612840565b905060408301516040850152606083015184820360608601526128fd8282612801565b95945050505050565b6000602080830181845280855180835260408601915060408160051b870101925083870160005b8281101561295b57603f198886030184526129498583516128bb565b9450928501929085019060010161292d565b5092979650505050505050565b634e487b7160e01b600052604160045260246000fd5b604051601f8201601f191681016001600160401b03811182821017156129a6576129a6612968565b604052919050565b60006001600160401b038211156129c7576129c7612968565b5060051b60200190565b600082601f8301126129e257600080fd5b813560206129f76129f2836129ae565b61297e565b82815260059290921b84018101918181019086841115612a1657600080fd5b8286015b84811015612a315780358352918301918301612a1a565b509695505050505050565b600082601f830112612a4d57600080fd5b81356001600160401b03811115612a6657612a66612968565b612a79601f8201601f191660200161297e565b818152846020838601011115612a8e57600080fd5b816020850160208301376000918101602001919091529392505050565b600080600080600060a08688031215612ac357600080fd5b612acc86612744565b9450612ada60208701612744565b935060408601356001600160401b0380821115612af657600080fd5b612b0289838a016129d1565b94506060880135915080821115612b1857600080fd5b612b2489838a016129d1565b93506080880135915080821115612b3a57600080fd5b50612b4788828901612a3c565b9150509295509295909350565b600060208284031215612b6657600080fd5b6127bd82612744565b600081518084526020808501945080840160005b83811015612b9f57815187529582019590820190600101612b83565b509495945050505050565b604081526000612bbd6040830185612b6f565b82810360208401526128fd8185612b6f565b6000602080830181845280855180835260408601915060408160051b870101925083870160005b8281101561295b57603f19888603018452612c128583516128bb565b94509285019290850190600101612bf6565b60008060408385031215612c3757600080fd5b82356001600160401b0380821115612c4e57600080fd5b818501915085601f830112612c6257600080fd5b81356020612c726129f2836129ae565b82815260059290921b84018101918181019089841115612c9157600080fd5b948201945b83861015612cb657612ca786612744565b82529482019490820190612c96565b96505086013592505080821115612ccc57600080fd5b50612cd9858286016129d1565b9150509250929050565b6020815260006127bd6020830184612b6f565b60c081526000612d0960c0830189612801565b8281036020840152612d1b8189612801565b90508281036040840152612d2f8188612801565b606084019690965250506001600160a01b0392909216608083015260a0909101529392505050565b600080600060608486031215612d6c57600080fd5b612d7584612744565b925060208401356001600160401b0380821115612d9157600080fd5b612d9d878388016129d1565b93506040860135915080821115612db357600080fd5b50612dc0868287016129d1565b9150509250925092565b60008060408385031215612ddd57600080fd5b612de683612744565b915060208301358015158114612dfb57600080fd5b809150509250929050565b60008060008060008060c08789031215612e1f57600080fd5b612e2887612744565b95506020870135945060408701356001600160401b0380821115612e4b57600080fd5b612e578a838b01612a3c565b95506060890135915080821115612e6d57600080fd5b612e798a838b01612a3c565b94506080890135915080821115612e8f57600080fd5b50612e9c89828a01612a3c565b92505060a087013590509295509295509295565b600080600060608486031215612ec557600080fd5b83359250612ed560208501612744565b9150604084013590509250925092565b600082601f830112612ef657600080fd5b81356020612f066129f2836129ae565b82815260059290921b84018101918181019086841115612f2557600080fd5b8286015b84811015612a315780356001600160401b03811115612f485760008081fd5b612f568986838b0101612a3c565b845250918301918301612f29565b60008060008060008060c08789031215612f7d57600080fd5b612f8687612744565b955060208701356001600160401b0380821115612fa257600080fd5b612fae8a838b016129d1565b96506040890135915080821115612fc457600080fd5b612fd08a838b01612ee5565b95506060890135915080821115612fe657600080fd5b612ff28a838b01612ee5565b9450608089013591508082111561300857600080fd5b6130148a838b01612ee5565b935060a089013591508082111561302a57600080fd5b5061303789828a016129d1565b9150509295509295509295565b6020815260006127bd6020830184612840565b6000806040838503121561306a57600080fd5b61307383612744565b915061308160208401612744565b90509250929050565b600080600080600060a086880312156130a257600080fd5b6130ab86612744565b94506130b960208701612744565b9350604086013592506060860135915060808601356001600160401b038111156130e257600080fd5b612b4788828901612a3c565b60008060006060848603121561310357600080fd5b61310c84612744565b95602085013595506040909401359392505050565b600181811c9082168061313557607f821691505b60208210810361315557634e487b7160e01b600052602260045260246000fd5b50919050565b634e487b7160e01b600052601160045260246000fd5b6000600182016131835761318361315b565b5060010190565b7f68747470733a2f2f6170692e6273617473662e636f6d2f6d657461646174612f8152600082516131c28160208501602087016127dd565b64173539b7b760d91b6020939091019283015250602501919050565b634e487b7160e01b600052603260045260246000fd5b818103818111156103af576103af61315b565b808201808211156103af576103af61315b565b601f821115611f3957600081815260208120601f850160051c810160208610156132415750805b601f850160051c820191505b8181101561086f5782815560010161324d565b81516001600160401b0381111561327957613279612968565b61328d816132878454613121565b8461321a565b602080601f8311600181146132c257600084156132aa5750858301515b600019600386901b1c1916600185901b17855561086f565b600085815260208120601f198616915b828110156132f1578886015182559484019460019091019084016132d2565b508582101561330f5787850151600019600388901b60f8161c191681555b5050505050600190811b01905550565b828152604060208201526000611e6b6040830184612801565b602080825260169082015275082e4e4c2f2e640d8cadccee8d040dad2e6dac2e8c6d60531b604082015260600190565b634e487b7160e01b600052601260045260246000fd5b60008261338d5761338d613368565b500490565b6000826133a1576133a1613368565b500690565b6001600160a01b03868116825285166020820152604081018490526060810183905260a0608082018190526000906133e090830184612801565b979650505050505050565b6000602082840312156133fd57600080fd5b81516127bd8161278a565b6001600160a01b0386811682528516602082015260a06040820181905260009061343490830186612b6f565b82810360608401526134468186612b6f565b9050828103608084015261345a8185612801565b9897505050505050505056fea2646970667358221220498842b472c9f15a20bfea141713f184d937752a87171488a345ca4188d55c8464736f6c6343000814003368747470733a2f2f6170692e6273617473662e636f6d2f6d657461646174612f7b69647d2e6a736f6e",
  "linkReferences": {},
  "deployedLinkReferences": {}
}