{
  "_format": "hh-sol-artifact-1",
  "contractName": "BSATSF_Marketplace",
  "sourceName": "contracts/BSATSF_Marketplace.sol",
  "abi": [
    {
      "inputs": [
        {
          "internalType": "address",
          "name": "_erc721",
          "type": "address"
        },
        {
          "internalType": "address",
          "name": "initialOwner",
          "type": "address"
        }
      ],
      "stateMutability": "nonpayable",
      "type": "constructor"
    },
    {
      "inputs": [
        {
          "internalType": "address",
          "name": "owner",
          "type": "address"
        }
      ],
      "name": "OwnableInvalidOwner",
      "type": "error"
    },
    {
      "inputs": [
        {
          "internalType": "address",
          "name": "account",
          "type": "address"
        }
      ],
      "name": "OwnableUnauthorizedAccount",
      "type": "error"
    },
    {
      "anonymous": false,
      "inputs": [
        {
          "indexed": true,
          "internalType": "address",
          "name": "seller",
          "type": "address"
        },
        {
          "indexed": true,
          "internalType": "uint256",
          "name": "tokenId",
          "type": "uint256"
        },
        {
          "indexed": false,
          "internalType": "uint256",
          "name": "price",
          "type": "uint256"
        }
      ],
      "name": "Listed",
      "type": "event"
    },
    {
      "anonymous": false,
      "inputs": [
        {
          "indexed": true,
          "internalType": "address",
          "name": "seller",
          "type": "address"
        },
        {
          "indexed": true,
          "internalType": "uint256",
          "name": "tokenId",
          "type": "uint256"
        }
      ],
      "name": "ListingCancelled",
      "type": "event"
    },
    {
      "anonymous": false,
      "inputs": [
        {
          "indexed": true,
          "internalType": "address",
          "name": "previousOwner",
          "type": "address"
        },
        {
          "indexed": true,
          "internalType": "address",
          "name": "newOwner",
          "type": "address"
        }
      ],
      "name": "OwnershipTransferred",
      "type": "event"
    },
    {
      "anonymous": false,
      "inputs": [
        {
          "indexed": true,
          "internalType": "address",
          "name": "buyer",
          "type": "address"
        },
        {
          "indexed": true,
          "internalType": "address",
          "name": "seller",
          "type": "address"
        },
        {
          "indexed": true,
          "internalType": "uint256",
          "name": "tokenId",
          "type": "uint256"
        },
        {
          "indexed": false,
          "internalType": "uint256",
          "name": "price",
          "type": "uint256"
        },
        {
          "indexed": false,
          "internalType": "uint256",
          "name": "fee",
          "type": "uint256"
        }
      ],
      "name": "Purchased",
      "type": "event"
    },
    {
      "inputs": [
        {
          "internalType": "uint256",
          "name": "",
          "type": "uint256"
        }
      ],
      "name": "activeTokenIds",
      "outputs": [
        {
          "internalType": "uint256",
          "name": "",
          "type": "uint256"
        }
      ],
      "stateMutability": "view",
      "type": "function"
    },
    {
      "inputs": [
        {
          "internalType": "uint256",
          "name": "tokenId",
          "type": "uint256"
        }
      ],
      "name": "cancel",
      "outputs": [],
      "stateMutability": "nonpayable",
      "type": "function"
    },
    {
      "inputs": [],
      "name": "erc721",
      "outputs": [
        {
          "internalType": "address",
          "name": "",
          "type": "address"
        }
      ],
      "stateMutability": "view",
      "type": "function"
    },
    {
      "inputs": [],
      "name": "getActiveListings",
      "outputs": [
        {
          "components": [
            {
              "internalType": "address",
              "name": "seller",
              "type": "address"
            },
            {
              "internalType": "uint256",
              "name": "tokenId",
              "type": "uint256"
            },
            {
              "internalType": "uint256",
              "name": "price",
              "type": "uint256"
            },
            {
              "internalType": "bool",
              "name": "active",
              "type": "bool"
            }
          ],
          "internalType": "struct BSATSF_Marketplace.Listing[]",
          "name": "",
          "type": "tuple[]"
        }
      ],
      "stateMutability": "view",
      "type": "function"
    },
    {
      "inputs": [
        {
          "internalType": "uint256",
          "name": "tokenId",
          "type": "uint256"
        }
      ],
      "name": "getListing",
      "outputs": [
        {
          "components": [
            {
              "internalType": "address",
              "name": "seller",
              "type": "address"
            },
            {
              "internalType": "uint256",
              "name": "tokenId",
              "type": "uint256"
            },
            {
              "internalType": "uint256",
              "name": "price",
              "type": "uint256"
            },
            {
              "internalType": "bool",
              "name": "active",
              "type": "bool"
            }
          ],
          "internalType": "struct BSATSF_Marketplace.Listing",
          "name": "",
          "type": "tuple"
        }
      ],
      "stateMutability": "view",
      "type": "function"
    },
    {
      "inputs": [
        {
          "internalType": "uint256",
          "name": "tokenId",
          "type": "uint256"
        },
        {
          "internalType": "uint256",
          "name": "price",
          "type": "uint256"
        }
      ],
      "name": "list",
      "outputs": [],
      "stateMutability": "nonpayable",
      "type": "function"
    },
    {
      "inputs": [
        {
          "internalType": "uint256",
          "name": "",
          "type": "uint256"
        }
      ],
      "name": "listings",
      "outputs": [
        {
          "internalType": "address",
          "name": "seller",
          "type": "address"
        },
        {
          "internalType": "uint256",
          "name": "tokenId",
          "type": "uint256"
        },
        {
          "internalType": "uint256",
          "name": "price",
          "type": "uint256"
        },
        {
          "internalType": "bool",
          "name": "active",
          "type": "bool"
        }
      ],
      "stateMutability": "view",
      "type": "function"
    },
    {
      "inputs": [],
      "name": "owner",
      "outputs": [
        {
          "internalType": "address",
          "name": "",
          "type": "address"
        }
      ],
      "stateMutability": "view",
      "type": "function"
    },
    {
      "inputs": [
        {
          "internalType": "uint256",
          "name": "tokenId",
          "type": "uint256"
        }
      ],
      "name": "purchase",
      "outputs": [],
      "stateMutability": "payable",
      "type": "function"
    },
    {
      "inputs": [],
      "name": "renounceOwnership",
      "outputs": [],
      "stateMutability": "nonpayable",
      "type": "function"
    },
    {
      "inputs": [
        {
          "internalType": "address",
          "name": "newOwner",
          "type": "address"
        }
      ],
      "name": "transferOwnership",
      "outputs": [],
      "stateMutability": "nonpayable",
      "type": "function"
    }
  ],
  "bytecode": "0x608060405234801561001057600080fd5b50604051610f9a380380610f9a83398101604081905261002f916100fa565b806001600160a01b03811661005e57604051631e4fbdf760e01b81526000600482015260240160405180910390fd5b6100678161008e565b5050600180546001600160a01b0319166001600160a01b039290921691909117905561012d565b600080546001600160a01b038381166001600160a01b0319831681178455604051919092169283917f8be0079c531659141344cd1fd0a4f28419497f9722a3daafe3b4186f6b6457e09190a35050565b80516001600160a01b03811681146100f557600080fd5b919050565b6000806040838503121561010d57600080fd5b610116836100de565b9150610124602084016100de565b90509250929050565b610e5e8061013c6000396000f3fe60806040526004361061009c5760003560e01c806387c35bc01161006457806387c35bc0146101cb5780638da5cb5b146101ed578063bca6ce641461021f578063de74e57b1461023f578063efef39a1146102bc578063f2fde38b146102cf57600080fd5b8063107a274a146100a15780631d7d11041461014657806340e58ee51461017457806350fd736714610196578063715018a6146101b6575b600080fd5b3480156100ad57600080fd5b506101306100bc366004610c3f565b60408051608081018252600080825260208201819052918101829052606081019190915250600090815260026020818152604092839020835160808101855281546001600160a01b0316815260018201549281019290925291820154928101929092526003015460ff161515606082015290565b60405161013d9190610c58565b60405180910390f35b34801561015257600080fd5b50610166610161366004610c3f565b6102ef565b60405190815260200161013d565b34801561018057600080fd5b5061019461018f366004610c3f565b610310565b005b3480156101a257600080fd5b506101946101b1366004610c90565b610429565b3480156101c257600080fd5b50610194610748565b3480156101d757600080fd5b506101e061075c565b60405161013d9190610cb2565b3480156101f957600080fd5b506000546001600160a01b03165b6040516001600160a01b03909116815260200161013d565b34801561022b57600080fd5b50600154610207906001600160a01b031681565b34801561024b57600080fd5b5061029061025a366004610c3f565b600260208190526000918252604090912080546001820154928201546003909201546001600160a01b0390911692919060ff1684565b604080516001600160a01b0390951685526020850193909352918301521515606082015260800161013d565b6101946102ca366004610c3f565b61091e565b3480156102db57600080fd5b506101946102ea366004610d3e565b610b84565b600381815481106102ff57600080fd5b600091825260209091200154905081565b600081815260026020818152604092839020835160808101855281546001600160a01b0316815260018201549281019290925291820154928101929092526003015460ff1615156060820181905261039c5760405162461bcd60e51b815260206004820152600a602482015269139bdd081b1a5cdd195960b21b60448201526064015b60405180910390fd5b80516001600160a01b031633146103e25760405162461bcd60e51b815260206004820152600a6024820152692737ba1039b2b63632b960b11b6044820152606401610393565b600082815260026020526040808220600301805460ff1916905551839133917f93ec4766fcd2d9dfdceab8f2e13ba0d9d826645cf03167fdb92b3b7359b5248c9190a35050565b6000811161046d5760405162461bcd60e51b815260206004820152601160248201527005072696365206d757374206265203e203607c1b6044820152606401610393565b6001546040516331a9108f60e11b8152600481018490526000916001600160a01b031690636352211e90602401602060405180830381865afa1580156104b7573d6000803e3d6000fd5b505050506040513d601f19601f820116820180604052508101906104db9190610d62565b90506001600160a01b03811633146105275760405162461bcd60e51b815260206004820152600f60248201526e2737ba103a37b5b2b71037bbb732b960891b6044820152606401610393565b60015460405163020604bf60e21b81526004810185905260009130916001600160a01b039091169063081812fc90602401602060405180830381865afa158015610575573d6000803e3d6000fd5b505050506040513d601f19601f820116820180604052508101906105999190610d62565b6001600160a01b0316148061061b575060015460405163e985e9c560e01b81523360048201523060248201526001600160a01b039091169063e985e9c590604401602060405180830381865afa1580156105f7573d6000803e3d6000fd5b505050506040513d601f19601f8201168201806040525081019061061b9190610d7f565b90508061066a5760405162461bcd60e51b815260206004820152601860248201527f4d61726b6574706c616365206e6f7420617070726f76656400000000000000006044820152606401610393565b6040805160808101825233808252602080830188815283850188815260016060860181815260008c81526002808752898220985189546001600160a01b0319166001600160a01b0390911617895594518884015592519387019390935591516003958601805460ff191691151591909117905584549182018555939093527fc2575a0e9e593c00f959f8c92f12db2869c3395a3b0502d05e2516446f71f85b90920187905591518581528692917f6e16e8064e3c8254cef11e01e152416398602d7e8785f743f1c2f93a9a15ff35910160405180910390a350505050565b610750610bc2565b61075a6000610bef565b565b60606000805b6003548110156107ca57600260006003838154811061078357610783610da1565b6000918252602080832090910154835282019290925260400190206003015460ff16156107b857816107b481610dcd565b9250505b806107c281610dcd565b915050610762565b5060008167ffffffffffffffff8111156107e6576107e6610de6565b60405190808252806020026020018201604052801561083857816020015b6040805160808101825260008082526020808301829052928201819052606082015282526000199092019101816108045790505b5090506000805b6003548110156109155760006003828154811061085e5761085e610da1565b6000918252602080832090910154808352600290915260409091206003015490915060ff161561090257600081815260026020818152604092839020835160808101855281546001600160a01b0316815260018201549281019290925291820154928101929092526003015460ff161515606082015284518590859081106108e8576108e8610da1565b602002602001018190525082806108fe90610dcd565b9350505b508061090d81610dcd565b91505061083f565b50909392505050565b600081815260026020818152604092839020835160808101855281546001600160a01b0316815260018201549281019290925291820154928101929092526003015460ff161515606082018190526109a55760405162461bcd60e51b815260206004820152600a602482015269139bdd081b1a5cdd195960b21b6044820152606401610393565b6001546040805163acb2ad6f60e01b815290516000926001600160a01b03169163acb2ad6f9160048083019260209291908290030181865afa1580156109ef573d6000803e3d6000fd5b505050506040513d601f19601f82011682018060405250810190610a139190610dfc565b9050808260400151610a259190610e15565b341015610a6b5760405162461bcd60e51b8152602060048201526014602482015273125b9cdd59999a58da595b9d081c185e5b595b9d60621b6044820152606401610393565b815160408084015190516001600160a01b039092169181156108fc0291906000818181858888f19350505050158015610aa8573d6000803e3d6000fd5b50600154825160405163439e2e4560e01b81526001600160a01b0391821660048201523360248201526044810186905291169063439e2e459083906064016000604051808303818588803b158015610aff57600080fd5b505af1158015610b13573d6000803e3d6000fd5b505050600085815260026020908152604091829020600301805460ff1916905585518683015183519081529182018690528794506001600160a01b0316925033917fb362243af1e2070d7d5bf8d713f2e0fab64203f1b71462afbe20572909788c5e910160405180910390a4505050565b610b8c610bc2565b6001600160a01b038116610bb657604051631e4fbdf760e01b815260006004820152602401610393565b610bbf81610bef565b50565b6000546001600160a01b0316331461075a5760405163118cdaa760e01b8152336004820152602401610393565b600080546001600160a01b038381166001600160a01b0319831681178455604051919092169283917f8be0079c531659141344cd1fd0a4f28419497f9722a3daafe3b4186f6b6457e09190a35050565b600060208284031215610c5157600080fd5b5035919050565b81516001600160a01b031681526020808301519082015260408083015190820152606080830151151590820152608081015b92915050565b60008060408385031215610ca357600080fd5b50508035926020909101359150565b6020808252825182820181905260009190848201906040850190845b81811015610d1d57610d0a83855180516001600160a01b0316825260208082015190830152604080820151908301526060908101511515910152565b9284019260809290920191600101610cce565b50909695505050505050565b6001600160a01b0381168114610bbf57600080fd5b600060208284031215610d5057600080fd5b8135610d5b81610d29565b9392505050565b600060208284031215610d7457600080fd5b8151610d5b81610d29565b600060208284031215610d9157600080fd5b81518015158114610d5b57600080fd5b634e487b7160e01b600052603260045260246000fd5b634e487b7160e01b600052601160045260246000fd5b600060018201610ddf57610ddf610db7565b5060010190565b634e487b7160e01b600052604160045260246000fd5b600060208284031215610e0e57600080fd5b5051919050565b80820180821115610c8a57610c8a610db756fea2646970667358221220789562f2e26688a71a21debcc7b91485fc00166bc9a1ed382996000fded0d66164736f6c63430008140033",
  "linkReferences": {},
  "deployedLinkReferences": {}
}