{
  "_format": "hh-sol-artifact-1",
  "contractName": "BSATSF_Marketplace",
  "sourceName": "contracts/BSATSF_Marketplace.sol",
  "abi": [
    {
      "inputs": [
        {
          "internalType": "address",
          "name": "_erc721",
          "type": "address"
        },
        {
          "internalType": "address",
          "name": "_erc1155",
          "type": "address"
        },
        {
          "internalType": "address",
          "name": "initialOwner",
          "type": "address"
        }
      ],
      "stateMutability": "nonpayable",
      "type": "constructor"
    },
    {
      "inputs": [
        {
          "internalType": "address",
          "name": "owner",
          "type": "address"
        }
      ],
      "name": "OwnableInvalidOwner",
      "type": "error"
    },
    {
      "inputs": [
        {
          "internalType": "address",
          "name": "account",
          "type": "address"
        }
      ],
      "name": "OwnableUnauthorizedAccount",
      "type": "error"
    },
    {
      "inputs": [],
      "name": "ReentrancyGuardReentrantCall",
      "type": "error"
    },
    {
      "anonymous": false,
      "inputs": [
        {
          "indexed": true,
          "internalType": "uint256",
          "name": "listingId",
          "type": "uint256"
        }
      ],
      "name": "ItemCanceled",
      "type": "event"
    },
    {
      "anonymous": false,
      "inputs": [
        {
          "indexed": true,
          "internalType": "uint256",
          "name": "listingId",
          "type": "uint256"
        },
        {
          "indexed": true,
          "internalType": "address",
          "name": "seller",
          "type": "address"
        },
        {
          "indexed": true,
          "internalType": "address",
          "name": "tokenAddress",
          "type": "address"
        },
        {
          "indexed": false,
          "internalType": "uint256",
          "name": "tokenId",
          "type": "uint256"
        },
        {
          "indexed": false,
          "internalType": "uint256",
          "name": "quantity",
          "type": "uint256"
        },
        {
          "indexed": false,
          "internalType": "uint256",
          "name": "pricePerUnit",
          "type": "uint256"
        }
      ],
      "name": "ItemListed",
      "type": "event"
    },
    {
      "anonymous": false,
      "inputs": [
        {
          "indexed": true,
          "internalType": "uint256",
          "name": "listingId",
          "type": "uint256"
        },
        {
          "indexed": true,
          "internalType": "address",
          "name": "buyer",
          "type": "address"
        },
        {
          "indexed": true,
          "internalType": "address",
          "name": "tokenAddress",
          "type": "address"
        },
        {
          "indexed": false,
          "internalType": "uint256",
          "name": "tokenId",
          "type": "uint256"
        },
        {
          "indexed": false,
          "internalType": "uint256",
          "name": "quantity",
          "type": "uint256"
        },
        {
          "indexed": false,
          "internalType": "uint256",
          "name": "totalPrice",
          "type": "uint256"
        }
      ],
      "name": "ItemSold",
      "type": "event"
    },
    {
      "anonymous": false,
      "inputs": [
        {
          "indexed": true,
          "internalType": "address",
          "name": "previousOwner",
          "type": "address"
        },
        {
          "indexed": true,
          "internalType": "address",
          "name": "newOwner",
          "type": "address"
        }
      ],
      "name": "OwnershipTransferred",
      "type": "event"
    },
    {
      "inputs": [
        {
          "internalType": "uint256",
          "name": "listingId",
          "type": "uint256"
        },
        {
          "internalType": "uint256",
          "name": "quantityToBuy",
          "type": "uint256"
        }
      ],
      "name": "buyItem",
      "outputs": [],
      "stateMutability": "payable",
      "type": "function"
    },
    {
      "inputs": [
        {
          "internalType": "uint256",
          "name": "listingId",
          "type": "uint256"
        }
      ],
      "name": "cancelListing",
      "outputs": [],
      "stateMutability": "nonpayable",
      "type": "function"
    },
    {
      "inputs": [],
      "name": "erc1155Contract",
      "outputs": [
        {
          "internalType": "address",
          "name": "",
          "type": "address"
        }
      ],
      "stateMutability": "view",
      "type": "function"
    },
    {
      "inputs": [],
      "name": "erc721Contract",
      "outputs": [
        {
          "internalType": "address",
          "name": "",
          "type": "address"
        }
      ],
      "stateMutability": "view",
      "type": "function"
    },
    {
      "inputs": [],
      "name": "getAllActiveListings",
      "outputs": [
        {
          "components": [
            {
              "internalType": "uint256",
              "name": "listingId",
              "type": "uint256"
            },
            {
              "internalType": "address",
              "name": "seller",
              "type": "address"
            },
            {
              "internalType": "address",
              "name": "tokenAddress",
              "type": "address"
            },
            {
              "internalType": "uint256",
              "name": "tokenId",
              "type": "uint256"
            },
            {
              "internalType": "uint256",
              "name": "quantity",
              "type": "uint256"
            },
            {
              "internalType": "uint256",
              "name": "pricePerUnit",
              "type": "uint256"
            },
            {
              "internalType": "bool",
              "name": "isERC1155",
              "type": "bool"
            },
            {
              "internalType": "bool",
              "name": "active",
              "type": "bool"
            }
          ],
          "internalType": "struct BSATSF_Marketplace.Listing[]",
          "name": "",
          "type": "tuple[]"
        }
      ],
      "stateMutability": "view",
      "type": "function"
    },
    {
      "inputs": [
        {
          "internalType": "uint256",
          "name": "tokenId",
          "type": "uint256"
        },
        {
          "internalType": "uint256",
          "name": "quantity",
          "type": "uint256"
        },
        {
          "internalType": "uint256",
          "name": "pricePerUnit",
          "type": "uint256"
        }
      ],
      "name": "listERC1155",
      "outputs": [],
      "stateMutability": "nonpayable",
      "type": "function"
    },
    {
      "inputs": [
        {
          "internalType": "uint256",
          "name": "tokenId",
          "type": "uint256"
        },
        {
          "internalType": "uint256",
          "name": "price",
          "type": "uint256"
        }
      ],
      "name": "listERC721",
      "outputs": [],
      "stateMutability": "nonpayable",
      "type": "function"
    },
    {
      "inputs": [
        {
          "internalType": "uint256",
          "name": "",
          "type": "uint256"
        }
      ],
      "name": "listings",
      "outputs": [
        {
          "internalType": "uint256",
          "name": "listingId",
          "type": "uint256"
        },
        {
          "internalType": "address",
          "name": "seller",
          "type": "address"
        },
        {
          "internalType": "address",
          "name": "tokenAddress",
          "type": "address"
        },
        {
          "internalType": "uint256",
          "name": "tokenId",
          "type": "uint256"
        },
        {
          "internalType": "uint256",
          "name": "quantity",
          "type": "uint256"
        },
        {
          "internalType": "uint256",
          "name": "pricePerUnit",
          "type": "uint256"
        },
        {
          "internalType": "bool",
          "name": "isERC1155",
          "type": "bool"
        },
        {
          "internalType": "bool",
          "name": "active",
          "type": "bool"
        }
      ],
      "stateMutability": "view",
      "type": "function"
    },
    {
      "inputs": [],
      "name": "owner",
      "outputs": [
        {
          "internalType": "address",
          "name": "",
          "type": "address"
        }
      ],
      "stateMutability": "view",
      "type": "function"
    },
    {
      "inputs": [],
      "name": "renounceOwnership",
      "outputs": [],
      "stateMutability": "nonpayable",
      "type": "function"
    },
    {
      "inputs": [
        {
          "internalType": "address",
          "name": "newOwner",
          "type": "address"
        }
      ],
      "name": "transferOwnership",
      "outputs": [],
      "stateMutability": "nonpayable",
      "type": "function"
    }
  ],
  "bytecode": "0x60c06040523480156200001157600080fd5b5060405162001652380380620016528339810160408190526200003491620000fa565b806001600160a01b0381166200006457604051631e4fbdf760e01b81526000600482015260240160405180910390fd5b6200006f816200008d565b5050600180556001600160a01b039182166080521660a05262000144565b600080546001600160a01b038381166001600160a01b0319831681178455604051919092169283917f8be0079c531659141344cd1fd0a4f28419497f9722a3daafe3b4186f6b6457e09190a35050565b80516001600160a01b0381168114620000f557600080fd5b919050565b6000806000606084860312156200011057600080fd5b6200011b84620000dd565b92506200012b60208501620000dd565b91506200013b60408501620000dd565b90509250925092565b60805160a0516114b0620001a2600039600081816101150152818161074f01528181610e4e01528181610ff801526111230152600081816101b2015281816107e90152818161098601528181610baa0152610cd601526114b06000f3fe60806040526004361061009c5760003560e01c80639979c009116100645780639979c0091461016d578063c5592e6714610180578063d7c97fb4146101a0578063de74e57b146101d4578063f2fde38b1461028f578063f58a9c87146102af57600080fd5b8063305a67a8146100a1578063701e5084146100c3578063715018a6146100ee5780637a564970146101035780638da5cb5b1461014f575b600080fd5b3480156100ad57600080fd5b506100c16100bc36600461125a565b6102cf565b005b3480156100cf57600080fd5b506100d86103ad565b6040516100e59190611273565b60405180910390f35b3480156100fa57600080fd5b506100c1610581565b34801561010f57600080fd5b506101377f000000000000000000000000000000000000000000000000000000000000000081565b6040516001600160a01b0390911681526020016100e5565b34801561015b57600080fd5b506000546001600160a01b0316610137565b6100c161017b366004611310565b610595565b34801561018c57600080fd5b506100c161019b366004611310565b610924565b3480156101ac57600080fd5b506101377f000000000000000000000000000000000000000000000000000000000000000081565b3480156101e057600080fd5b506102446101ef36600461125a565b6003602081905260009182526040909120805460018201546002830154938301546004840154600585015460069095015493956001600160a01b03938416959316939192909160ff8082169161010090041688565b604080519889526001600160a01b0397881660208a015295909616948701949094526060860192909252608085015260a0840152151560c0830152151560e0820152610100016100e5565b34801561029b57600080fd5b506100c16102aa366004611347565b610d62565b3480156102bb57600080fd5b506100c16102ca36600461136b565b610da0565b600081815260036020526040902060018101546001600160a01b0316331461032b5760405162461bcd60e51b815260206004820152600a6024820152692737ba1039b2b63632b960b11b60448201526064015b60405180910390fd5b6006810154610100900460ff166103715760405162461bcd60e51b815260206004820152600a6024820152694e6f742061637469766560b01b6044820152606401610322565b60068101805461ff001916905560405182907fc488cd4b714d7cba0f629146d7651a71b310fdf6f2b70ed73bde9d78d46dbabe90600090a25050565b600254606090600060015b8281116103fe57600081815260036020526040902060060154610100900460ff16156103ec57816103e8816113ad565b9250505b806103f6816113ad565b9150506103b8565b5060008167ffffffffffffffff81111561041a5761041a6113c6565b60405190808252806020026020018201604052801561048957816020015b604080516101008101825260008082526020808301829052928201819052606082018190526080820181905260a0820181905260c0820181905260e082015282526000199092019101816104385790505b509050600060015b84811161057757600081815260036020526040902060060154610100900460ff161561056557600081815260036020818152604092839020835161010080820186528254825260018301546001600160a01b039081169483019490945260028301549093169481019490945291820154606084015260048201546080840152600582015460a084015260069091015460ff808216151560c085015291900416151560e0820152835184908490811061054b5761054b6113dc565b60200260200101819052508180610561906113ad565b9250505b8061056f816113ad565b915050610491565b5090949350505050565b6105896111b3565b61059360006111e0565b565b61059d611230565b60008281526003602052604090206006810154610100900460ff166105f95760405162461bcd60e51b81526020600482015260126024820152714c697374696e67206e6f742061637469766560701b6044820152606401610322565b60008211801561060d575080600401548211155b61064c5760405162461bcd60e51b815260206004820152601060248201526f496e76616c6964207175616e7469747960801b6044820152606401610322565b600082826005015461065e91906113f2565b9050803410156106a85760405162461bcd60e51b8152602060048201526015602482015274125b9cdd59999a58da595b9d08115512081cd95b9d605a1b6044820152606401610322565b600182015460058301546001600160a01b03909116906108fc906106cd9086906113f2565b6040518115909202916000818181858888f193505050501580156106f5573d6000803e3d6000fd5b50600682015460ff16156107b25760018201546003830154604051637921219560e11b81526001600160a01b03928316600482015233602482015260448101919091526064810185905260a06084820152600060a48201527f00000000000000000000000000000000000000000000000000000000000000009091169063f242432a9060c401600060405180830381600087803b15801561079557600080fd5b505af11580156107a9573d6000803e3d6000fd5b50505050610848565b60018201546003830154604051632142170760e11b81526001600160a01b03928316600482015233602482015260448101919091527f0000000000000000000000000000000000000000000000000000000000000000909116906342842e0e90606401600060405180830381600087803b15801561082f57600080fd5b505af1158015610843573d6000803e3d6000fd5b505050505b8282600401600082825461085c919061140f565b9091555050600482015460000361087b5760068201805461ff00191690555b60028201546003830154604080519182526020820186905281018390526001600160a01b0390911690339086907f47c0046c0d923725fc7b369072732bd5d2eba84ffb3644b926d286835685b0119060600160405180910390a48034111561091557336108fc6108eb833461140f565b6040518115909202916000818181858888f19350505050158015610913573d6000803e3d6000fd5b505b505061092060018055565b5050565b61092c611230565b600081116109705760405162461bcd60e51b815260206004820152601160248201527005072696365206d757374206265203e203607c1b6044820152606401610322565b6040516331a9108f60e11b8152600481018390527f00000000000000000000000000000000000000000000000000000000000000009033906001600160a01b03831690636352211e90602401602060405180830381865afa1580156109d9573d6000803e3d6000fd5b505050506040513d601f19601f820116820180604052508101906109fd9190611422565b6001600160a01b031614610a3f5760405162461bcd60e51b81526020600482015260096024820152682737ba1037bbb732b960b91b6044820152606401610322565b60405163e985e9c560e01b81523360048201523060248201526001600160a01b0382169063e985e9c590604401602060405180830381865afa158015610a89573d6000803e3d6000fd5b505050506040513d601f19601f82011682018060405250810190610aad919061143f565b80610b29575060405163020604bf60e21b81526004810184905230906001600160a01b0383169063081812fc90602401602060405180830381865afa158015610afa573d6000803e3d6000fd5b505050506040513d601f19601f82011682018060405250810190610b1e9190611422565b6001600160a01b0316145b610b705760405162461bcd60e51b815260206004820152601860248201527713585c9ad95d1c1b1858d9481b9bdd08185c1c1c9bdd995960421b6044820152606401610322565b60028054906000610b80836113ad565b91905055506040518061010001604052806002548152602001336001600160a01b031681526020017f00000000000000000000000000000000000000000000000000000000000000006001600160a01b0316815260200184815260200160018152602001838152602001600015158152602001600115158152506003600060025481526020019081526020016000206000820151816000015560208201518160010160006101000a8154816001600160a01b0302191690836001600160a01b0316021790555060408201518160020160006101000a8154816001600160a01b0302191690836001600160a01b03160217905550606082015181600301556080820151816004015560a0820151816005015560c08201518160060160006101000a81548160ff02191690831515021790555060e08201518160060160016101000a81548160ff0219169083151502179055509050507f00000000000000000000000000000000000000000000000000000000000000006001600160a01b0316336001600160a01b03166002547fe5695c078921b31622212415f370ba739c8c60080cc5520a02503ef889fe082286600187604051610d50939291909283526020830191909152604082015260600190565b60405180910390a45061092060018055565b610d6a6111b3565b6001600160a01b038116610d9457604051631e4fbdf760e01b815260006004820152602401610322565b610d9d816111e0565b50565b610da8611230565b60008111610dec5760405162461bcd60e51b815260206004820152601160248201527005072696365206d757374206265203e203607c1b6044820152606401610322565b60008211610e335760405162461bcd60e51b815260206004820152601460248201527305175616e74697479206d757374206265203e20360641b6044820152606401610322565b604051627eeac760e11b8152336004820152602481018490527f00000000000000000000000000000000000000000000000000000000000000009083906001600160a01b0383169062fdd58e90604401602060405180830381865afa158015610ea0573d6000803e3d6000fd5b505050506040513d601f19601f82011682018060405250810190610ec49190611461565b1015610f095760405162461bcd60e51b8152602060048201526014602482015273496e73756666696369656e742062616c616e636560601b6044820152606401610322565b60405163e985e9c560e01b81523360048201523060248201526001600160a01b0382169063e985e9c590604401602060405180830381865afa158015610f53573d6000803e3d6000fd5b505050506040513d601f19601f82011682018060405250810190610f77919061143f565b610fbe5760405162461bcd60e51b815260206004820152601860248201527713585c9ad95d1c1b1858d9481b9bdd08185c1c1c9bdd995960421b6044820152606401610322565b60028054906000610fce836113ad565b91905055506040518061010001604052806002548152602001336001600160a01b031681526020017f00000000000000000000000000000000000000000000000000000000000000006001600160a01b03168152602001858152602001848152602001838152602001600115158152602001600115158152506003600060025481526020019081526020016000206000820151816000015560208201518160010160006101000a8154816001600160a01b0302191690836001600160a01b0316021790555060408201518160020160006101000a8154816001600160a01b0302191690836001600160a01b03160217905550606082015181600301556080820151816004015560a0820151816005015560c08201518160060160006101000a81548160ff02191690831515021790555060e08201518160060160016101000a81548160ff0219169083151502179055509050507f00000000000000000000000000000000000000000000000000000000000000006001600160a01b0316336001600160a01b03166002547fe5695c078921b31622212415f370ba739c8c60080cc5520a02503ef889fe082287878760405161119c939291909283526020830191909152604082015260600190565b60405180910390a4506111ae60018055565b505050565b6000546001600160a01b031633146105935760405163118cdaa760e01b8152336004820152602401610322565b600080546001600160a01b038381166001600160a01b0319831681178455604051919092169283917f8be0079c531659141344cd1fd0a4f28419497f9722a3daafe3b4186f6b6457e09190a35050565b60026001540361125357604051633ee5aeb560e01b815260040160405180910390fd5b6002600155565b60006020828403121561126c57600080fd5b5035919050565b602080825282518282018190526000919060409081850190868401855b8281101561130357815180518552868101516001600160a01b0390811688870152868201511686860152606080820151908601526080808201519086015260a0808201519086015260c08082015115159086015260e0908101511515908501526101009093019290850190600101611290565b5091979650505050505050565b6000806040838503121561132357600080fd5b50508035926020909101359150565b6001600160a01b0381168114610d9d57600080fd5b60006020828403121561135957600080fd5b813561136481611332565b9392505050565b60008060006060848603121561138057600080fd5b505081359360208301359350604090920135919050565b634e487b7160e01b600052601160045260246000fd5b6000600182016113bf576113bf611397565b5060010190565b634e487b7160e01b600052604160045260246000fd5b634e487b7160e01b600052603260045260246000fd5b808202811582820484141761140957611409611397565b92915050565b8181038181111561140957611409611397565b60006020828403121561143457600080fd5b815161136481611332565b60006020828403121561145157600080fd5b8151801515811461136457600080fd5b60006020828403121561147357600080fd5b505191905056fea26469706673582212204a11e33be4f168563933554dc079a83094e1928aa78f36b6110a428ced8c029564736f6c63430008140033",
  "linkReferences": {},
  "deployedLinkReferences": {}
}