{
  "_format": "hh-sol-artifact-1",
  "contractName": "BSATSF_ERC1155",
  "sourceName": "contracts/BSATSF_ERC1155.sol",
  "abi": [
    {
      "inputs": [
        {
          "internalType": "address",
          "name": "initialOwner",
          "type": "address"
        }
      ],
      "stateMutability": "nonpayable",
      "type": "constructor"
    },
    {
      "inputs": [
        {
          "internalType": "address",
          "name": "sender",
          "type": "address"
        },
        {
          "internalType": "uint256",
          "name": "balance",
          "type": "uint256"
        },
        {
          "internalType": "uint256",
          "name": "needed",
          "type": "uint256"
        },
        {
          "internalType": "uint256",
          "name": "tokenId",
          "type": "uint256"
        }
      ],
      "name": "ERC1155InsufficientBalance",
      "type": "error"
    },
    {
      "inputs": [
        {
          "internalType": "address",
          "name": "approver",
          "type": "address"
        }
      ],
      "name": "ERC1155InvalidApprover",
      "type": "error"
    },
    {
      "inputs": [
        {
          "internalType": "uint256",
          "name": "idsLength",
          "type": "uint256"
        },
        {
          "internalType": "uint256",
          "name": "valuesLength",
          "type": "uint256"
        }
      ],
      "name": "ERC1155InvalidArrayLength",
      "type": "error"
    },
    {
      "inputs": [
        {
          "internalType": "address",
          "name": "operator",
          "type": "address"
        }
      ],
      "name": "ERC1155InvalidOperator",
      "type": "error"
    },
    {
      "inputs": [
        {
          "internalType": "address",
          "name": "receiver",
          "type": "address"
        }
      ],
      "name": "ERC1155InvalidReceiver",
      "type": "error"
    },
    {
      "inputs": [
        {
          "internalType": "address",
          "name": "sender",
          "type": "address"
        }
      ],
      "name": "ERC1155InvalidSender",
      "type": "error"
    },
    {
      "inputs": [
        {
          "internalType": "address",
          "name": "operator",
          "type": "address"
        },
        {
          "internalType": "address",
          "name": "owner",
          "type": "address"
        }
      ],
      "name": "ERC1155MissingApprovalForAll",
      "type": "error"
    },
    {
      "inputs": [
        {
          "internalType": "address",
          "name": "owner",
          "type": "address"
        }
      ],
      "name": "OwnableInvalidOwner",
      "type": "error"
    },
    {
      "inputs": [
        {
          "internalType": "address",
          "name": "account",
          "type": "address"
        }
      ],
      "name": "OwnableUnauthorizedAccount",
      "type": "error"
    },
    {
      "anonymous": false,
      "inputs": [
        {
          "indexed": true,
          "internalType": "address",
          "name": "account",
          "type": "address"
        },
        {
          "indexed": true,
          "internalType": "address",
          "name": "operator",
          "type": "address"
        },
        {
          "indexed": false,
          "internalType": "bool",
          "name": "approved",
          "type": "bool"
        }
      ],
      "name": "ApprovalForAll",
      "type": "event"
    },
    {
      "anonymous": false,
      "inputs": [
        {
          "indexed": false,
          "internalType": "uint256[]",
          "name": "tokenIds",
          "type": "uint256[]"
        },
        {
          "indexed": true,
          "internalType": "address",
          "name": "to",
          "type": "address"
        },
        {
          "indexed": false,
          "internalType": "uint256[]",
          "name": "amounts",
          "type": "uint256[]"
        }
      ],
      "name": "AssetBatchMinted",
      "type": "event"
    },
    {
      "anonymous": false,
      "inputs": [
        {
          "indexed": true,
          "internalType": "uint256",
          "name": "tokenId",
          "type": "uint256"
        },
        {
          "indexed": true,
          "internalType": "address",
          "name": "to",
          "type": "address"
        },
        {
          "indexed": false,
          "internalType": "uint256",
          "name": "amount",
          "type": "uint256"
        },
        {
          "indexed": false,
          "internalType": "string",
          "name": "metadataURI",
          "type": "string"
        }
      ],
      "name": "AssetMinted",
      "type": "event"
    },
    {
      "anonymous": false,
      "inputs": [
        {
          "indexed": true,
          "internalType": "address",
          "name": "previousOwner",
          "type": "address"
        },
        {
          "indexed": true,
          "internalType": "address",
          "name": "newOwner",
          "type": "address"
        }
      ],
      "name": "OwnershipTransferred",
      "type": "event"
    },
    {
      "anonymous": false,
      "inputs": [
        {
          "indexed": true,
          "internalType": "address",
          "name": "operator",
          "type": "address"
        },
        {
          "indexed": true,
          "internalType": "address",
          "name": "from",
          "type": "address"
        },
        {
          "indexed": true,
          "internalType": "address",
          "name": "to",
          "type": "address"
        },
        {
          "indexed": false,
          "internalType": "uint256[]",
          "name": "ids",
          "type": "uint256[]"
        },
        {
          "indexed": false,
          "internalType": "uint256[]",
          "name": "values",
          "type": "uint256[]"
        }
      ],
      "name": "TransferBatch",
      "type": "event"
    },
    {
      "anonymous": false,
      "inputs": [
        {
          "indexed": true,
          "internalType": "address",
          "name": "operator",
          "type": "address"
        },
        {
          "indexed": true,
          "internalType": "address",
          "name": "from",
          "type": "address"
        },
        {
          "indexed": true,
          "internalType": "address",
          "name": "to",
          "type": "address"
        },
        {
          "indexed": false,
          "internalType": "uint256",
          "name": "id",
          "type": "uint256"
        },
        {
          "indexed": false,
          "internalType": "uint256",
          "name": "value",
          "type": "uint256"
        }
      ],
      "name": "TransferSingle",
      "type": "event"
    },
    {
      "anonymous": false,
      "inputs": [
        {
          "indexed": false,
          "internalType": "string",
          "name": "value",
          "type": "string"
        },
        {
          "indexed": true,
          "internalType": "uint256",
          "name": "id",
          "type": "uint256"
        }
      ],
      "name": "URI",
      "type": "event"
    },
    {
      "inputs": [
        {
          "internalType": "uint256",
          "name": "",
          "type": "uint256"
        }
      ],
      "name": "assetMetadata",
      "outputs": [
        {
          "internalType": "string",
          "name": "name",
          "type": "string"
        },
        {
          "internalType": "string",
          "name": "description",
          "type": "string"
        },
        {
          "internalType": "string",
          "name": "ipfsHash",
          "type": "string"
        },
        {
          "internalType": "uint256",
          "name": "timestamp",
          "type": "uint256"
        },
        {
          "internalType": "address",
          "name": "creator",
          "type": "address"
        },
        {
          "internalType": "uint256",
          "name": "maxSupply",
          "type": "uint256"
        }
      ],
      "stateMutability": "view",
      "type": "function"
    },
    {
      "inputs": [
        {
          "internalType": "address",
          "name": "account",
          "type": "address"
        },
        {
          "internalType": "uint256",
          "name": "id",
          "type": "uint256"
        }
      ],
      "name": "balanceOf",
      "outputs": [
        {
          "internalType": "uint256",
          "name": "",
          "type": "uint256"
        }
      ],
      "stateMutability": "view",
      "type": "function"
    },
    {
      "inputs": [
        {
          "internalType": "address[]",
          "name": "accounts",
          "type": "address[]"
        },
        {
          "internalType": "uint256[]",
          "name": "ids",
          "type": "uint256[]"
        }
      ],
      "name": "balanceOfBatch",
      "outputs": [
        {
          "internalType": "uint256[]",
          "name": "",
          "type": "uint256[]"
        }
      ],
      "stateMutability": "view",
      "type": "function"
    },
    {
      "inputs": [
        {
          "internalType": "uint256",
          "name": "tokenId",
          "type": "uint256"
        }
      ],
      "name": "getAssetMetadata",
      "outputs": [
        {
          "components": [
            {
              "internalType": "string",
              "name": "name",
              "type": "string"
            },
            {
              "internalType": "string",
              "name": "description",
              "type": "string"
            },
            {
              "internalType": "string",
              "name": "ipfsHash",
              "type": "string"
            },
            {
              "internalType": "uint256",
              "name": "timestamp",
              "type": "uint256"
            },
            {
              "internalType": "address",
              "name": "creator",
              "type": "address"
            },
            {
              "internalType": "uint256",
              "name": "maxSupply",
              "type": "uint256"
            }
          ],
          "internalType": "struct BSATSF_ERC1155.AssetMetadata",
          "name": "",
          "type": "tuple"
        }
      ],
      "stateMutability": "view",
      "type": "function"
    },
    {
      "inputs": [
        {
          "internalType": "address",
          "name": "owner",
          "type": "address"
        }
      ],
      "name": "getTokensByOwner",
      "outputs": [
        {
          "internalType": "uint256[]",
          "name": "",
          "type": "uint256[]"
        },
        {
          "internalType": "uint256[]",
          "name": "",
          "type": "uint256[]"
        }
      ],
      "stateMutability": "view",
      "type": "function"
    },
    {
      "inputs": [
        {
          "internalType": "address",
          "name": "account",
          "type": "address"
        },
        {
          "internalType": "address",
          "name": "operator",
          "type": "address"
        }
      ],
      "name": "isApprovedForAll",
      "outputs": [
        {
          "internalType": "bool",
          "name": "",
          "type": "bool"
        }
      ],
      "stateMutability": "view",
      "type": "function"
    },
    {
      "inputs": [
        {
          "internalType": "uint256",
          "name": "tokenId",
          "type": "uint256"
        },
        {
          "internalType": "address",
          "name": "to",
          "type": "address"
        },
        {
          "internalType": "uint256",
          "name": "amount",
          "type": "uint256"
        }
      ],
      "name": "mintAdditional",
      "outputs": [],
      "stateMutability": "nonpayable",
      "type": "function"
    },
    {
      "inputs": [
        {
          "internalType": "address",
          "name": "to",
          "type": "address"
        },
        {
          "internalType": "uint256",
          "name": "amount",
          "type": "uint256"
        },
        {
          "internalType": "string",
          "name": "name",
          "type": "string"
        },
        {
          "internalType": "string",
          "name": "description",
          "type": "string"
        },
        {
          "internalType": "string",
          "name": "ipfsHash",
          "type": "string"
        },
        {
          "internalType": "uint256",
          "name": "maxSupply",
          "type": "uint256"
        }
      ],
      "name": "mintAsset",
      "outputs": [
        {
          "internalType": "uint256",
          "name": "",
          "type": "uint256"
        }
      ],
      "stateMutability": "nonpayable",
      "type": "function"
    },
    {
      "inputs": [
        {
          "internalType": "address",
          "name": "to",
          "type": "address"
        },
        {
          "internalType": "uint256[]",
          "name": "amounts",
          "type": "uint256[]"
        },
        {
          "internalType": "string[]",
          "name": "names",
          "type": "string[]"
        },
        {
          "internalType": "string[]",
          "name": "descriptions",
          "type": "string[]"
        },
        {
          "internalType": "string[]",
          "name": "ipfsHashes",
          "type": "string[]"
        },
        {
          "internalType": "uint256[]",
          "name": "maxSupplies",
          "type": "uint256[]"
        }
      ],
      "name": "mintBatch",
      "outputs": [
        {
          "internalType": "uint256[]",
          "name": "",
          "type": "uint256[]"
        }
      ],
      "stateMutability": "nonpayable",
      "type": "function"
    },
    {
      "inputs": [],
      "name": "owner",
      "outputs": [
        {
          "internalType": "address",
          "name": "",
          "type": "address"
        }
      ],
      "stateMutability": "view",
      "type": "function"
    },
    {
      "inputs": [],
      "name": "renounceOwnership",
      "outputs": [],
      "stateMutability": "nonpayable",
      "type": "function"
    },
    {
      "inputs": [
        {
          "internalType": "address",
          "name": "from",
          "type": "address"
        },
        {
          "internalType": "address",
          "name": "to",
          "type": "address"
        },
        {
          "internalType": "uint256[]",
          "name": "ids",
          "type": "uint256[]"
        },
        {
          "internalType": "uint256[]",
          "name": "values",
          "type": "uint256[]"
        },
        {
          "internalType": "bytes",
          "name": "data",
          "type": "bytes"
        }
      ],
      "name": "safeBatchTransferFrom",
      "outputs": [],
      "stateMutability": "nonpayable",
      "type": "function"
    },
    {
      "inputs": [
        {
          "internalType": "address",
          "name": "from",
          "type": "address"
        },
        {
          "internalType": "address",
          "name": "to",
          "type": "address"
        },
        {
          "internalType": "uint256",
          "name": "id",
          "type": "uint256"
        },
        {
          "internalType": "uint256",
          "name": "value",
          "type": "uint256"
        },
        {
          "internalType": "bytes",
          "name": "data",
          "type": "bytes"
        }
      ],
      "name": "safeTransferFrom",
      "outputs": [],
      "stateMutability": "nonpayable",
      "type": "function"
    },
    {
      "inputs": [
        {
          "internalType": "address",
          "name": "operator",
          "type": "address"
        },
        {
          "internalType": "bool",
          "name": "approved",
          "type": "bool"
        }
      ],
      "name": "setApprovalForAll",
      "outputs": [],
      "stateMutability": "nonpayable",
      "type": "function"
    },
    {
      "inputs": [
        {
          "internalType": "bytes4",
          "name": "interfaceId",
          "type": "bytes4"
        }
      ],
      "name": "supportsInterface",
      "outputs": [
        {
          "internalType": "bool",
          "name": "",
          "type": "bool"
        }
      ],
      "stateMutability": "view",
      "type": "function"
    },
    {
      "inputs": [
        {
          "internalType": "uint256",
          "name": "",
          "type": "uint256"
        }
      ],
      "name": "tokenSupply",
      "outputs": [
        {
          "internalType": "uint256",
          "name": "",
          "type": "uint256"
        }
      ],
      "stateMutability": "view",
      "type": "function"
    },
    {
      "inputs": [
        {
          "internalType": "uint256",
          "name": "tokenId",
          "type": "uint256"
        }
      ],
      "name": "totalSupply",
      "outputs": [
        {
          "internalType": "uint256",
          "name": "",
          "type": "uint256"
        }
      ],
      "stateMutability": "view",
      "type": "function"
    },
    {
      "inputs": [
        {
          "internalType": "address",
          "name": "newOwner",
          "type": "address"
        }
      ],
      "name": "transferOwnership",
      "outputs": [],
      "stateMutability": "nonpayable",
      "type": "function"
    },
    {
      "inputs": [
        {
          "internalType": "uint256",
          "name": "",
          "type": "uint256"
        }
      ],
      "name": "uri",
      "outputs": [
        {
          "internalType": "string",
          "name": "",
          "type": "string"
        }
      ],
      "stateMutability": "view",
      "type": "function"
    }
  ],
  "bytecode": "0x60806040523480156200001157600080fd5b5060405162002c5c38038062002c5c833981016040819052620000349162000101565b8060405180606001604052806029815260200162002c33602991396200005a816200009d565b506001600160a01b0381166200008a57604051631e4fbdf760e01b81526000600482015260240160405180910390fd5b6200009581620000af565b5050620002a4565b6002620000ab8282620001d8565b5050565b600380546001600160a01b038381166001600160a01b0319831681179093556040519116919082907f8be0079c531659141344cd1fd0a4f28419497f9722a3daafe3b4186f6b6457e090600090a35050565b6000602082840312156200011457600080fd5b81516001600160a01b03811681146200012c57600080fd5b9392505050565b634e487b7160e01b600052604160045260246000fd5b600181811c908216806200015e57607f821691505b6020821081036200017f57634e487b7160e01b600052602260045260246000fd5b50919050565b601f821115620001d357600081815260208120601f850160051c81016020861015620001ae5750805b601f850160051c820191505b81811015620001cf57828155600101620001ba565b5050505b505050565b81516001600160401b03811115620001f457620001f462000133565b6200020c8162000205845462000149565b8462000185565b602080601f8311600181146200024457600084156200022b5750858301515b600019600386901b1c1916600185901b178555620001cf565b600085815260208120601f198616915b82811015620002755788860151825594840194600190910190840162000254565b5085821015620002945787850151600019600388901b60f8161c191681555b5050505050600190811b01905550565b61297f80620002b46000396000f3fe608060405234801561001057600080fd5b50600436106101205760003560e01c80638da5cb5b116100ad578063cc45c9ea11610071578063cc45c9ea146102a5578063cf2acf84146102b8578063e985e9c5146102d8578063f242432a146102eb578063f2fde38b146102fe57600080fd5b80638da5cb5b14610231578063a22cb4651461024c578063bd5a7a231461025f578063bd85b03914610272578063c11f4e461461029257600080fd5b80632eb2c2d6116100f45780632eb2c2d6146101ae57806340398d67146101c35780634e1273f4146101e4578063504e35d314610204578063715018a61461022957600080fd5b8062fdd58e1461012557806301ffc9a71461014b5780630e89341c1461016e5780632693ebf21461018e575b600080fd5b610138610133366004611de0565b610311565b6040519081526020015b60405180910390f35b61015e610159366004611e20565b610339565b6040519015158152602001610142565b61018161017c366004611e44565b610389565b6040516101429190611ead565b61013861019c366004611e44565b60066020526000908152604090205481565b6101c16101bc366004612003565b61041d565b005b6101d66101d13660046120ac565b610489565b604051610142929190612102565b6101f76101f2366004612130565b6106d8565b60405161014291906121ef565b610217610212366004611e44565b6107ac565b60405161014296959493929190612202565b6101c1610984565b6003546040516001600160a01b039091168152602001610142565b6101c161025a366004612263565b610998565b61013861026d36600461229f565b6109a7565b610138610280366004611e44565b60009081526006602052604090205490565b6101c16102a0366004612349565b610b68565b6101f76102b33660046123fd565b610ec0565b6102cb6102c6366004611e44565b611245565b60405161014291906124dd565b61015e6102e6366004612568565b6114d5565b6101c16102f936600461259b565b611503565b6101c161030c3660046120ac565b611562565b6000818152602081815260408083206001600160a01b03861684529091529020545b92915050565b60006001600160e01b03198216636cdb3d1360e11b148061036a57506001600160e01b031982166303a24d0760e21b145b8061033357506301ffc9a760e01b6001600160e01b0319831614610333565b606060028054610398906125ff565b80601f01602080910402602001604051908101604052809291908181526020018280546103c4906125ff565b80156104115780601f106103e657610100808354040283529160200191610411565b820191906000526020600020905b8154815290600101906020018083116103f457829003601f168201915b50505050509050919050565b336001600160a01b038616811480159061043e575061043c86826114d5565b155b156104745760405163711bec9160e11b81526001600160a01b038083166004830152871660248201526044015b60405180910390fd5b61048186868686866115a0565b505050505050565b60045460609081906000816001600160401b038111156104ab576104ab611ec0565b6040519080825280602002602001820160405280156104d4578160200160208202803683370190505b5090506000826001600160401b038111156104f1576104f1611ec0565b60405190808252806020026020018201604052801561051a578160200160208202803683370190505b5090506000805b848110156105b0576000818152600660205260409020541561059e5760006105498983610311565b9050801561059c578185848151811061056457610564612639565b6020026020010181815250508084848151811061058357610583612639565b60209081029190910101528261059881612665565b9350505b505b806105a881612665565b915050610521565b506000816001600160401b038111156105cb576105cb611ec0565b6040519080825280602002602001820160405280156105f4578160200160208202803683370190505b5090506000826001600160401b0381111561061157610611611ec0565b60405190808252806020026020018201604052801561063a578160200160208202803683370190505b50905060005b838110156106c95785818151811061065a5761065a612639565b602002602001015183828151811061067457610674612639565b60200260200101818152505084818151811061069257610692612639565b60200260200101518282815181106106ac576106ac612639565b6020908102919091010152806106c181612665565b915050610640565b50909890975095505050505050565b606081518351146107095781518351604051635b05999160e01b81526004810192909252602482015260440161046b565b600083516001600160401b0381111561072457610724611ec0565b60405190808252806020026020018201604052801561074d578160200160208202803683370190505b50905060005b84518110156107a45760208082028601015161077790602080840287010151610311565b82828151811061078957610789612639565b602090810291909101015261079d81612665565b9050610753565b509392505050565b6005602052600090815260409020805481906107c7906125ff565b80601f01602080910402602001604051908101604052809291908181526020018280546107f3906125ff565b80156108405780601f1061081557610100808354040283529160200191610840565b820191906000526020600020905b81548152906001019060200180831161082357829003601f168201915b505050505090806001018054610855906125ff565b80601f0160208091040260200160405190810160405280929190818152602001828054610881906125ff565b80156108ce5780601f106108a3576101008083540402835291602001916108ce565b820191906000526020600020905b8154815290600101906020018083116108b157829003601f168201915b5050505050908060020180546108e3906125ff565b80601f016020809104026020016040519081016040528092919081815260200182805461090f906125ff565b801561095c5780601f106109315761010080835404028352916020019161095c565b820191906000526020600020905b81548152906001019060200180831161093f57829003601f168201915b5050505060038301546004840154600590940154929390926001600160a01b03909116915086565b61098c611607565b6109966000611634565b565b6109a3338383611686565b5050565b60048054600091600190836109bc838561267e565b90915550508215806109ce5750828711155b610a165760405162461bcd60e51b8152602060048201526019602482015278416d6f756e742065786365656473206d617820737570706c7960381b604482015260640161046b565b6040805160c081018252878152602080820188905281830187905242606083015233608083015260a08201869052600084815260059091529190912081518190610a6090826126dc565b5060208201516001820190610a7590826126dc565b5060408201516002820190610a8a90826126dc565b506060820151600382015560808201516004820180546001600160a01b0319166001600160a01b0390921691909117905560a09091015160059091015560008181526006602090815260408083208a905580519182019052908152610af490899083908a9061171c565b876001600160a01b0316817fa7598e50d42ce6a6edf2857b3d93931f9421a00b5ed66fe99422219dfd67e31a89610b2a85611779565b604051602001610b3a919061279b565b60408051601f1981840301815290829052610b5592916127ef565b60405180910390a3979650505050505050565b600083815260066020526040902054610bba5760405162461bcd60e51b8152602060048201526014602482015273151bdad95b88191bd95cc81b9bdd08195e1a5cdd60621b604482015260640161046b565b600083815260056020526040808220815160c08101909252805482908290610be1906125ff565b80601f0160208091040260200160405190810160405280929190818152602001828054610c0d906125ff565b8015610c5a5780601f10610c2f57610100808354040283529160200191610c5a565b820191906000526020600020905b815481529060010190602001808311610c3d57829003601f168201915b50505050508152602001600182018054610c73906125ff565b80601f0160208091040260200160405190810160405280929190818152602001828054610c9f906125ff565b8015610cec5780601f10610cc157610100808354040283529160200191610cec565b820191906000526020600020905b815481529060010190602001808311610ccf57829003601f168201915b50505050508152602001600282018054610d05906125ff565b80601f0160208091040260200160405190810160405280929190818152602001828054610d31906125ff565b8015610d7e5780601f10610d5357610100808354040283529160200191610d7e565b820191906000526020600020905b815481529060010190602001808311610d6157829003601f168201915b50505091835250506003820154602082015260048201546001600160a01b039081166040830152600590920154606090910152608082015191925016331480610dd157506003546001600160a01b031633145b610e0e5760405162461bcd60e51b815260206004820152600e60248201526d139bdd08185d5d1a1bdc9a5e995960921b604482015260640161046b565b60a081015115610e7a5760a0810151600085815260066020526040902054610e3790849061267e565b1115610e7a5760405162461bcd60e51b815260206004820152601260248201527145786365656473206d617820737570706c7960701b604482015260640161046b565b60008481526006602052604081208054849290610e9890849061267e565b92505081905550610eba8385846040518060200160405280600081525061171c565b50505050565b60608451865114610ee35760405162461bcd60e51b815260040161046b90612808565b8351865114610f045760405162461bcd60e51b815260040161046b90612808565b8251865114610f255760405162461bcd60e51b815260040161046b90612808565b8151865114610f465760405162461bcd60e51b815260040161046b90612808565b600086516001600160401b03811115610f6157610f61611ec0565b604051908082528060200260200182016040528015610f8a578160200160208202803683370190505b50905060005b87518110156111db5760048054906001906000610fad838561267e565b92505081905550848281518110610fc657610fc6612639565b60200260200101516000148061100e5750848281518110610fe957610fe9612639565b602002602001015189838151811061100357611003612639565b602002602001015111155b6110565760405162461bcd60e51b8152602060048201526019602482015278416d6f756e742065786365656473206d617820737570706c7960381b604482015260640161046b565b6040518060c0016040528089848151811061107357611073612639565b6020026020010151815260200188848151811061109257611092612639565b602002602001015181526020018784815181106110b1576110b1612639565b60200260200101518152602001428152602001336001600160a01b031681526020018684815181106110e5576110e5612639565b60209081029190910181015190915260008381526005909152604090208151819061111090826126dc565b506020820151600182019061112590826126dc565b506040820151600282019061113a90826126dc565b506060820151600382015560808201516004820180546001600160a01b0319166001600160a01b0390921691909117905560a090910151600590910155885189908390811061118b5761118b612639565b60200260200101516006600083815260200190815260200160002081905550808383815181106111bd576111bd612639565b602090810291909101015250806111d381612665565b915050610f90565b506111f788828960405180602001604052806000815250611881565b876001600160a01b03167f90f2e1a10c2d3075749fc7f611671901cb1b19b7919d2c4a46689394580392738289604051611232929190612102565b60405180910390a2979650505050505050565b6112876040518060c001604052806060815260200160608152602001606081526020016000815260200160006001600160a01b03168152602001600081525090565b6000828152600660205260409020546112d95760405162461bcd60e51b8152602060048201526014602482015273151bdad95b88191bd95cc81b9bdd08195e1a5cdd60621b604482015260640161046b565b60008281526005602052604090819020815160c08101909252805482908290611301906125ff565b80601f016020809104026020016040519081016040528092919081815260200182805461132d906125ff565b801561137a5780601f1061134f5761010080835404028352916020019161137a565b820191906000526020600020905b81548152906001019060200180831161135d57829003601f168201915b50505050508152602001600182018054611393906125ff565b80601f01602080910402602001604051908101604052809291908181526020018280546113bf906125ff565b801561140c5780601f106113e15761010080835404028352916020019161140c565b820191906000526020600020905b8154815290600101906020018083116113ef57829003601f168201915b50505050508152602001600282018054611425906125ff565b80601f0160208091040260200160405190810160405280929190818152602001828054611451906125ff565b801561149e5780601f106114735761010080835404028352916020019161149e565b820191906000526020600020905b81548152906001019060200180831161148157829003601f168201915b50505091835250506003820154602082015260048201546001600160a01b0316604082015260059091015460609091015292915050565b6001600160a01b03918216600090815260016020908152604080832093909416825291909152205460ff1690565b336001600160a01b0386168114801590611524575061152286826114d5565b155b156115555760405163711bec9160e11b81526001600160a01b0380831660048301528716602482015260440161046b565b61048186868686866118b9565b61156a611607565b6001600160a01b03811661159457604051631e4fbdf760e01b81526000600482015260240161046b565b61159d81611634565b50565b6001600160a01b0384166115ca57604051632bfa23e760e11b81526000600482015260240161046b565b6001600160a01b0385166115f357604051626a0d4560e21b81526000600482015260240161046b565b6116008585858585611947565b5050505050565b6003546001600160a01b031633146109965760405163118cdaa760e01b815233600482015260240161046b565b600380546001600160a01b038381166001600160a01b0319831681179093556040519116919082907f8be0079c531659141344cd1fd0a4f28419497f9722a3daafe3b4186f6b6457e090600090a35050565b6001600160a01b0382166116af5760405162ced3e160e81b81526000600482015260240161046b565b6001600160a01b03838116600081815260016020908152604080832094871680845294825291829020805460ff191686151590811790915591519182527f17307eab39ab6107e8899845ad3d59bd9653f200f220920489ca2b5937696c31910160405180910390a3505050565b6001600160a01b03841661174657604051632bfa23e760e11b81526000600482015260240161046b565b60408051600180825260208201869052818301908152606082018590526080820190925290610481600087848487611947565b6060816000036117a05750506040805180820190915260018152600360fc1b602082015290565b8160005b81156117ca57806117b481612665565b91506117c39050600a8361284e565b91506117a4565b6000816001600160401b038111156117e4576117e4611ec0565b6040519080825280601f01601f19166020018201604052801561180e576020820181803683370190505b5090505b841561187957611823600183612862565b9150611830600a86612875565b61183b90603061267e565b60f81b81838151811061185057611850612639565b60200101906001600160f81b031916908160001a905350611872600a8661284e565b9450611812565b949350505050565b6001600160a01b0384166118ab57604051632bfa23e760e11b81526000600482015260240161046b565b610eba600085858585611947565b6001600160a01b0384166118e357604051632bfa23e760e11b81526000600482015260240161046b565b6001600160a01b03851661190c57604051626a0d4560e21b81526000600482015260240161046b565b6040805160018082526020820186905281830190815260608201859052608082019092529061193e8787848487611947565b50505050505050565b6119538585858561199a565b6001600160a01b03841615611600578251339060010361198c5760208481015190840151611985838989858589611bb7565b5050610481565b610481818787878787611cdb565b80518251146119c95781518151604051635b05999160e01b81526004810192909252602482015260440161046b565b3360005b8351811015611ad8576020818102858101820151908501909101516001600160a01b03881615611a80576000828152602081815260408083206001600160a01b038c16845290915290205481811015611a59576040516303dee4c560e01b81526001600160a01b038a16600482015260248101829052604481018390526064810184905260840161046b565b6000838152602081815260408083206001600160a01b038d16845290915290209082900390555b6001600160a01b03871615611ac5576000828152602081815260408083206001600160a01b038b16845290915281208054839290611abf90849061267e565b90915550505b505080611ad190612665565b90506119cd565b508251600103611b595760208301516000906020840151909150856001600160a01b0316876001600160a01b0316846001600160a01b03167fc3d58168c5ae7397731d063d5bbf3d657854427343f4c083240f7aacaa2d0f628585604051611b4a929190918252602082015260400190565b60405180910390a45050611600565b836001600160a01b0316856001600160a01b0316826001600160a01b03167f4a39dc06d4c0dbc64b70af90fd698a233a518aa5d07e595d983b8c0526c8f7fb8686604051611ba8929190612102565b60405180910390a45050505050565b6001600160a01b0384163b156104815760405163f23a6e6160e01b81526001600160a01b0385169063f23a6e6190611bfb9089908990889088908890600401612889565b6020604051808303816000875af1925050508015611c36575060408051601f3d908101601f19168201909252611c33918101906128ce565b60015b611c9f573d808015611c64576040519150601f19603f3d011682016040523d82523d6000602084013e611c69565b606091505b508051600003611c9757604051632bfa23e760e11b81526001600160a01b038616600482015260240161046b565b805160208201fd5b6001600160e01b0319811663f23a6e6160e01b1461193e57604051632bfa23e760e11b81526001600160a01b038616600482015260240161046b565b6001600160a01b0384163b156104815760405163bc197c8160e01b81526001600160a01b0385169063bc197c8190611d1f90899089908890889088906004016128eb565b6020604051808303816000875af1925050508015611d5a575060408051601f3d908101601f19168201909252611d57918101906128ce565b60015b611d88573d808015611c64576040519150601f19603f3d011682016040523d82523d6000602084013e611c69565b6001600160e01b0319811663bc197c8160e01b1461193e57604051632bfa23e760e11b81526001600160a01b038616600482015260240161046b565b80356001600160a01b0381168114611ddb57600080fd5b919050565b60008060408385031215611df357600080fd5b611dfc83611dc4565b946020939093013593505050565b6001600160e01b03198116811461159d57600080fd5b600060208284031215611e3257600080fd5b8135611e3d81611e0a565b9392505050565b600060208284031215611e5657600080fd5b5035919050565b60005b83811015611e78578181015183820152602001611e60565b50506000910152565b60008151808452611e99816020860160208601611e5d565b601f01601f19169290920160200192915050565b602081526000611e3d6020830184611e81565b634e487b7160e01b600052604160045260246000fd5b604051601f8201601f191681016001600160401b0381118282101715611efe57611efe611ec0565b604052919050565b60006001600160401b03821115611f1f57611f1f611ec0565b5060051b60200190565b600082601f830112611f3a57600080fd5b81356020611f4f611f4a83611f06565b611ed6565b82815260059290921b84018101918181019086841115611f6e57600080fd5b8286015b84811015611f895780358352918301918301611f72565b509695505050505050565b600082601f830112611fa557600080fd5b81356001600160401b03811115611fbe57611fbe611ec0565b611fd1601f8201601f1916602001611ed6565b818152846020838601011115611fe657600080fd5b816020850160208301376000918101602001919091529392505050565b600080600080600060a0868803121561201b57600080fd5b61202486611dc4565b945061203260208701611dc4565b935060408601356001600160401b038082111561204e57600080fd5b61205a89838a01611f29565b9450606088013591508082111561207057600080fd5b61207c89838a01611f29565b9350608088013591508082111561209257600080fd5b5061209f88828901611f94565b9150509295509295909350565b6000602082840312156120be57600080fd5b611e3d82611dc4565b600081518084526020808501945080840160005b838110156120f7578151875295820195908201906001016120db565b509495945050505050565b60408152600061211560408301856120c7565b828103602084015261212781856120c7565b95945050505050565b6000806040838503121561214357600080fd5b82356001600160401b038082111561215a57600080fd5b818501915085601f83011261216e57600080fd5b8135602061217e611f4a83611f06565b82815260059290921b8401810191818101908984111561219d57600080fd5b948201945b838610156121c2576121b386611dc4565b825294820194908201906121a2565b965050860135925050808211156121d857600080fd5b506121e585828601611f29565b9150509250929050565b602081526000611e3d60208301846120c7565b60c08152600061221560c0830189611e81565b82810360208401526122278189611e81565b9050828103604084015261223b8188611e81565b606084019690965250506001600160a01b0392909216608083015260a0909101529392505050565b6000806040838503121561227657600080fd5b61227f83611dc4565b91506020830135801515811461229457600080fd5b809150509250929050565b60008060008060008060c087890312156122b857600080fd5b6122c187611dc4565b95506020870135945060408701356001600160401b03808211156122e457600080fd5b6122f08a838b01611f94565b9550606089013591508082111561230657600080fd5b6123128a838b01611f94565b9450608089013591508082111561232857600080fd5b5061233589828a01611f94565b92505060a087013590509295509295509295565b60008060006060848603121561235e57600080fd5b8335925061236e60208501611dc4565b9150604084013590509250925092565b600082601f83011261238f57600080fd5b8135602061239f611f4a83611f06565b82815260059290921b840181019181810190868411156123be57600080fd5b8286015b84811015611f895780356001600160401b038111156123e15760008081fd5b6123ef8986838b0101611f94565b8452509183019183016123c2565b60008060008060008060c0878903121561241657600080fd5b61241f87611dc4565b955060208701356001600160401b038082111561243b57600080fd5b6124478a838b01611f29565b9650604089013591508082111561245d57600080fd5b6124698a838b0161237e565b9550606089013591508082111561247f57600080fd5b61248b8a838b0161237e565b945060808901359150808211156124a157600080fd5b6124ad8a838b0161237e565b935060a08901359150808211156124c357600080fd5b506124d089828a01611f29565b9150509295509295509295565b602081526000825160c060208401526124f960e0840182611e81565b90506020840151601f19808584030160408601526125178383611e81565b92506040860151915080858403016060860152506125358282611e81565b9150506060840151608084015260018060a01b0360808501511660a084015260a084015160c08401528091505092915050565b6000806040838503121561257b57600080fd5b61258483611dc4565b915061259260208401611dc4565b90509250929050565b600080600080600060a086880312156125b357600080fd5b6125bc86611dc4565b94506125ca60208701611dc4565b9350604086013592506060860135915060808601356001600160401b038111156125f357600080fd5b61209f88828901611f94565b600181811c9082168061261357607f821691505b60208210810361263357634e487b7160e01b600052602260045260246000fd5b50919050565b634e487b7160e01b600052603260045260246000fd5b634e487b7160e01b600052601160045260246000fd5b6000600182016126775761267761264f565b5060010190565b808201808211156103335761033361264f565b601f8211156126d757600081815260208120601f850160051c810160208610156126b85750805b601f850160051c820191505b81811015610481578281556001016126c4565b505050565b81516001600160401b038111156126f5576126f5611ec0565b6127098161270384546125ff565b84612691565b602080601f83116001811461273e57600084156127265750858301515b600019600386901b1c1916600185901b178555610481565b600085815260208120601f198616915b8281101561276d5788860151825594840194600190910190840161274e565b508582101561278b5787850151600019600388901b60f8161c191681555b5050505050600190811b01905550565b7f68747470733a2f2f6170692e6273617473662e636f6d2f6d657461646174612f8152600082516127d3816020850160208701611e5d565b64173539b7b760d91b6020939091019283015250602501919050565b8281526040602082015260006118796040830184611e81565b602080825260169082015275082e4e4c2f2e640d8cadccee8d040dad2e6dac2e8c6d60531b604082015260600190565b634e487b7160e01b600052601260045260246000fd5b60008261285d5761285d612838565b500490565b818103818111156103335761033361264f565b60008261288457612884612838565b500690565b6001600160a01b03868116825285166020820152604081018490526060810183905260a0608082018190526000906128c390830184611e81565b979650505050505050565b6000602082840312156128e057600080fd5b8151611e3d81611e0a565b6001600160a01b0386811682528516602082015260a060408201819052600090612917908301866120c7565b828103606084015261292981866120c7565b9050828103608084015261293d8185611e81565b9897505050505050505056fea264697066735822122055311d6d54a04f27f2a488edddc59874b4c55c5862dcb5be8a99597a8278f44464736f6c6343000814003368747470733a2f2f6170692e6273617473662e636f6d2f6d657461646174612f7b69647d2e6a736f6e",
  "linkReferences": {},
  "deployedLinkReferences": {}
}