{
  "_format": "hh-sol-artifact-1",
  "contractName": "BSATSF_ERC1155",
  "sourceName": "contracts/BSATSF_ERC1155.sol",
  "abi": [
    {
      "inputs": [
        {
          "internalType": "address",
          "name": "initialOwner",
          "type": "address"
        }
      ],
      "stateMutability": "nonpayable",
      "type": "constructor"
    },
    {
      "inputs": [
        {
          "internalType": "address",
          "name": "sender",
          "type": "address"
        },
        {
          "internalType": "uint256",
          "name": "balance",
          "type": "uint256"
        },
        {
          "internalType": "uint256",
          "name": "needed",
          "type": "uint256"
        },
        {
          "internalType": "uint256",
          "name": "tokenId",
          "type": "uint256"
        }
      ],
      "name": "ERC1155InsufficientBalance",
      "type": "error"
    },
    {
      "inputs": [
        {
          "internalType": "address",
          "name": "approver",
          "type": "address"
        }
      ],
      "name": "ERC1155InvalidApprover",
      "type": "error"
    },
    {
      "inputs": [
        {
          "internalType": "uint256",
          "name": "idsLength",
          "type": "uint256"
        },
        {
          "internalType": "uint256",
          "name": "valuesLength",
          "type": "uint256"
        }
      ],
      "name": "ERC1155InvalidArrayLength",
      "type": "error"
    },
    {
      "inputs": [
        {
          "internalType": "address",
          "name": "operator",
          "type": "address"
        }
      ],
      "name": "ERC1155InvalidOperator",
      "type": "error"
    },
    {
      "inputs": [
        {
          "internalType": "address",
          "name": "receiver",
          "type": "address"
        }
      ],
      "name": "ERC1155InvalidReceiver",
      "type": "error"
    },
    {
      "inputs": [
        {
          "internalType": "address",
          "name": "sender",
          "type": "address"
        }
      ],
      "name": "ERC1155InvalidSender",
      "type": "error"
    },
    {
      "inputs": [
        {
          "internalType": "address",
          "name": "operator",
          "type": "address"
        },
        {
          "internalType": "address",
          "name": "owner",
          "type": "address"
        }
      ],
      "name": "ERC1155MissingApprovalForAll",
      "type": "error"
    },
    {
      "inputs": [
        {
          "internalType": "address",
          "name": "owner",
          "type": "address"
        }
      ],
      "name": "OwnableInvalidOwner",
      "type": "error"
    },
    {
      "inputs": [
        {
          "internalType": "address",
          "name": "account",
          "type": "address"
        }
      ],
      "name": "OwnableUnauthorizedAccount",
      "type": "error"
    },
    {
      "anonymous": false,
      "inputs": [
        {
          "indexed": true,
          "internalType": "address",
          "name": "account",
          "type": "address"
        },
        {
          "indexed": true,
          "internalType": "address",
          "name": "operator",
          "type": "address"
        },
        {
          "indexed": false,
          "internalType": "bool",
          "name": "approved",
          "type": "bool"
        }
      ],
      "name": "ApprovalForAll",
      "type": "event"
    },
    {
      "anonymous": false,
      "inputs": [
        {
          "indexed": false,
          "internalType": "uint256[]",
          "name": "tokenIds",
          "type": "uint256[]"
        },
        {
          "indexed": true,
          "internalType": "address",
          "name": "to",
          "type": "address"
        },
        {
          "indexed": false,
          "internalType": "uint256[]",
          "name": "amounts",
          "type": "uint256[]"
        }
      ],
      "name": "AssetBatchMinted",
      "type": "event"
    },
    {
      "anonymous": false,
      "inputs": [
        {
          "indexed": true,
          "internalType": "uint256",
          "name": "tokenId",
          "type": "uint256"
        },
        {
          "indexed": true,
          "internalType": "address",
          "name": "to",
          "type": "address"
        },
        {
          "indexed": false,
          "internalType": "uint256",
          "name": "amount",
          "type": "uint256"
        },
        {
          "indexed": false,
          "internalType": "string",
          "name": "metadataURI",
          "type": "string"
        }
      ],
      "name": "AssetMinted",
      "type": "event"
    },
    {
      "anonymous": false,
      "inputs": [
        {
          "indexed": true,
          "internalType": "address",
          "name": "previousOwner",
          "type": "address"
        },
        {
          "indexed": true,
          "internalType": "address",
          "name": "newOwner",
          "type": "address"
        }
      ],
      "name": "OwnershipTransferred",
      "type": "event"
    },
    {
      "anonymous": false,
      "inputs": [
        {
          "indexed": true,
          "internalType": "address",
          "name": "operator",
          "type": "address"
        },
        {
          "indexed": true,
          "internalType": "address",
          "name": "from",
          "type": "address"
        },
        {
          "indexed": true,
          "internalType": "address",
          "name": "to",
          "type": "address"
        },
        {
          "indexed": false,
          "internalType": "uint256[]",
          "name": "ids",
          "type": "uint256[]"
        },
        {
          "indexed": false,
          "internalType": "uint256[]",
          "name": "values",
          "type": "uint256[]"
        }
      ],
      "name": "TransferBatch",
      "type": "event"
    },
    {
      "anonymous": false,
      "inputs": [
        {
          "indexed": true,
          "internalType": "address",
          "name": "operator",
          "type": "address"
        },
        {
          "indexed": true,
          "internalType": "address",
          "name": "from",
          "type": "address"
        },
        {
          "indexed": true,
          "internalType": "address",
          "name": "to",
          "type": "address"
        },
        {
          "indexed": false,
          "internalType": "uint256",
          "name": "id",
          "type": "uint256"
        },
        {
          "indexed": false,
          "internalType": "uint256",
          "name": "value",
          "type": "uint256"
        }
      ],
      "name": "TransferSingle",
      "type": "event"
    },
    {
      "anonymous": false,
      "inputs": [
        {
          "indexed": false,
          "internalType": "string",
          "name": "value",
          "type": "string"
        },
        {
          "indexed": true,
          "internalType": "uint256",
          "name": "id",
          "type": "uint256"
        }
      ],
      "name": "URI",
      "type": "event"
    },
    {
      "inputs": [
        {
          "internalType": "uint256",
          "name": "",
          "type": "uint256"
        }
      ],
      "name": "assetMetadata",
      "outputs": [
        {
          "internalType": "string",
          "name": "name",
          "type": "string"
        },
        {
          "internalType": "string",
          "name": "description",
          "type": "string"
        },
        {
          "internalType": "string",
          "name": "ipfsHash",
          "type": "string"
        },
        {
          "internalType": "uint256",
          "name": "timestamp",
          "type": "uint256"
        },
        {
          "internalType": "address",
          "name": "creator",
          "type": "address"
        },
        {
          "internalType": "uint256",
          "name": "maxSupply",
          "type": "uint256"
        }
      ],
      "stateMutability": "view",
      "type": "function"
    },
    {
      "inputs": [
        {
          "internalType": "address",
          "name": "account",
          "type": "address"
        },
        {
          "internalType": "uint256",
          "name": "id",
          "type": "uint256"
        }
      ],
      "name": "balanceOf",
      "outputs": [
        {
          "internalType": "uint256",
          "name": "",
          "type": "uint256"
        }
      ],
      "stateMutability": "view",
      "type": "function"
    },
    {
      "inputs": [
        {
          "internalType": "address[]",
          "name": "accounts",
          "type": "address[]"
        },
        {
          "internalType": "uint256[]",
          "name": "ids",
          "type": "uint256[]"
        }
      ],
      "name": "balanceOfBatch",
      "outputs": [
        {
          "internalType": "uint256[]",
          "name": "",
          "type": "uint256[]"
        }
      ],
      "stateMutability": "view",
      "type": "function"
    },
    {
      "inputs": [],
      "name": "getAllAssets",
      "outputs": [
        {
          "components": [
            {
              "internalType": "uint256",
              "name": "id",
              "type": "uint256"
            },
            {
              "components": [
                {
                  "internalType": "string",
                  "name": "name",
                  "type": "string"
                },
                {
                  "internalType": "string",
                  "name": "description",
                  "type": "string"
                },
                {
                  "internalType": "string",
                  "name": "ipfsHash",
                  "type": "string"
                },
                {
                  "internalType": "uint256",
                  "name": "timestamp",
                  "type": "uint256"
                },
                {
                  "internalType": "address",
                  "name": "creator",
                  "type": "address"
                },
                {
                  "internalType": "uint256",
                  "name": "maxSupply",
                  "type": "uint256"
                }
              ],
              "internalType": "struct BSATSF_ERC1155.AssetMetadata",
              "name": "metadata",
              "type": "tuple"
            },
            {
              "internalType": "uint256",
              "name": "totalSupply",
              "type": "uint256"
            },
            {
              "internalType": "string",
              "name": "uri",
              "type": "string"
            }
          ],
          "internalType": "struct BSATSF_ERC1155.RenderAsset[]",
          "name": "",
          "type": "tuple[]"
        }
      ],
      "stateMutability": "view",
      "type": "function"
    },
    {
      "inputs": [
        {
          "internalType": "uint256",
          "name": "tokenId",
          "type": "uint256"
        }
      ],
      "name": "getAssetMetadata",
      "outputs": [
        {
          "components": [
            {
              "internalType": "string",
              "name": "name",
              "type": "string"
            },
            {
              "internalType": "string",
              "name": "description",
              "type": "string"
            },
            {
              "internalType": "string",
              "name": "ipfsHash",
              "type": "string"
            },
            {
              "internalType": "uint256",
              "name": "timestamp",
              "type": "uint256"
            },
            {
              "internalType": "address",
              "name": "creator",
              "type": "address"
            },
            {
              "internalType": "uint256",
              "name": "maxSupply",
              "type": "uint256"
            }
          ],
          "internalType": "struct BSATSF_ERC1155.AssetMetadata",
          "name": "",
          "type": "tuple"
        }
      ],
      "stateMutability": "view",
      "type": "function"
    },
    {
      "inputs": [],
      "name": "getMyAssets",
      "outputs": [
        {
          "components": [
            {
              "internalType": "uint256",
              "name": "id",
              "type": "uint256"
            },
            {
              "components": [
                {
                  "internalType": "string",
                  "name": "name",
                  "type": "string"
                },
                {
                  "internalType": "string",
                  "name": "description",
                  "type": "string"
                },
                {
                  "internalType": "string",
                  "name": "ipfsHash",
                  "type": "string"
                },
                {
                  "internalType": "uint256",
                  "name": "timestamp",
                  "type": "uint256"
                },
                {
                  "internalType": "address",
                  "name": "creator",
                  "type": "address"
                },
                {
                  "internalType": "uint256",
                  "name": "maxSupply",
                  "type": "uint256"
                }
              ],
              "internalType": "struct BSATSF_ERC1155.AssetMetadata",
              "name": "metadata",
              "type": "tuple"
            },
            {
              "internalType": "uint256",
              "name": "balance",
              "type": "uint256"
            },
            {
              "internalType": "string",
              "name": "uri",
              "type": "string"
            }
          ],
          "internalType": "struct BSATSF_ERC1155.UserAsset[]",
          "name": "",
          "type": "tuple[]"
        }
      ],
      "stateMutability": "view",
      "type": "function"
    },
    {
      "inputs": [
        {
          "internalType": "address",
          "name": "owner",
          "type": "address"
        }
      ],
      "name": "getTokensByOwner",
      "outputs": [
        {
          "internalType": "uint256[]",
          "name": "",
          "type": "uint256[]"
        },
        {
          "internalType": "uint256[]",
          "name": "",
          "type": "uint256[]"
        }
      ],
      "stateMutability": "view",
      "type": "function"
    },
    {
      "inputs": [
        {
          "internalType": "address",
          "name": "account",
          "type": "address"
        },
        {
          "internalType": "address",
          "name": "operator",
          "type": "address"
        }
      ],
      "name": "isApprovedForAll",
      "outputs": [
        {
          "internalType": "bool",
          "name": "",
          "type": "bool"
        }
      ],
      "stateMutability": "view",
      "type": "function"
    },
    {
      "inputs": [
        {
          "internalType": "uint256",
          "name": "tokenId",
          "type": "uint256"
        },
        {
          "internalType": "address",
          "name": "to",
          "type": "address"
        },
        {
          "internalType": "uint256",
          "name": "amount",
          "type": "uint256"
        }
      ],
      "name": "mintAdditional",
      "outputs": [],
      "stateMutability": "nonpayable",
      "type": "function"
    },
    {
      "inputs": [
        {
          "internalType": "address",
          "name": "to",
          "type": "address"
        },
        {
          "internalType": "uint256",
          "name": "amount",
          "type": "uint256"
        },
        {
          "internalType": "string",
          "name": "name",
          "type": "string"
        },
        {
          "internalType": "string",
          "name": "description",
          "type": "string"
        },
        {
          "internalType": "string",
          "name": "ipfsHash",
          "type": "string"
        },
        {
          "internalType": "uint256",
          "name": "maxSupply",
          "type": "uint256"
        }
      ],
      "name": "mintAsset",
      "outputs": [
        {
          "internalType": "uint256",
          "name": "",
          "type": "uint256"
        }
      ],
      "stateMutability": "nonpayable",
      "type": "function"
    },
    {
      "inputs": [
        {
          "internalType": "address",
          "name": "to",
          "type": "address"
        },
        {
          "internalType": "uint256[]",
          "name": "amounts",
          "type": "uint256[]"
        },
        {
          "internalType": "string[]",
          "name": "names",
          "type": "string[]"
        },
        {
          "internalType": "string[]",
          "name": "descriptions",
          "type": "string[]"
        },
        {
          "internalType": "string[]",
          "name": "ipfsHashes",
          "type": "string[]"
        },
        {
          "internalType": "uint256[]",
          "name": "maxSupplies",
          "type": "uint256[]"
        }
      ],
      "name": "mintBatch",
      "outputs": [
        {
          "internalType": "uint256[]",
          "name": "",
          "type": "uint256[]"
        }
      ],
      "stateMutability": "nonpayable",
      "type": "function"
    },
    {
      "inputs": [],
      "name": "owner",
      "outputs": [
        {
          "internalType": "address",
          "name": "",
          "type": "address"
        }
      ],
      "stateMutability": "view",
      "type": "function"
    },
    {
      "inputs": [],
      "name": "renounceOwnership",
      "outputs": [],
      "stateMutability": "nonpayable",
      "type": "function"
    },
    {
      "inputs": [
        {
          "internalType": "address",
          "name": "from",
          "type": "address"
        },
        {
          "internalType": "address",
          "name": "to",
          "type": "address"
        },
        {
          "internalType": "uint256[]",
          "name": "ids",
          "type": "uint256[]"
        },
        {
          "internalType": "uint256[]",
          "name": "values",
          "type": "uint256[]"
        },
        {
          "internalType": "bytes",
          "name": "data",
          "type": "bytes"
        }
      ],
      "name": "safeBatchTransferFrom",
      "outputs": [],
      "stateMutability": "nonpayable",
      "type": "function"
    },
    {
      "inputs": [
        {
          "internalType": "address",
          "name": "from",
          "type": "address"
        },
        {
          "internalType": "address",
          "name": "to",
          "type": "address"
        },
        {
          "internalType": "uint256",
          "name": "id",
          "type": "uint256"
        },
        {
          "internalType": "uint256",
          "name": "value",
          "type": "uint256"
        },
        {
          "internalType": "bytes",
          "name": "data",
          "type": "bytes"
        }
      ],
      "name": "safeTransferFrom",
      "outputs": [],
      "stateMutability": "nonpayable",
      "type": "function"
    },
    {
      "inputs": [
        {
          "internalType": "address",
          "name": "operator",
          "type": "address"
        },
        {
          "internalType": "bool",
          "name": "approved",
          "type": "bool"
        }
      ],
      "name": "setApprovalForAll",
      "outputs": [],
      "stateMutability": "nonpayable",
      "type": "function"
    },
    {
      "inputs": [
        {
          "internalType": "bytes4",
          "name": "interfaceId",
          "type": "bytes4"
        }
      ],
      "name": "supportsInterface",
      "outputs": [
        {
          "internalType": "bool",
          "name": "",
          "type": "bool"
        }
      ],
      "stateMutability": "view",
      "type": "function"
    },
    {
      "inputs": [
        {
          "internalType": "uint256",
          "name": "",
          "type": "uint256"
        }
      ],
      "name": "tokenSupply",
      "outputs": [
        {
          "internalType": "uint256",
          "name": "",
          "type": "uint256"
        }
      ],
      "stateMutability": "view",
      "type": "function"
    },
    {
      "inputs": [
        {
          "internalType": "uint256",
          "name": "tokenId",
          "type": "uint256"
        }
      ],
      "name": "totalSupply",
      "outputs": [
        {
          "internalType": "uint256",
          "name": "",
          "type": "uint256"
        }
      ],
      "stateMutability": "view",
      "type": "function"
    },
    {
      "inputs": [
        {
          "internalType": "address",
          "name": "newOwner",
          "type": "address"
        }
      ],
      "name": "transferOwnership",
      "outputs": [],
      "stateMutability": "nonpayable",
      "type": "function"
    },
    {
      "inputs": [
        {
          "internalType": "uint256",
          "name": "",
          "type": "uint256"
        }
      ],
      "name": "uri",
      "outputs": [
        {
          "internalType": "string",
          "name": "",
          "type": "string"
        }
      ],
      "stateMutability": "view",
      "type": "function"
    }
  ],
  "bytecode": "0x60806040523480156200001157600080fd5b506040516200349d3803806200349d833981016040819052620000349162000101565b8060405180606001604052806029815260200162003474602991396200005a816200009d565b506001600160a01b0381166200008a57604051631e4fbdf760e01b81526000600482015260240160405180910390fd5b6200009581620000af565b5050620002a4565b6002620000ab8282620001d8565b5050565b600380546001600160a01b038381166001600160a01b0319831681179093556040519116919082907f8be0079c531659141344cd1fd0a4f28419497f9722a3daafe3b4186f6b6457e090600090a35050565b6000602082840312156200011457600080fd5b81516001600160a01b03811681146200012c57600080fd5b9392505050565b634e487b7160e01b600052604160045260246000fd5b600181811c908216806200015e57607f821691505b6020821081036200017f57634e487b7160e01b600052602260045260246000fd5b50919050565b601f821115620001d357600081815260208120601f850160051c81016020861015620001ae5750805b601f850160051c820191505b81811015620001cf57828155600101620001ba565b5050505b505050565b81516001600160401b03811115620001f457620001f462000133565b6200020c8162000205845462000149565b8462000185565b602080601f8311600181146200024457600084156200022b5750858301515b600019600386901b1c1916600185901b178555620001cf565b600085815260208120601f198616915b82811015620002755788860151825594840194600190910190840162000254565b5085821015620002945787850151600019600388901b60f8161c191681555b5050505050600190811b01905550565b6131c080620002b46000396000f3fe608060405234801561001057600080fd5b50600436106101365760003560e01c8063715018a6116100b8578063c11f4e461161007c578063c11f4e46146102d2578063cc45c9ea146102e5578063cf2acf84146102f8578063e985e9c514610318578063f242432a1461032b578063f2fde38b1461033e57600080fd5b8063715018a6146102695780638da5cb5b14610271578063a22cb4651461028c578063bd5a7a231461029f578063bd85b039146102b257600080fd5b80632eb2c2d6116100ff5780632eb2c2d6146101d957806340398d67146101ee57806347002d1d1461020f5780634e1273f414610224578063504e35d31461024457600080fd5b8062fdd58e1461013b57806301ffc9a7146101615780630e89341c146101845780632693ebf2146101a45780632acada4d146101c4575b600080fd5b61014e610149366004612525565b610351565b6040519081526020015b60405180910390f35b61017461016f366004612565565b610379565b6040519015158152602001610158565b610197610192366004612589565b6103c9565b60405161015891906125f2565b61014e6101b2366004612589565b60066020526000908152604090205481565b6101cc61045d565b60405161015891906126cb565b6101ec6101e7366004612870565b6107cf565b005b6102016101fc366004612919565b61083b565b60405161015892919061296f565b610217610a8a565b6040516101589190612994565b6102376102323660046129e9565b610dea565b6040516101589190612aa8565b610257610252366004612589565b610ebe565b60405161015896959493929190612abb565b6101ec611096565b6003546040516001600160a01b039091168152602001610158565b6101ec61029a366004612b1c565b6110aa565b61014e6102ad366004612b58565b6110b9565b61014e6102c0366004612589565b60009081526006602052604090205490565b6101ec6102e0366004612c02565b61127a565b6102376102f3366004612cb6565b6115d2565b61030b610306366004612589565b611957565b6040516101589190612d96565b610174610326366004612da9565b611bad565b6101ec610339366004612ddc565b611bdb565b6101ec61034c366004612919565b611c3a565b6000818152602081815260408083206001600160a01b03861684529091529020545b92915050565b60006001600160e01b03198216636cdb3d1360e11b14806103aa57506001600160e01b031982166303a24d0760e21b145b8061037357506301ffc9a760e01b6001600160e01b0319831614610373565b6060600280546103d890612e40565b80601f016020809104026020016040519081016040528092919081815260200182805461040490612e40565b80156104515780601f1061042657610100808354040283529160200191610451565b820191906000526020600020905b81548152906001019060200180831161043457829003601f168201915b50505050509050919050565b6004546060906000805b828110156104a35760008181526006602052604090205415610491578161048d81612e90565b9250505b8061049b81612e90565b915050610467565b506000816001600160401b038111156104be576104be61272d565b6040519080825280602002602001820160405280156104f757816020015b6104e461249c565b8152602001906001900390816104dc5790505b5090506000805b848110156107c557600081815260066020526040902054156107b357600061052582611c78565b6040516020016105359190612ea9565b60408051601f1981840301815260808301825284835260008581526005602090815290839020835160c08101909452805492955090840192918290829061057b90612e40565b80601f01602080910402602001604051908101604052809291908181526020018280546105a790612e40565b80156105f45780601f106105c9576101008083540402835291602001916105f4565b820191906000526020600020905b8154815290600101906020018083116105d757829003601f168201915b5050505050815260200160018201805461060d90612e40565b80601f016020809104026020016040519081016040528092919081815260200182805461063990612e40565b80156106865780601f1061065b57610100808354040283529160200191610686565b820191906000526020600020905b81548152906001019060200180831161066957829003601f168201915b5050505050815260200160028201805461069f90612e40565b80601f01602080910402602001604051908101604052809291908181526020018280546106cb90612e40565b80156107185780601f106106ed57610100808354040283529160200191610718565b820191906000526020600020905b8154815290600101906020018083116106fb57829003601f168201915b50505050508152602001600382015481526020016004820160009054906101000a90046001600160a01b03166001600160a01b03166001600160a01b031681526020016005820154815250508152602001600660008581526020019081526020016000205481526020018281525084848151811061079857610798612efd565b602002602001018190525082806107ae90612e90565b935050505b806107bd81612e90565b9150506104fe565b5090949350505050565b336001600160a01b03861681148015906107f057506107ee8682611bad565b155b156108265760405163711bec9160e11b81526001600160a01b038083166004830152871660248201526044015b60405180910390fd5b6108338686868686611d80565b505050505050565b60045460609081906000816001600160401b0381111561085d5761085d61272d565b604051908082528060200260200182016040528015610886578160200160208202803683370190505b5090506000826001600160401b038111156108a3576108a361272d565b6040519080825280602002602001820160405280156108cc578160200160208202803683370190505b5090506000805b8481101561096257600081815260066020526040902054156109505760006108fb8983610351565b9050801561094e578185848151811061091657610916612efd565b6020026020010181815250508084848151811061093557610935612efd565b60209081029190910101528261094a81612e90565b9350505b505b8061095a81612e90565b9150506108d3565b506000816001600160401b0381111561097d5761097d61272d565b6040519080825280602002602001820160405280156109a6578160200160208202803683370190505b5090506000826001600160401b038111156109c3576109c361272d565b6040519080825280602002602001820160405280156109ec578160200160208202803683370190505b50905060005b83811015610a7b57858181518110610a0c57610a0c612efd565b6020026020010151838281518110610a2657610a26612efd565b602002602001018181525050848181518110610a4457610a44612efd565b6020026020010151828281518110610a5e57610a5e612efd565b602090810291909101015280610a7381612e90565b9150506109f2565b50909890975095505050505050565b600454606090600033815b83811015610acf576000610aa98383610351565b1115610abd5782610ab981612e90565b9350505b80610ac781612e90565b915050610a95565b506000826001600160401b03811115610aea57610aea61272d565b604051908082528060200260200182016040528015610b2357816020015b610b1061249c565b815260200190600190039081610b085790505b5090506000805b85811015610ddf576000610b3e8583610351565b90508015610dcc576000610b5183611c78565b604051602001610b619190612ea9565b60408051601f1981840301815260808301825285835260008681526005602090815290839020835160c081019094528054929550908401929182908290610ba790612e40565b80601f0160208091040260200160405190810160405280929190818152602001828054610bd390612e40565b8015610c205780601f10610bf557610100808354040283529160200191610c20565b820191906000526020600020905b815481529060010190602001808311610c0357829003601f168201915b50505050508152602001600182018054610c3990612e40565b80601f0160208091040260200160405190810160405280929190818152602001828054610c6590612e40565b8015610cb25780601f10610c8757610100808354040283529160200191610cb2565b820191906000526020600020905b815481529060010190602001808311610c9557829003601f168201915b50505050508152602001600282018054610ccb90612e40565b80601f0160208091040260200160405190810160405280929190818152602001828054610cf790612e40565b8015610d445780601f10610d1957610100808354040283529160200191610d44565b820191906000526020600020905b815481529060010190602001808311610d2757829003601f168201915b50505050508152602001600382015481526020016004820160009054906101000a90046001600160a01b03166001600160a01b03166001600160a01b03168152602001600582015481525050815260200183815260200182815250858581518110610db157610db1612efd565b60200260200101819052508380610dc790612e90565b945050505b5080610dd781612e90565b915050610b2a565b509095945050505050565b60608151835114610e1b5781518351604051635b05999160e01b81526004810192909252602482015260440161081d565b600083516001600160401b03811115610e3657610e3661272d565b604051908082528060200260200182016040528015610e5f578160200160208202803683370190505b50905060005b8451811015610eb657602080820286010151610e8990602080840287010151610351565b828281518110610e9b57610e9b612efd565b6020908102919091010152610eaf81612e90565b9050610e65565b509392505050565b600560205260009081526040902080548190610ed990612e40565b80601f0160208091040260200160405190810160405280929190818152602001828054610f0590612e40565b8015610f525780601f10610f2757610100808354040283529160200191610f52565b820191906000526020600020905b815481529060010190602001808311610f3557829003601f168201915b505050505090806001018054610f6790612e40565b80601f0160208091040260200160405190810160405280929190818152602001828054610f9390612e40565b8015610fe05780601f10610fb557610100808354040283529160200191610fe0565b820191906000526020600020905b815481529060010190602001808311610fc357829003601f168201915b505050505090806002018054610ff590612e40565b80601f016020809104026020016040519081016040528092919081815260200182805461102190612e40565b801561106e5780601f106110435761010080835404028352916020019161106e565b820191906000526020600020905b81548152906001019060200180831161105157829003601f168201915b5050505060038301546004840154600590940154929390926001600160a01b03909116915086565b61109e611de7565b6110a86000611e14565b565b6110b5338383611e66565b5050565b60048054600091600190836110ce8385612f13565b90915550508215806110e05750828711155b6111285760405162461bcd60e51b8152602060048201526019602482015278416d6f756e742065786365656473206d617820737570706c7960381b604482015260640161081d565b6040805160c081018252878152602080820188905281830187905242606083015233608083015260a082018690526000848152600590915291909120815181906111729082612f71565b50602082015160018201906111879082612f71565b506040820151600282019061119c9082612f71565b506060820151600382015560808201516004820180546001600160a01b0319166001600160a01b0390921691909117905560a09091015160059091015560008181526006602090815260408083208a90558051918201905290815261120690899083908a90611efc565b876001600160a01b0316817fa7598e50d42ce6a6edf2857b3d93931f9421a00b5ed66fe99422219dfd67e31a8961123c85611c78565b60405160200161124c9190612ea9565b60408051601f19818403018152908290526112679291613030565b60405180910390a3979650505050505050565b6000838152600660205260409020546112cc5760405162461bcd60e51b8152602060048201526014602482015273151bdad95b88191bd95cc81b9bdd08195e1a5cdd60621b604482015260640161081d565b600083815260056020526040808220815160c081019092528054829082906112f390612e40565b80601f016020809104026020016040519081016040528092919081815260200182805461131f90612e40565b801561136c5780601f106113415761010080835404028352916020019161136c565b820191906000526020600020905b81548152906001019060200180831161134f57829003601f168201915b5050505050815260200160018201805461138590612e40565b80601f01602080910402602001604051908101604052809291908181526020018280546113b190612e40565b80156113fe5780601f106113d3576101008083540402835291602001916113fe565b820191906000526020600020905b8154815290600101906020018083116113e157829003601f168201915b5050505050815260200160028201805461141790612e40565b80601f016020809104026020016040519081016040528092919081815260200182805461144390612e40565b80156114905780601f1061146557610100808354040283529160200191611490565b820191906000526020600020905b81548152906001019060200180831161147357829003601f168201915b50505091835250506003820154602082015260048201546001600160a01b0390811660408301526005909201546060909101526080820151919250163314806114e357506003546001600160a01b031633145b6115205760405162461bcd60e51b815260206004820152600e60248201526d139bdd08185d5d1a1bdc9a5e995960921b604482015260640161081d565b60a08101511561158c5760a0810151600085815260066020526040902054611549908490612f13565b111561158c5760405162461bcd60e51b815260206004820152601260248201527145786365656473206d617820737570706c7960701b604482015260640161081d565b600084815260066020526040812080548492906115aa908490612f13565b925050819055506115cc83858460405180602001604052806000815250611efc565b50505050565b606084518651146115f55760405162461bcd60e51b815260040161081d90613049565b83518651146116165760405162461bcd60e51b815260040161081d90613049565b82518651146116375760405162461bcd60e51b815260040161081d90613049565b81518651146116585760405162461bcd60e51b815260040161081d90613049565b600086516001600160401b038111156116735761167361272d565b60405190808252806020026020018201604052801561169c578160200160208202803683370190505b50905060005b87518110156118ed57600480549060019060006116bf8385612f13565b925050819055508482815181106116d8576116d8612efd565b60200260200101516000148061172057508482815181106116fb576116fb612efd565b602002602001015189838151811061171557611715612efd565b602002602001015111155b6117685760405162461bcd60e51b8152602060048201526019602482015278416d6f756e742065786365656473206d617820737570706c7960381b604482015260640161081d565b6040518060c0016040528089848151811061178557611785612efd565b602002602001015181526020018884815181106117a4576117a4612efd565b602002602001015181526020018784815181106117c3576117c3612efd565b60200260200101518152602001428152602001336001600160a01b031681526020018684815181106117f7576117f7612efd565b6020908102919091018101519091526000838152600590915260409020815181906118229082612f71565b50602082015160018201906118379082612f71565b506040820151600282019061184c9082612f71565b506060820151600382015560808201516004820180546001600160a01b0319166001600160a01b0390921691909117905560a090910151600590910155885189908390811061189d5761189d612efd565b60200260200101516006600083815260200190815260200160002081905550808383815181106118cf576118cf612efd565b602090810291909101015250806118e581612e90565b9150506116a2565b5061190988828960405180602001604052806000815250611f59565b876001600160a01b03167f90f2e1a10c2d3075749fc7f611671901cb1b19b7919d2c4a4668939458039273828960405161194492919061296f565b60405180910390a2979650505050505050565b61195f6124ca565b6000828152600660205260409020546119b15760405162461bcd60e51b8152602060048201526014602482015273151bdad95b88191bd95cc81b9bdd08195e1a5cdd60621b604482015260640161081d565b60008281526005602052604090819020815160c081019092528054829082906119d990612e40565b80601f0160208091040260200160405190810160405280929190818152602001828054611a0590612e40565b8015611a525780601f10611a2757610100808354040283529160200191611a52565b820191906000526020600020905b815481529060010190602001808311611a3557829003601f168201915b50505050508152602001600182018054611a6b90612e40565b80601f0160208091040260200160405190810160405280929190818152602001828054611a9790612e40565b8015611ae45780601f10611ab957610100808354040283529160200191611ae4565b820191906000526020600020905b815481529060010190602001808311611ac757829003601f168201915b50505050508152602001600282018054611afd90612e40565b80601f0160208091040260200160405190810160405280929190818152602001828054611b2990612e40565b8015611b765780601f10611b4b57610100808354040283529160200191611b76565b820191906000526020600020905b815481529060010190602001808311611b5957829003601f168201915b50505091835250506003820154602082015260048201546001600160a01b0316604082015260059091015460609091015292915050565b6001600160a01b03918216600090815260016020908152604080832093909416825291909152205460ff1690565b336001600160a01b0386168114801590611bfc5750611bfa8682611bad565b155b15611c2d5760405163711bec9160e11b81526001600160a01b0380831660048301528716602482015260440161081d565b6108338686868686611f91565b611c42611de7565b6001600160a01b038116611c6c57604051631e4fbdf760e01b81526000600482015260240161081d565b611c7581611e14565b50565b606081600003611c9f5750506040805180820190915260018152600360fc1b602082015290565b8160005b8115611cc95780611cb381612e90565b9150611cc29050600a8361308f565b9150611ca3565b6000816001600160401b03811115611ce357611ce361272d565b6040519080825280601f01601f191660200182016040528015611d0d576020820181803683370190505b5090505b8415611d7857611d226001836130a3565b9150611d2f600a866130b6565b611d3a906030612f13565b60f81b818381518110611d4f57611d4f612efd565b60200101906001600160f81b031916908160001a905350611d71600a8661308f565b9450611d11565b949350505050565b6001600160a01b038416611daa57604051632bfa23e760e11b81526000600482015260240161081d565b6001600160a01b038516611dd357604051626a0d4560e21b81526000600482015260240161081d565b611de0858585858561201f565b5050505050565b6003546001600160a01b031633146110a85760405163118cdaa760e01b815233600482015260240161081d565b600380546001600160a01b038381166001600160a01b0319831681179093556040519116919082907f8be0079c531659141344cd1fd0a4f28419497f9722a3daafe3b4186f6b6457e090600090a35050565b6001600160a01b038216611e8f5760405162ced3e160e81b81526000600482015260240161081d565b6001600160a01b03838116600081815260016020908152604080832094871680845294825291829020805460ff191686151590811790915591519182527f17307eab39ab6107e8899845ad3d59bd9653f200f220920489ca2b5937696c31910160405180910390a3505050565b6001600160a01b038416611f2657604051632bfa23e760e11b81526000600482015260240161081d565b6040805160018082526020820186905281830190815260608201859052608082019092529061083360008784848761201f565b6001600160a01b038416611f8357604051632bfa23e760e11b81526000600482015260240161081d565b6115cc60008585858561201f565b6001600160a01b038416611fbb57604051632bfa23e760e11b81526000600482015260240161081d565b6001600160a01b038516611fe457604051626a0d4560e21b81526000600482015260240161081d565b60408051600180825260208201869052818301908152606082018590526080820190925290612016878784848761201f565b50505050505050565b61202b85858585612072565b6001600160a01b03841615611de05782513390600103612064576020848101519084015161205d83898985858961228f565b5050610833565b6108338187878787876123b3565b80518251146120a15781518151604051635b05999160e01b81526004810192909252602482015260440161081d565b3360005b83518110156121b0576020818102858101820151908501909101516001600160a01b03881615612158576000828152602081815260408083206001600160a01b038c16845290915290205481811015612131576040516303dee4c560e01b81526001600160a01b038a16600482015260248101829052604481018390526064810184905260840161081d565b6000838152602081815260408083206001600160a01b038d16845290915290209082900390555b6001600160a01b0387161561219d576000828152602081815260408083206001600160a01b038b16845290915281208054839290612197908490612f13565b90915550505b5050806121a990612e90565b90506120a5565b5082516001036122315760208301516000906020840151909150856001600160a01b0316876001600160a01b0316846001600160a01b03167fc3d58168c5ae7397731d063d5bbf3d657854427343f4c083240f7aacaa2d0f628585604051612222929190918252602082015260400190565b60405180910390a45050611de0565b836001600160a01b0316856001600160a01b0316826001600160a01b03167f4a39dc06d4c0dbc64b70af90fd698a233a518aa5d07e595d983b8c0526c8f7fb868660405161228092919061296f565b60405180910390a45050505050565b6001600160a01b0384163b156108335760405163f23a6e6160e01b81526001600160a01b0385169063f23a6e61906122d390899089908890889088906004016130ca565b6020604051808303816000875af192505050801561230e575060408051601f3d908101601f1916820190925261230b9181019061310f565b60015b612377573d80801561233c576040519150601f19603f3d011682016040523d82523d6000602084013e612341565b606091505b50805160000361236f57604051632bfa23e760e11b81526001600160a01b038616600482015260240161081d565b805160208201fd5b6001600160e01b0319811663f23a6e6160e01b1461201657604051632bfa23e760e11b81526001600160a01b038616600482015260240161081d565b6001600160a01b0384163b156108335760405163bc197c8160e01b81526001600160a01b0385169063bc197c81906123f7908990899088908890889060040161312c565b6020604051808303816000875af1925050508015612432575060408051601f3d908101601f1916820190925261242f9181019061310f565b60015b612460573d80801561233c576040519150601f19603f3d011682016040523d82523d6000602084013e612341565b6001600160e01b0319811663bc197c8160e01b1461201657604051632bfa23e760e11b81526001600160a01b038616600482015260240161081d565b6040518060800160405280600081526020016124b66124ca565b815260200160008152602001606081525090565b6040518060c001604052806060815260200160608152602001606081526020016000815260200160006001600160a01b03168152602001600081525090565b80356001600160a01b038116811461252057600080fd5b919050565b6000806040838503121561253857600080fd5b61254183612509565b946020939093013593505050565b6001600160e01b031981168114611c7557600080fd5b60006020828403121561257757600080fd5b81356125828161254f565b9392505050565b60006020828403121561259b57600080fd5b5035919050565b60005b838110156125bd5781810151838201526020016125a5565b50506000910152565b600081518084526125de8160208601602086016125a2565b601f01601f19169290920160200192915050565b60208152600061258260208301846125c6565b6000815160c0845261261a60c08501826125c6565b90506020830151848203602086015261263382826125c6565b9150506040830151848203604086015261264d82826125c6565b606085810151908701526080808601516001600160a01b03169087015260a0948501519490950193909352509192915050565b80518252600060208201516080602085015261269f6080850182612605565b905060408301516040850152606083015184820360608601526126c282826125c6565b95945050505050565b6000602080830181845280855180835260408601915060408160051b870101925083870160005b8281101561272057603f1988860301845261270e858351612680565b945092850192908501906001016126f2565b5092979650505050505050565b634e487b7160e01b600052604160045260246000fd5b604051601f8201601f191681016001600160401b038111828210171561276b5761276b61272d565b604052919050565b60006001600160401b0382111561278c5761278c61272d565b5060051b60200190565b600082601f8301126127a757600080fd5b813560206127bc6127b783612773565b612743565b82815260059290921b840181019181810190868411156127db57600080fd5b8286015b848110156127f657803583529183019183016127df565b509695505050505050565b600082601f83011261281257600080fd5b81356001600160401b0381111561282b5761282b61272d565b61283e601f8201601f1916602001612743565b81815284602083860101111561285357600080fd5b816020850160208301376000918101602001919091529392505050565b600080600080600060a0868803121561288857600080fd5b61289186612509565b945061289f60208701612509565b935060408601356001600160401b03808211156128bb57600080fd5b6128c789838a01612796565b945060608801359150808211156128dd57600080fd5b6128e989838a01612796565b935060808801359150808211156128ff57600080fd5b5061290c88828901612801565b9150509295509295909350565b60006020828403121561292b57600080fd5b61258282612509565b600081518084526020808501945080840160005b8381101561296457815187529582019590820190600101612948565b509495945050505050565b6040815260006129826040830185612934565b82810360208401526126c28185612934565b6000602080830181845280855180835260408601915060408160051b870101925083870160005b8281101561272057603f198886030184526129d7858351612680565b945092850192908501906001016129bb565b600080604083850312156129fc57600080fd5b82356001600160401b0380821115612a1357600080fd5b818501915085601f830112612a2757600080fd5b81356020612a376127b783612773565b82815260059290921b84018101918181019089841115612a5657600080fd5b948201945b83861015612a7b57612a6c86612509565b82529482019490820190612a5b565b96505086013592505080821115612a9157600080fd5b50612a9e85828601612796565b9150509250929050565b6020815260006125826020830184612934565b60c081526000612ace60c08301896125c6565b8281036020840152612ae081896125c6565b90508281036040840152612af481886125c6565b606084019690965250506001600160a01b0392909216608083015260a0909101529392505050565b60008060408385031215612b2f57600080fd5b612b3883612509565b915060208301358015158114612b4d57600080fd5b809150509250929050565b60008060008060008060c08789031215612b7157600080fd5b612b7a87612509565b95506020870135945060408701356001600160401b0380821115612b9d57600080fd5b612ba98a838b01612801565b95506060890135915080821115612bbf57600080fd5b612bcb8a838b01612801565b94506080890135915080821115612be157600080fd5b50612bee89828a01612801565b92505060a087013590509295509295509295565b600080600060608486031215612c1757600080fd5b83359250612c2760208501612509565b9150604084013590509250925092565b600082601f830112612c4857600080fd5b81356020612c586127b783612773565b82815260059290921b84018101918181019086841115612c7757600080fd5b8286015b848110156127f65780356001600160401b03811115612c9a5760008081fd5b612ca88986838b0101612801565b845250918301918301612c7b565b60008060008060008060c08789031215612ccf57600080fd5b612cd887612509565b955060208701356001600160401b0380821115612cf457600080fd5b612d008a838b01612796565b96506040890135915080821115612d1657600080fd5b612d228a838b01612c37565b95506060890135915080821115612d3857600080fd5b612d448a838b01612c37565b94506080890135915080821115612d5a57600080fd5b612d668a838b01612c37565b935060a0890135915080821115612d7c57600080fd5b50612d8989828a01612796565b9150509295509295509295565b6020815260006125826020830184612605565b60008060408385031215612dbc57600080fd5b612dc583612509565b9150612dd360208401612509565b90509250929050565b600080600080600060a08688031215612df457600080fd5b612dfd86612509565b9450612e0b60208701612509565b9350604086013592506060860135915060808601356001600160401b03811115612e3457600080fd5b61290c88828901612801565b600181811c90821680612e5457607f821691505b602082108103612e7457634e487b7160e01b600052602260045260246000fd5b50919050565b634e487b7160e01b600052601160045260246000fd5b600060018201612ea257612ea2612e7a565b5060010190565b7f68747470733a2f2f6170692e6273617473662e636f6d2f6d657461646174612f815260008251612ee18160208501602087016125a2565b64173539b7b760d91b6020939091019283015250602501919050565b634e487b7160e01b600052603260045260246000fd5b8082018082111561037357610373612e7a565b601f821115612f6c57600081815260208120601f850160051c81016020861015612f4d5750805b601f850160051c820191505b8181101561083357828155600101612f59565b505050565b81516001600160401b03811115612f8a57612f8a61272d565b612f9e81612f988454612e40565b84612f26565b602080601f831160018114612fd35760008415612fbb5750858301515b600019600386901b1c1916600185901b178555610833565b600085815260208120601f198616915b8281101561300257888601518255948401946001909101908401612fe3565b50858210156130205787850151600019600388901b60f8161c191681555b5050505050600190811b01905550565b828152604060208201526000611d7860408301846125c6565b602080825260169082015275082e4e4c2f2e640d8cadccee8d040dad2e6dac2e8c6d60531b604082015260600190565b634e487b7160e01b600052601260045260246000fd5b60008261309e5761309e613079565b500490565b8181038181111561037357610373612e7a565b6000826130c5576130c5613079565b500690565b6001600160a01b03868116825285166020820152604081018490526060810183905260a060808201819052600090613104908301846125c6565b979650505050505050565b60006020828403121561312157600080fd5b81516125828161254f565b6001600160a01b0386811682528516602082015260a06040820181905260009061315890830186612934565b828103606084015261316a8186612934565b9050828103608084015261317e81856125c6565b9897505050505050505056fea26469706673582212202aa02317993fc4ded3bbda925e8b63a5f6c07fc8994c423171f175023ce45c6864736f6c6343000814003368747470733a2f2f6170692e6273617473662e636f6d2f6d657461646174612f7b69647d2e6a736f6e",
  "linkReferences": {},
  "deployedLinkReferences": {}
}