{
  "_format": "hh-sol-artifact-1",
  "contractName": "BSATSF_ERC721",
  "sourceName": "contracts/BSATSF_ERC721.sol",
  "abi": [
    {
      "inputs": [
        {
          "internalType": "address",
          "name": "initialOwner",
          "type": "address"
        }
      ],
      "stateMutability": "nonpayable",
      "type": "constructor"
    },
    {
      "inputs": [
        {
          "internalType": "address",
          "name": "sender",
          "type": "address"
        },
        {
          "internalType": "uint256",
          "name": "tokenId",
          "type": "uint256"
        },
        {
          "internalType": "address",
          "name": "owner",
          "type": "address"
        }
      ],
      "name": "ERC721IncorrectOwner",
      "type": "error"
    },
    {
      "inputs": [
        {
          "internalType": "address",
          "name": "operator",
          "type": "address"
        },
        {
          "internalType": "uint256",
          "name": "tokenId",
          "type": "uint256"
        }
      ],
      "name": "ERC721InsufficientApproval",
      "type": "error"
    },
    {
      "inputs": [
        {
          "internalType": "address",
          "name": "approver",
          "type": "address"
        }
      ],
      "name": "ERC721InvalidApprover",
      "type": "error"
    },
    {
      "inputs": [
        {
          "internalType": "address",
          "name": "operator",
          "type": "address"
        }
      ],
      "name": "ERC721InvalidOperator",
      "type": "error"
    },
    {
      "inputs": [
        {
          "internalType": "address",
          "name": "owner",
          "type": "address"
        }
      ],
      "name": "ERC721InvalidOwner",
      "type": "error"
    },
    {
      "inputs": [
        {
          "internalType": "address",
          "name": "receiver",
          "type": "address"
        }
      ],
      "name": "ERC721InvalidReceiver",
      "type": "error"
    },
    {
      "inputs": [
        {
          "internalType": "address",
          "name": "sender",
          "type": "address"
        }
      ],
      "name": "ERC721InvalidSender",
      "type": "error"
    },
    {
      "inputs": [
        {
          "internalType": "uint256",
          "name": "tokenId",
          "type": "uint256"
        }
      ],
      "name": "ERC721NonexistentToken",
      "type": "error"
    },
    {
      "inputs": [],
      "name": "FailedCall",
      "type": "error"
    },
    {
      "inputs": [
        {
          "internalType": "uint256",
          "name": "balance",
          "type": "uint256"
        },
        {
          "internalType": "uint256",
          "name": "needed",
          "type": "uint256"
        }
      ],
      "name": "InsufficientBalance",
      "type": "error"
    },
    {
      "inputs": [
        {
          "internalType": "address",
          "name": "owner",
          "type": "address"
        }
      ],
      "name": "OwnableInvalidOwner",
      "type": "error"
    },
    {
      "inputs": [
        {
          "internalType": "address",
          "name": "account",
          "type": "address"
        }
      ],
      "name": "OwnableUnauthorizedAccount",
      "type": "error"
    },
    {
      "inputs": [],
      "name": "ReentrancyGuardReentrantCall",
      "type": "error"
    },
    {
      "anonymous": false,
      "inputs": [
        {
          "indexed": true,
          "internalType": "address",
          "name": "owner",
          "type": "address"
        },
        {
          "indexed": true,
          "internalType": "address",
          "name": "approved",
          "type": "address"
        },
        {
          "indexed": true,
          "internalType": "uint256",
          "name": "tokenId",
          "type": "uint256"
        }
      ],
      "name": "Approval",
      "type": "event"
    },
    {
      "anonymous": false,
      "inputs": [
        {
          "indexed": true,
          "internalType": "address",
          "name": "owner",
          "type": "address"
        },
        {
          "indexed": true,
          "internalType": "address",
          "name": "operator",
          "type": "address"
        },
        {
          "indexed": false,
          "internalType": "bool",
          "name": "approved",
          "type": "bool"
        }
      ],
      "name": "ApprovalForAll",
      "type": "event"
    },
    {
      "anonymous": false,
      "inputs": [
        {
          "indexed": true,
          "internalType": "uint256",
          "name": "tokenId",
          "type": "uint256"
        },
        {
          "indexed": true,
          "internalType": "address",
          "name": "to",
          "type": "address"
        },
        {
          "indexed": false,
          "internalType": "string",
          "name": "metadataURI",
          "type": "string"
        }
      ],
      "name": "AssetMinted",
      "type": "event"
    },
    {
      "anonymous": false,
      "inputs": [
        {
          "indexed": true,
          "internalType": "uint256",
          "name": "tokenId",
          "type": "uint256"
        },
        {
          "indexed": true,
          "internalType": "address",
          "name": "from",
          "type": "address"
        },
        {
          "indexed": true,
          "internalType": "address",
          "name": "to",
          "type": "address"
        },
        {
          "indexed": false,
          "internalType": "uint256",
          "name": "fee",
          "type": "uint256"
        }
      ],
      "name": "AssetTransferred",
      "type": "event"
    },
    {
      "anonymous": false,
      "inputs": [
        {
          "indexed": false,
          "internalType": "uint256",
          "name": "_fromTokenId",
          "type": "uint256"
        },
        {
          "indexed": false,
          "internalType": "uint256",
          "name": "_toTokenId",
          "type": "uint256"
        }
      ],
      "name": "BatchMetadataUpdate",
      "type": "event"
    },
    {
      "anonymous": false,
      "inputs": [
        {
          "indexed": false,
          "internalType": "uint256",
          "name": "_tokenId",
          "type": "uint256"
        }
      ],
      "name": "MetadataUpdate",
      "type": "event"
    },
    {
      "anonymous": false,
      "inputs": [
        {
          "indexed": true,
          "internalType": "address",
          "name": "previousOwner",
          "type": "address"
        },
        {
          "indexed": true,
          "internalType": "address",
          "name": "newOwner",
          "type": "address"
        }
      ],
      "name": "OwnershipTransferred",
      "type": "event"
    },
    {
      "anonymous": false,
      "inputs": [
        {
          "indexed": true,
          "internalType": "address",
          "name": "from",
          "type": "address"
        },
        {
          "indexed": true,
          "internalType": "address",
          "name": "to",
          "type": "address"
        },
        {
          "indexed": true,
          "internalType": "uint256",
          "name": "tokenId",
          "type": "uint256"
        }
      ],
      "name": "Transfer",
      "type": "event"
    },
    {
      "anonymous": false,
      "inputs": [
        {
          "indexed": false,
          "internalType": "uint256",
          "name": "newFee",
          "type": "uint256"
        }
      ],
      "name": "TransferFeeUpdated",
      "type": "event"
    },
    {
      "inputs": [
        {
          "internalType": "address",
          "name": "to",
          "type": "address"
        },
        {
          "internalType": "uint256",
          "name": "tokenId",
          "type": "uint256"
        }
      ],
      "name": "approve",
      "outputs": [],
      "stateMutability": "nonpayable",
      "type": "function"
    },
    {
      "inputs": [
        {
          "internalType": "uint256",
          "name": "",
          "type": "uint256"
        }
      ],
      "name": "assetMetadata",
      "outputs": [
        {
          "internalType": "string",
          "name": "name",
          "type": "string"
        },
        {
          "internalType": "string",
          "name": "description",
          "type": "string"
        },
        {
          "internalType": "string",
          "name": "ipfsHash",
          "type": "string"
        },
        {
          "internalType": "uint256",
          "name": "timestamp",
          "type": "uint256"
        },
        {
          "internalType": "address",
          "name": "creator",
          "type": "address"
        }
      ],
      "stateMutability": "view",
      "type": "function"
    },
    {
      "inputs": [
        {
          "internalType": "address",
          "name": "owner",
          "type": "address"
        }
      ],
      "name": "balanceOf",
      "outputs": [
        {
          "internalType": "uint256",
          "name": "",
          "type": "uint256"
        }
      ],
      "stateMutability": "view",
      "type": "function"
    },
    {
      "inputs": [],
      "name": "getAllAssets",
      "outputs": [
        {
          "components": [
            {
              "internalType": "uint256",
              "name": "tokenId",
              "type": "uint256"
            },
            {
              "internalType": "address",
              "name": "owner",
              "type": "address"
            },
            {
              "internalType": "string",
              "name": "uri",
              "type": "string"
            },
            {
              "components": [
                {
                  "internalType": "string",
                  "name": "name",
                  "type": "string"
                },
                {
                  "internalType": "string",
                  "name": "description",
                  "type": "string"
                },
                {
                  "internalType": "string",
                  "name": "ipfsHash",
                  "type": "string"
                },
                {
                  "internalType": "uint256",
                  "name": "timestamp",
                  "type": "uint256"
                },
                {
                  "internalType": "address",
                  "name": "creator",
                  "type": "address"
                }
              ],
              "internalType": "struct BSATSF_ERC721.AssetMetadata",
              "name": "metadata",
              "type": "tuple"
            }
          ],
          "internalType": "struct BSATSF_ERC721.RenderAsset[]",
          "name": "",
          "type": "tuple[]"
        }
      ],
      "stateMutability": "view",
      "type": "function"
    },
    {
      "inputs": [
        {
          "internalType": "uint256",
          "name": "tokenId",
          "type": "uint256"
        }
      ],
      "name": "getApproved",
      "outputs": [
        {
          "internalType": "address",
          "name": "",
          "type": "address"
        }
      ],
      "stateMutability": "view",
      "type": "function"
    },
    {
      "inputs": [
        {
          "internalType": "uint256",
          "name": "tokenId",
          "type": "uint256"
        }
      ],
      "name": "getAssetMetadata",
      "outputs": [
        {
          "components": [
            {
              "internalType": "string",
              "name": "name",
              "type": "string"
            },
            {
              "internalType": "string",
              "name": "description",
              "type": "string"
            },
            {
              "internalType": "string",
              "name": "ipfsHash",
              "type": "string"
            },
            {
              "internalType": "uint256",
              "name": "timestamp",
              "type": "uint256"
            },
            {
              "internalType": "address",
              "name": "creator",
              "type": "address"
            }
          ],
          "internalType": "struct BSATSF_ERC721.AssetMetadata",
          "name": "",
          "type": "tuple"
        }
      ],
      "stateMutability": "view",
      "type": "function"
    },
    {
      "inputs": [],
      "name": "getMyAssets",
      "outputs": [
        {
          "components": [
            {
              "internalType": "uint256",
              "name": "tokenId",
              "type": "uint256"
            },
            {
              "internalType": "address",
              "name": "owner",
              "type": "address"
            },
            {
              "internalType": "string",
              "name": "uri",
              "type": "string"
            },
            {
              "components": [
                {
                  "internalType": "string",
                  "name": "name",
                  "type": "string"
                },
                {
                  "internalType": "string",
                  "name": "description",
                  "type": "string"
                },
                {
                  "internalType": "string",
                  "name": "ipfsHash",
                  "type": "string"
                },
                {
                  "internalType": "uint256",
                  "name": "timestamp",
                  "type": "uint256"
                },
                {
                  "internalType": "address",
                  "name": "creator",
                  "type": "address"
                }
              ],
              "internalType": "struct BSATSF_ERC721.AssetMetadata",
              "name": "metadata",
              "type": "tuple"
            }
          ],
          "internalType": "struct BSATSF_ERC721.RenderAsset[]",
          "name": "",
          "type": "tuple[]"
        }
      ],
      "stateMutability": "view",
      "type": "function"
    },
    {
      "inputs": [
        {
          "internalType": "address",
          "name": "owner",
          "type": "address"
        }
      ],
      "name": "getTokensByOwner",
      "outputs": [
        {
          "internalType": "uint256[]",
          "name": "",
          "type": "uint256[]"
        }
      ],
      "stateMutability": "view",
      "type": "function"
    },
    {
      "inputs": [
        {
          "internalType": "address",
          "name": "owner",
          "type": "address"
        },
        {
          "internalType": "address",
          "name": "operator",
          "type": "address"
        }
      ],
      "name": "isApprovedForAll",
      "outputs": [
        {
          "internalType": "bool",
          "name": "",
          "type": "bool"
        }
      ],
      "stateMutability": "view",
      "type": "function"
    },
    {
      "inputs": [
        {
          "internalType": "address",
          "name": "to",
          "type": "address"
        },
        {
          "internalType": "string",
          "name": "metadataURI",
          "type": "string"
        },
        {
          "internalType": "string",
          "name": "name",
          "type": "string"
        },
        {
          "internalType": "string",
          "name": "description",
          "type": "string"
        },
        {
          "internalType": "string",
          "name": "ipfsHash",
          "type": "string"
        }
      ],
      "name": "mintAsset",
      "outputs": [
        {
          "internalType": "uint256",
          "name": "",
          "type": "uint256"
        }
      ],
      "stateMutability": "nonpayable",
      "type": "function"
    },
    {
      "inputs": [],
      "name": "name",
      "outputs": [
        {
          "internalType": "string",
          "name": "",
          "type": "string"
        }
      ],
      "stateMutability": "view",
      "type": "function"
    },
    {
      "inputs": [],
      "name": "owner",
      "outputs": [
        {
          "internalType": "address",
          "name": "",
          "type": "address"
        }
      ],
      "stateMutability": "view",
      "type": "function"
    },
    {
      "inputs": [
        {
          "internalType": "uint256",
          "name": "tokenId",
          "type": "uint256"
        }
      ],
      "name": "ownerOf",
      "outputs": [
        {
          "internalType": "address",
          "name": "",
          "type": "address"
        }
      ],
      "stateMutability": "view",
      "type": "function"
    },
    {
      "inputs": [],
      "name": "renounceOwnership",
      "outputs": [],
      "stateMutability": "nonpayable",
      "type": "function"
    },
    {
      "inputs": [
        {
          "internalType": "address",
          "name": "from",
          "type": "address"
        },
        {
          "internalType": "address",
          "name": "to",
          "type": "address"
        },
        {
          "internalType": "uint256",
          "name": "tokenId",
          "type": "uint256"
        }
      ],
      "name": "safeTransferFrom",
      "outputs": [],
      "stateMutability": "nonpayable",
      "type": "function"
    },
    {
      "inputs": [
        {
          "internalType": "address",
          "name": "from",
          "type": "address"
        },
        {
          "internalType": "address",
          "name": "to",
          "type": "address"
        },
        {
          "internalType": "uint256",
          "name": "tokenId",
          "type": "uint256"
        },
        {
          "internalType": "bytes",
          "name": "data",
          "type": "bytes"
        }
      ],
      "name": "safeTransferFrom",
      "outputs": [],
      "stateMutability": "nonpayable",
      "type": "function"
    },
    {
      "inputs": [
        {
          "internalType": "address",
          "name": "operator",
          "type": "address"
        },
        {
          "internalType": "bool",
          "name": "approved",
          "type": "bool"
        }
      ],
      "name": "setApprovalForAll",
      "outputs": [],
      "stateMutability": "nonpayable",
      "type": "function"
    },
    {
      "inputs": [
        {
          "internalType": "uint256",
          "name": "_fee",
          "type": "uint256"
        }
      ],
      "name": "setTransferFee",
      "outputs": [],
      "stateMutability": "nonpayable",
      "type": "function"
    },
    {
      "inputs": [
        {
          "internalType": "bytes4",
          "name": "interfaceId",
          "type": "bytes4"
        }
      ],
      "name": "supportsInterface",
      "outputs": [
        {
          "internalType": "bool",
          "name": "",
          "type": "bool"
        }
      ],
      "stateMutability": "view",
      "type": "function"
    },
    {
      "inputs": [],
      "name": "symbol",
      "outputs": [
        {
          "internalType": "string",
          "name": "",
          "type": "string"
        }
      ],
      "stateMutability": "view",
      "type": "function"
    },
    {
      "inputs": [
        {
          "internalType": "uint256",
          "name": "tokenId",
          "type": "uint256"
        }
      ],
      "name": "tokenURI",
      "outputs": [
        {
          "internalType": "string",
          "name": "",
          "type": "string"
        }
      ],
      "stateMutability": "view",
      "type": "function"
    },
    {
      "inputs": [],
      "name": "totalSupply",
      "outputs": [
        {
          "internalType": "uint256",
          "name": "",
          "type": "uint256"
        }
      ],
      "stateMutability": "view",
      "type": "function"
    },
    {
      "inputs": [
        {
          "internalType": "address",
          "name": "from",
          "type": "address"
        },
        {
          "internalType": "address",
          "name": "to",
          "type": "address"
        },
        {
          "internalType": "uint256",
          "name": "tokenId",
          "type": "uint256"
        }
      ],
      "name": "transferAsset",
      "outputs": [],
      "stateMutability": "payable",
      "type": "function"
    },
    {
      "inputs": [],
      "name": "transferFee",
      "outputs": [
        {
          "internalType": "uint256",
          "name": "",
          "type": "uint256"
        }
      ],
      "stateMutability": "view",
      "type": "function"
    },
    {
      "inputs": [
        {
          "internalType": "address",
          "name": "from",
          "type": "address"
        },
        {
          "internalType": "address",
          "name": "to",
          "type": "address"
        },
        {
          "internalType": "uint256",
          "name": "tokenId",
          "type": "uint256"
        }
      ],
      "name": "transferFrom",
      "outputs": [],
      "stateMutability": "nonpayable",
      "type": "function"
    },
    {
      "inputs": [
        {
          "internalType": "address",
          "name": "newOwner",
          "type": "address"
        }
      ],
      "name": "transferOwnership",
      "outputs": [],
      "stateMutability": "nonpayable",
      "type": "function"
    }
  ],
  "bytecode": "0x608060405266038d7ea4c68000600a553480156200001c57600080fd5b5060405162002b8738038062002b878339810160408190526200003f9162000140565b806040518060400160405280600c81526020016b1094d05514d188105cdcd95d60a21b815250604051806040016040528060068152602001652129a0aa29a360d11b815250816000908162000095919062000217565b506001620000a4828262000217565b5050506001600160a01b038116620000d657604051631e4fbdf760e01b81526000600482015260240160405180910390fd5b620000e181620000ee565b50506001600855620002e3565b600780546001600160a01b038381166001600160a01b0319831681179093556040519116919082907f8be0079c531659141344cd1fd0a4f28419497f9722a3daafe3b4186f6b6457e090600090a35050565b6000602082840312156200015357600080fd5b81516001600160a01b03811681146200016b57600080fd5b9392505050565b634e487b7160e01b600052604160045260246000fd5b600181811c908216806200019d57607f821691505b602082108103620001be57634e487b7160e01b600052602260045260246000fd5b50919050565b601f8211156200021257600081815260208120601f850160051c81016020861015620001ed5750805b601f850160051c820191505b818110156200020e57828155600101620001f9565b5050505b505050565b81516001600160401b0381111562000233576200023362000172565b6200024b8162000244845462000188565b84620001c4565b602080601f8311600181146200028357600084156200026a5750858301515b600019600386901b1c1916600185901b1785556200020e565b600085815260208120601f198616915b82811015620002b45788860151825594840194600190910190840162000293565b5085821015620002d35787850151600019600388901b60f8161c191681555b5050505050600190811b01905550565b61289480620002f36000396000f3fe6080604052600436106101815760003560e01c80636352211e116100d1578063a22cb4651161008a578063c87b56dd11610064578063c87b56dd1461045c578063cf2acf841461047c578063e985e9c5146104a9578063f2fde38b146104c957600080fd5b8063a22cb46514610406578063acb2ad6f14610426578063b88d4fde1461043c57600080fd5b80636352211e1461035e57806370a082311461037e578063715018a61461039e5780638da5cb5b146103b35780638f02bb5b146103d157806395d89b41146103f157600080fd5b806323b872dd1161013e57806342842e0e1161011857806342842e0e146102e5578063439e2e451461030557806347002d1d14610318578063504e35d31461032d57600080fd5b806323b872dd146102765780632acada4d1461029657806340398d67146102b857600080fd5b806301ffc9a71461018657806306fdde03146101bb578063081812fc146101dd578063095ea7b31461021557806318160ddd146102375780631edbb51614610256575b600080fd5b34801561019257600080fd5b506101a66101a13660046120d4565b6104e9565b60405190151581526020015b60405180910390f35b3480156101c757600080fd5b506101d06104fa565b6040516101b29190612141565b3480156101e957600080fd5b506101fd6101f8366004612154565b61058c565b6040516001600160a01b0390911681526020016101b2565b34801561022157600080fd5b50610235610230366004612189565b6105b5565b005b34801561024357600080fd5b506009545b6040519081526020016101b2565b34801561026257600080fd5b5061024861027136600461225f565b6105c4565b34801561028257600080fd5b5061023561029136600461231d565b6106d8565b3480156102a257600080fd5b506102ab610768565b6040516101b291906123ca565b3480156102c457600080fd5b506102d86102d3366004612471565b610a33565b6040516101b2919061248c565b3480156102f157600080fd5b5061023561030036600461231d565b610b00565b61023561031336600461231d565b610b20565b34801561032457600080fd5b506102ab610cb2565b34801561033957600080fd5b5061034d610348366004612154565b610fb7565b6040516101b29594939291906124d0565b34801561036a57600080fd5b506101fd610379366004612154565b611187565b34801561038a57600080fd5b50610248610399366004612471565b611192565b3480156103aa57600080fd5b506102356111da565b3480156103bf57600080fd5b506007546001600160a01b03166101fd565b3480156103dd57600080fd5b506102356103ec366004612154565b6111ee565b3480156103fd57600080fd5b506101d0611231565b34801561041257600080fd5b5061023561042136600461252c565b611240565b34801561043257600080fd5b50610248600a5481565b34801561044857600080fd5b50610235610457366004612568565b61124b565b34801561046857600080fd5b506101d0610477366004612154565b611263565b34801561048857600080fd5b5061049c610497366004612154565b61126e565b6040516101b291906125e4565b3480156104b557600080fd5b506101a66104c43660046125f7565b6114b0565b3480156104d557600080fd5b506102356104e4366004612471565b6114de565b60006104f48261151c565b92915050565b6060600080546105099061262a565b80601f01602080910402602001604051908101604052809291908181526020018280546105359061262a565b80156105825780601f1061055757610100808354040283529160200191610582565b820191906000526020600020905b81548152906001019060200180831161056557829003601f168201915b5050505050905090565b600061059782611541565b506000828152600460205260409020546001600160a01b03166104f4565b6105c082823361157a565b5050565b60098054600091600190836105d9838561267a565b909155506105e990508782611587565b6105f381876115a1565b6040805160a08101825286815260208082018790528183018690524260608301523360808301526000848152600b909152919091208151819061063690826126d3565b506020820151600182019061064b90826126d3565b506040820151600282019061066090826126d3565b5060608201516003820155608090910151600490910180546001600160a01b0319166001600160a01b039283161790556040519088169082907fa30dd43fc057b356acd774161b6c8743df78c9bd58d7f492dd56d00121dda6b5906106c6908a90612141565b60405180910390a39695505050505050565b6001600160a01b03821661070757604051633250574960e11b8152600060048201526024015b60405180910390fd5b60006107148383336115f1565b9050836001600160a01b0316816001600160a01b031614610762576040516364283d7b60e01b81526001600160a01b03808616600483015260248201849052821660448201526064016106fe565b50505050565b60095460609060008167ffffffffffffffff811115610789576107896121b3565b6040519080825280602002602001820160405280156107c257816020015b6107af612050565b8152602001906001900390816107a75790505b50905060005b82811015610a2c5760405180608001604052808281526020016107ea83611187565b6001600160a01b0316815260200161080183611263565b8152602001600b60008481526020019081526020016000206040518060a00160405290816000820180546108349061262a565b80601f01602080910402602001604051908101604052809291908181526020018280546108609061262a565b80156108ad5780601f10610882576101008083540402835291602001916108ad565b820191906000526020600020905b81548152906001019060200180831161089057829003601f168201915b505050505081526020016001820180546108c69061262a565b80601f01602080910402602001604051908101604052809291908181526020018280546108f29061262a565b801561093f5780601f106109145761010080835404028352916020019161093f565b820191906000526020600020905b81548152906001019060200180831161092257829003601f168201915b505050505081526020016002820180546109589061262a565b80601f01602080910402602001604051908101604052809291908181526020018280546109849061262a565b80156109d15780601f106109a6576101008083540402835291602001916109d1565b820191906000526020600020905b8154815290600101906020018083116109b457829003601f168201915b5050509183525050600382015460208201526004909101546001600160a01b031660409091015290528251839083908110610a0e57610a0e612793565b60200260200101819052508080610a24906127a9565b9150506107c8565b5092915050565b60606000610a4083611192565b905060008167ffffffffffffffff811115610a5d57610a5d6121b3565b604051908082528060200260200182016040528015610a86578160200160208202803683370190505b5090506000805b600954811015610af657856001600160a01b0316610aaa82611187565b6001600160a01b031603610ae45780838381518110610acb57610acb612793565b602090810291909101015281610ae0816127a9565b9250505b80610aee816127a9565b915050610a8d565b5090949350505050565b610b1b8383836040518060200160405280600081525061124b565b505050565b610b286116ea565b6000610b3382611187565b9050336001600160a01b0382161480610b5c575033610b518361058c565b6001600160a01b0316145b80610b6c5750610b6c81336114b0565b610bb05760405162461bcd60e51b81526020600482015260156024820152742737ba1030b8383937bb32b21037b91037bbb732b960591b60448201526064016106fe565b600a5434811115610c035760405162461bcd60e51b815260206004820152601960248201527f496e73756666696369656e74207472616e73666572206665650000000000000060448201526064016106fe565b610c0e858585611714565b8015610c3957610c3981610c2a6007546001600160a01b031690565b6001600160a01b0316906117c4565b6000610c4582346127c2565b90508015610c5757610c578133610c2a565b846001600160a01b0316866001600160a01b0316857ff3ece9284d33275d9c297a27c91c816d5543b99eb1a60525f3cee810ed72009185604051610c9d91815260200190565b60405180910390a4505050610b1b6001600855565b6060336000610cc082611192565b60095490915060008267ffffffffffffffff811115610ce157610ce16121b3565b604051908082528060200260200182016040528015610d1a57816020015b610d07612050565b815260200190600190039081610cff5790505b5090506000805b83811015610fac57856001600160a01b0316610d3c82611187565b6001600160a01b031603610f9a576040518060800160405280828152602001876001600160a01b03168152602001610d7383611263565b8152602001600b60008481526020019081526020016000206040518060a0016040529081600082018054610da69061262a565b80601f0160208091040260200160405190810160405280929190818152602001828054610dd29061262a565b8015610e1f5780601f10610df457610100808354040283529160200191610e1f565b820191906000526020600020905b815481529060010190602001808311610e0257829003601f168201915b50505050508152602001600182018054610e389061262a565b80601f0160208091040260200160405190810160405280929190818152602001828054610e649061262a565b8015610eb15780601f10610e8657610100808354040283529160200191610eb1565b820191906000526020600020905b815481529060010190602001808311610e9457829003601f168201915b50505050508152602001600282018054610eca9061262a565b80601f0160208091040260200160405190810160405280929190818152602001828054610ef69061262a565b8015610f435780601f10610f1857610100808354040283529160200191610f43565b820191906000526020600020905b815481529060010190602001808311610f2657829003601f168201915b5050509183525050600382015460208201526004909101546001600160a01b031660409091015290528351849084908110610f8057610f80612793565b60200260200101819052508180610f96906127a9565b9250505b80610fa4816127a9565b915050610d21565b509095945050505050565b600b60205260009081526040902080548190610fd29061262a565b80601f0160208091040260200160405190810160405280929190818152602001828054610ffe9061262a565b801561104b5780601f106110205761010080835404028352916020019161104b565b820191906000526020600020905b81548152906001019060200180831161102e57829003601f168201915b5050505050908060010180546110609061262a565b80601f016020809104026020016040519081016040528092919081815260200182805461108c9061262a565b80156110d95780601f106110ae576101008083540402835291602001916110d9565b820191906000526020600020905b8154815290600101906020018083116110bc57829003601f168201915b5050505050908060020180546110ee9061262a565b80601f016020809104026020016040519081016040528092919081815260200182805461111a9061262a565b80156111675780601f1061113c57610100808354040283529160200191611167565b820191906000526020600020905b81548152906001019060200180831161114a57829003601f168201915b5050505060038301546004909301549192916001600160a01b0316905085565b60006104f482611541565b60006001600160a01b0382166111be576040516322718ad960e21b8152600060048201526024016106fe565b506001600160a01b031660009081526003602052604090205490565b6111e2611854565b6111ec6000611881565b565b6111f6611854565b600a8190556040518181527ff9f635b7cf851af6071aaf78ef8a5f752dc52f19d556fea4512b0c2ad4baea729060200160405180910390a150565b6060600180546105099061262a565b6105c03383836118d3565b6112568484846106d8565b6107623385858585611972565b60606104f482611a9d565b611276612086565b60095482106112be5760405162461bcd60e51b8152602060048201526014602482015273151bdad95b88191bd95cc81b9bdd08195e1a5cdd60621b60448201526064016106fe565b6000828152600b602052604090819020815160a081019092528054829082906112e69061262a565b80601f01602080910402602001604051908101604052809291908181526020018280546113129061262a565b801561135f5780601f106113345761010080835404028352916020019161135f565b820191906000526020600020905b81548152906001019060200180831161134257829003601f168201915b505050505081526020016001820180546113789061262a565b80601f01602080910402602001604051908101604052809291908181526020018280546113a49061262a565b80156113f15780601f106113c6576101008083540402835291602001916113f1565b820191906000526020600020905b8154815290600101906020018083116113d457829003601f168201915b5050505050815260200160028201805461140a9061262a565b80601f01602080910402602001604051908101604052809291908181526020018280546114369061262a565b80156114835780601f1061145857610100808354040283529160200191611483565b820191906000526020600020905b81548152906001019060200180831161146657829003601f168201915b5050509183525050600382015460208201526004909101546001600160a01b031660409091015292915050565b6001600160a01b03918216600090815260056020908152604080832093909416825291909152205460ff1690565b6114e6611854565b6001600160a01b03811661151057604051631e4fbdf760e01b8152600060048201526024016106fe565b61151981611881565b50565b60006001600160e01b03198216632483248360e11b14806104f457506104f482611bae565b6000818152600260205260408120546001600160a01b0316806104f457604051637e27328960e01b8152600481018490526024016106fe565b610b1b8383836001611bfe565b6105c0828260405180602001604052806000815250611d04565b60008281526006602052604090206115b982826126d3565b506040518281527ff8e1a15aba9398e019f0b49df1a4fde98ee17ae345cb5f6b5e2c27f5033e8ce79060200160405180910390a15050565b6000828152600260205260408120546001600160a01b039081169083161561161e5761161e818486611d1c565b6001600160a01b0381161561165c5761163b600085600080611bfe565b6001600160a01b038116600090815260036020526040902080546000190190555b6001600160a01b0385161561168b576001600160a01b0385166000908152600360205260409020805460010190555b60008481526002602052604080822080546001600160a01b0319166001600160a01b0389811691821790925591518793918516917fddf252ad1be2c89b69c2b068fc378daa952ba7f163c4a11628f55a4df523b3ef91a4949350505050565b60026008540361170d57604051633ee5aeb560e01b815260040160405180910390fd5b6002600855565b6001600160a01b03821661173e57604051633250574960e11b8152600060048201526024016106fe565b600061174c838360006115f1565b90506001600160a01b03811661177857604051637e27328960e01b8152600481018390526024016106fe565b836001600160a01b0316816001600160a01b031614610762576040516364283d7b60e01b81526001600160a01b03808616600483015260248201849052821660448201526064016106fe565b804710156117ee5760405163cf47918160e01b8152476004820152602481018290526044016106fe565b600080836001600160a01b03168360405160006040518083038185875af1925050503d806000811461183c576040519150601f19603f3d011682016040523d82523d6000602084013e611841565b606091505b5091509150816107625761076281611d80565b6007546001600160a01b031633146111ec5760405163118cdaa760e01b81523360048201526024016106fe565b600780546001600160a01b038381166001600160a01b0319831681179093556040519116919082907f8be0079c531659141344cd1fd0a4f28419497f9722a3daafe3b4186f6b6457e090600090a35050565b6001600160a01b03821661190557604051630b61174360e31b81526001600160a01b03831660048201526024016106fe565b6001600160a01b03838116600081815260056020908152604080832094871680845294825291829020805460ff191686151590811790915591519182527f17307eab39ab6107e8899845ad3d59bd9653f200f220920489ca2b5937696c31910160405180910390a3505050565b6001600160a01b0383163b15611a9657604051630a85bd0160e11b81526001600160a01b0384169063150b7a02906119b49088908890879087906004016127d5565b6020604051808303816000875af19250505080156119ef575060408051601f3d908101601f191682019092526119ec91810190612812565b60015b611a58573d808015611a1d576040519150601f19603f3d011682016040523d82523d6000602084013e611a22565b606091505b508051600003611a5057604051633250574960e11b81526001600160a01b03851660048201526024016106fe565b805160208201fd5b6001600160e01b03198116630a85bd0160e11b14611a9457604051633250574960e11b81526001600160a01b03851660048201526024016106fe565b505b5050505050565b6060611aa882611541565b5060008281526006602052604081208054611ac29061262a565b80601f0160208091040260200160405190810160405280929190818152602001828054611aee9061262a565b8015611b3b5780601f10611b1057610100808354040283529160200191611b3b565b820191906000526020600020905b815481529060010190602001808311611b1e57829003601f168201915b505050505090506000611b5960408051602081019091526000815290565b90508051600003611b6b575092915050565b815115611b9d578082604051602001611b8592919061282f565b60405160208183030381529060405292505050919050565b611ba684611da8565b949350505050565b60006001600160e01b031982166380ac58cd60e01b1480611bdf57506001600160e01b03198216635b5e139f60e01b145b806104f457506301ffc9a760e01b6001600160e01b03198316146104f4565b8080611c1257506001600160a01b03821615155b15611cd4576000611c2284611541565b90506001600160a01b03831615801590611c4e5750826001600160a01b0316816001600160a01b031614155b8015611c615750611c5f81846114b0565b155b15611c8a5760405163a9fbf51f60e01b81526001600160a01b03841660048201526024016106fe565b8115611cd25783856001600160a01b0316826001600160a01b03167f8c5be1e5ebec7d5bd14f71427d1e84f3dd0314c0f7b2291e5b200ac8c7c3b92560405160405180910390a45b505b5050600090815260046020526040902080546001600160a01b0319166001600160a01b0392909216919091179055565b611d0e8383611e1d565b610b1b336000858585611972565b611d27838383611e82565b610b1b576001600160a01b038316611d5557604051637e27328960e01b8152600481018290526024016106fe565b60405163177e802f60e01b81526001600160a01b0383166004820152602481018290526044016106fe565b805115611d8f57805160208201fd5b60405163d6bda27560e01b815260040160405180910390fd5b6060611db382611541565b506000611dcb60408051602081019091526000815290565b90506000815111611deb5760405180602001604052806000815250611e16565b80611df584611ee5565b604051602001611e0692919061282f565b6040516020818303038152906040525b9392505050565b6001600160a01b038216611e4757604051633250574960e11b8152600060048201526024016106fe565b6000611e55838360006115f1565b90506001600160a01b03811615610b1b576040516339e3563760e11b8152600060048201526024016106fe565b60006001600160a01b03831615801590611ba65750826001600160a01b0316846001600160a01b03161480611ebc5750611ebc84846114b0565b80611ba65750506000908152600460205260409020546001600160a01b03908116911614919050565b60606000611ef283611f78565b600101905060008167ffffffffffffffff811115611f1257611f126121b3565b6040519080825280601f01601f191660200182016040528015611f3c576020820181803683370190505b5090508181016020015b600019016f181899199a1a9b1b9c1cb0b131b232b360811b600a86061a8153600a8504945084611f4657509392505050565b60008072184f03e93ff9f4daa797ed6e38ed64bf6a1f0160401b8310611fb75772184f03e93ff9f4daa797ed6e38ed64bf6a1f0160401b830492506040015b6d04ee2d6d415b85acef81000000008310611fe3576d04ee2d6d415b85acef8100000000830492506020015b662386f26fc10000831061200157662386f26fc10000830492506010015b6305f5e1008310612019576305f5e100830492506008015b612710831061202d57612710830492506004015b6064831061203f576064830492506002015b600a83106104f45760010192915050565b60405180608001604052806000815260200160006001600160a01b0316815260200160608152602001612081612086565b905290565b6040518060a001604052806060815260200160608152602001606081526020016000815260200160006001600160a01b031681525090565b6001600160e01b03198116811461151957600080fd5b6000602082840312156120e657600080fd5b8135611e16816120be565b60005b8381101561210c5781810151838201526020016120f4565b50506000910152565b6000815180845261212d8160208601602086016120f1565b601f01601f19169290920160200192915050565b602081526000611e166020830184612115565b60006020828403121561216657600080fd5b5035919050565b80356001600160a01b038116811461218457600080fd5b919050565b6000806040838503121561219c57600080fd5b6121a58361216d565b946020939093013593505050565b634e487b7160e01b600052604160045260246000fd5b600067ffffffffffffffff808411156121e4576121e46121b3565b604051601f8501601f19908116603f0116810190828211818310171561220c5761220c6121b3565b8160405280935085815286868601111561222557600080fd5b858560208301376000602087830101525050509392505050565b600082601f83011261225057600080fd5b611e16838335602085016121c9565b600080600080600060a0868803121561227757600080fd5b6122808661216d565b9450602086013567ffffffffffffffff8082111561229d57600080fd5b6122a989838a0161223f565b955060408801359150808211156122bf57600080fd5b6122cb89838a0161223f565b945060608801359150808211156122e157600080fd5b6122ed89838a0161223f565b9350608088013591508082111561230357600080fd5b506123108882890161223f565b9150509295509295909350565b60008060006060848603121561233257600080fd5b61233b8461216d565b92506123496020850161216d565b9150604084013590509250925092565b6000815160a0845261236e60a0850182612115565b9050602083015184820360208601526123878282612115565b915050604083015184820360408601526123a18282612115565b606085810151908701526080948501516001600160a01b03169490950193909352509192915050565b60006020808301818452808551808352604092508286019150828160051b87010184880160005b8381101561246357888303603f19018552815180518452878101516001600160a01b0316888501528681015160808886018190529061243282870182612115565b9150506060808301519250858203818701525061244f8183612359565b9689019694505050908601906001016123f1565b509098975050505050505050565b60006020828403121561248357600080fd5b611e168261216d565b6020808252825182820181905260009190848201906040850190845b818110156124c4578351835292840192918401916001016124a8565b50909695505050505050565b60a0815260006124e360a0830188612115565b82810360208401526124f58188612115565b905082810360408401526125098187612115565b606084019590955250506001600160a01b03919091166080909101529392505050565b6000806040838503121561253f57600080fd5b6125488361216d565b91506020830135801515811461255d57600080fd5b809150509250929050565b6000806000806080858703121561257e57600080fd5b6125878561216d565b93506125956020860161216d565b925060408501359150606085013567ffffffffffffffff8111156125b857600080fd5b8501601f810187136125c957600080fd5b6125d8878235602084016121c9565b91505092959194509250565b602081526000611e166020830184612359565b6000806040838503121561260a57600080fd5b6126138361216d565b91506126216020840161216d565b90509250929050565b600181811c9082168061263e57607f821691505b60208210810361265e57634e487b7160e01b600052602260045260246000fd5b50919050565b634e487b7160e01b600052601160045260246000fd5b808201808211156104f4576104f4612664565b601f821115610b1b57600081815260208120601f850160051c810160208610156126b45750805b601f850160051c820191505b81811015611a94578281556001016126c0565b815167ffffffffffffffff8111156126ed576126ed6121b3565b612701816126fb845461262a565b8461268d565b602080601f831160018114612736576000841561271e5750858301515b600019600386901b1c1916600185901b178555611a94565b600085815260208120601f198616915b8281101561276557888601518255948401946001909101908401612746565b50858210156127835787850151600019600388901b60f8161c191681555b5050505050600190811b01905550565b634e487b7160e01b600052603260045260246000fd5b6000600182016127bb576127bb612664565b5060010190565b818103818111156104f4576104f4612664565b6001600160a01b038581168252841660208201526040810183905260806060820181905260009061280890830184612115565b9695505050505050565b60006020828403121561282457600080fd5b8151611e16816120be565b600083516128418184602088016120f1565b8351908301906128558183602088016120f1565b0194935050505056fea2646970667358221220078ff299e218aff7fbebb41e37b48081423669ab1972b79e32070880a42f27f064736f6c63430008140033",
  "linkReferences": {},
  "deployedLinkReferences": {}
}