{
  "_format": "hh-sol-artifact-1",
  "contractName": "BSATSF_ERC721",
  "sourceName": "contracts/BSATSF_ERC721.sol",
  "abi": [
    {
      "inputs": [
        {
          "internalType": "address",
          "name": "initialOwner",
          "type": "address"
        }
      ],
      "stateMutability": "nonpayable",
      "type": "constructor"
    },
    {
      "inputs": [
        {
          "internalType": "address",
          "name": "sender",
          "type": "address"
        },
        {
          "internalType": "uint256",
          "name": "tokenId",
          "type": "uint256"
        },
        {
          "internalType": "address",
          "name": "owner",
          "type": "address"
        }
      ],
      "name": "ERC721IncorrectOwner",
      "type": "error"
    },
    {
      "inputs": [
        {
          "internalType": "address",
          "name": "operator",
          "type": "address"
        },
        {
          "internalType": "uint256",
          "name": "tokenId",
          "type": "uint256"
        }
      ],
      "name": "ERC721InsufficientApproval",
      "type": "error"
    },
    {
      "inputs": [
        {
          "internalType": "address",
          "name": "approver",
          "type": "address"
        }
      ],
      "name": "ERC721InvalidApprover",
      "type": "error"
    },
    {
      "inputs": [
        {
          "internalType": "address",
          "name": "operator",
          "type": "address"
        }
      ],
      "name": "ERC721InvalidOperator",
      "type": "error"
    },
    {
      "inputs": [
        {
          "internalType": "address",
          "name": "owner",
          "type": "address"
        }
      ],
      "name": "ERC721InvalidOwner",
      "type": "error"
    },
    {
      "inputs": [
        {
          "internalType": "address",
          "name": "receiver",
          "type": "address"
        }
      ],
      "name": "ERC721InvalidReceiver",
      "type": "error"
    },
    {
      "inputs": [
        {
          "internalType": "address",
          "name": "sender",
          "type": "address"
        }
      ],
      "name": "ERC721InvalidSender",
      "type": "error"
    },
    {
      "inputs": [
        {
          "internalType": "uint256",
          "name": "tokenId",
          "type": "uint256"
        }
      ],
      "name": "ERC721NonexistentToken",
      "type": "error"
    },
    {
      "inputs": [],
      "name": "FailedCall",
      "type": "error"
    },
    {
      "inputs": [
        {
          "internalType": "uint256",
          "name": "balance",
          "type": "uint256"
        },
        {
          "internalType": "uint256",
          "name": "needed",
          "type": "uint256"
        }
      ],
      "name": "InsufficientBalance",
      "type": "error"
    },
    {
      "inputs": [
        {
          "internalType": "address",
          "name": "owner",
          "type": "address"
        }
      ],
      "name": "OwnableInvalidOwner",
      "type": "error"
    },
    {
      "inputs": [
        {
          "internalType": "address",
          "name": "account",
          "type": "address"
        }
      ],
      "name": "OwnableUnauthorizedAccount",
      "type": "error"
    },
    {
      "inputs": [],
      "name": "ReentrancyGuardReentrantCall",
      "type": "error"
    },
    {
      "anonymous": false,
      "inputs": [
        {
          "indexed": true,
          "internalType": "address",
          "name": "owner",
          "type": "address"
        },
        {
          "indexed": true,
          "internalType": "address",
          "name": "approved",
          "type": "address"
        },
        {
          "indexed": true,
          "internalType": "uint256",
          "name": "tokenId",
          "type": "uint256"
        }
      ],
      "name": "Approval",
      "type": "event"
    },
    {
      "anonymous": false,
      "inputs": [
        {
          "indexed": true,
          "internalType": "address",
          "name": "owner",
          "type": "address"
        },
        {
          "indexed": true,
          "internalType": "address",
          "name": "operator",
          "type": "address"
        },
        {
          "indexed": false,
          "internalType": "bool",
          "name": "approved",
          "type": "bool"
        }
      ],
      "name": "ApprovalForAll",
      "type": "event"
    },
    {
      "anonymous": false,
      "inputs": [
        {
          "indexed": true,
          "internalType": "uint256",
          "name": "tokenId",
          "type": "uint256"
        },
        {
          "indexed": true,
          "internalType": "address",
          "name": "to",
          "type": "address"
        },
        {
          "indexed": false,
          "internalType": "string",
          "name": "metadataURI",
          "type": "string"
        }
      ],
      "name": "AssetMinted",
      "type": "event"
    },
    {
      "anonymous": false,
      "inputs": [
        {
          "indexed": true,
          "internalType": "uint256",
          "name": "tokenId",
          "type": "uint256"
        },
        {
          "indexed": true,
          "internalType": "address",
          "name": "from",
          "type": "address"
        },
        {
          "indexed": true,
          "internalType": "address",
          "name": "to",
          "type": "address"
        },
        {
          "indexed": false,
          "internalType": "uint256",
          "name": "fee",
          "type": "uint256"
        }
      ],
      "name": "AssetTransferred",
      "type": "event"
    },
    {
      "anonymous": false,
      "inputs": [
        {
          "indexed": false,
          "internalType": "uint256",
          "name": "_fromTokenId",
          "type": "uint256"
        },
        {
          "indexed": false,
          "internalType": "uint256",
          "name": "_toTokenId",
          "type": "uint256"
        }
      ],
      "name": "BatchMetadataUpdate",
      "type": "event"
    },
    {
      "anonymous": false,
      "inputs": [
        {
          "indexed": false,
          "internalType": "uint256",
          "name": "_tokenId",
          "type": "uint256"
        }
      ],
      "name": "MetadataUpdate",
      "type": "event"
    },
    {
      "anonymous": false,
      "inputs": [
        {
          "indexed": true,
          "internalType": "address",
          "name": "previousOwner",
          "type": "address"
        },
        {
          "indexed": true,
          "internalType": "address",
          "name": "newOwner",
          "type": "address"
        }
      ],
      "name": "OwnershipTransferred",
      "type": "event"
    },
    {
      "anonymous": false,
      "inputs": [
        {
          "indexed": true,
          "internalType": "address",
          "name": "from",
          "type": "address"
        },
        {
          "indexed": true,
          "internalType": "address",
          "name": "to",
          "type": "address"
        },
        {
          "indexed": true,
          "internalType": "uint256",
          "name": "tokenId",
          "type": "uint256"
        }
      ],
      "name": "Transfer",
      "type": "event"
    },
    {
      "anonymous": false,
      "inputs": [
        {
          "indexed": false,
          "internalType": "uint256",
          "name": "newFee",
          "type": "uint256"
        }
      ],
      "name": "TransferFeeUpdated",
      "type": "event"
    },
    {
      "inputs": [
        {
          "internalType": "address",
          "name": "to",
          "type": "address"
        },
        {
          "internalType": "uint256",
          "name": "tokenId",
          "type": "uint256"
        }
      ],
      "name": "approve",
      "outputs": [],
      "stateMutability": "nonpayable",
      "type": "function"
    },
    {
      "inputs": [
        {
          "internalType": "uint256",
          "name": "",
          "type": "uint256"
        }
      ],
      "name": "assetMetadata",
      "outputs": [
        {
          "internalType": "string",
          "name": "name",
          "type": "string"
        },
        {
          "internalType": "string",
          "name": "description",
          "type": "string"
        },
        {
          "internalType": "string",
          "name": "ipfsHash",
          "type": "string"
        },
        {
          "internalType": "uint256",
          "name": "timestamp",
          "type": "uint256"
        },
        {
          "internalType": "address",
          "name": "creator",
          "type": "address"
        }
      ],
      "stateMutability": "view",
      "type": "function"
    },
    {
      "inputs": [
        {
          "internalType": "address",
          "name": "owner",
          "type": "address"
        }
      ],
      "name": "balanceOf",
      "outputs": [
        {
          "internalType": "uint256",
          "name": "",
          "type": "uint256"
        }
      ],
      "stateMutability": "view",
      "type": "function"
    },
    {
      "inputs": [
        {
          "internalType": "uint256",
          "name": "tokenId",
          "type": "uint256"
        }
      ],
      "name": "getApproved",
      "outputs": [
        {
          "internalType": "address",
          "name": "",
          "type": "address"
        }
      ],
      "stateMutability": "view",
      "type": "function"
    },
    {
      "inputs": [
        {
          "internalType": "uint256",
          "name": "tokenId",
          "type": "uint256"
        }
      ],
      "name": "getAssetMetadata",
      "outputs": [
        {
          "components": [
            {
              "internalType": "string",
              "name": "name",
              "type": "string"
            },
            {
              "internalType": "string",
              "name": "description",
              "type": "string"
            },
            {
              "internalType": "string",
              "name": "ipfsHash",
              "type": "string"
            },
            {
              "internalType": "uint256",
              "name": "timestamp",
              "type": "uint256"
            },
            {
              "internalType": "address",
              "name": "creator",
              "type": "address"
            }
          ],
          "internalType": "struct BSATSF_ERC721.AssetMetadata",
          "name": "",
          "type": "tuple"
        }
      ],
      "stateMutability": "view",
      "type": "function"
    },
    {
      "inputs": [
        {
          "internalType": "address",
          "name": "owner",
          "type": "address"
        }
      ],
      "name": "getTokensByOwner",
      "outputs": [
        {
          "internalType": "uint256[]",
          "name": "",
          "type": "uint256[]"
        }
      ],
      "stateMutability": "view",
      "type": "function"
    },
    {
      "inputs": [
        {
          "internalType": "address",
          "name": "owner",
          "type": "address"
        },
        {
          "internalType": "address",
          "name": "operator",
          "type": "address"
        }
      ],
      "name": "isApprovedForAll",
      "outputs": [
        {
          "internalType": "bool",
          "name": "",
          "type": "bool"
        }
      ],
      "stateMutability": "view",
      "type": "function"
    },
    {
      "inputs": [
        {
          "internalType": "address",
          "name": "to",
          "type": "address"
        },
        {
          "internalType": "string",
          "name": "metadataURI",
          "type": "string"
        },
        {
          "internalType": "string",
          "name": "name",
          "type": "string"
        },
        {
          "internalType": "string",
          "name": "description",
          "type": "string"
        },
        {
          "internalType": "string",
          "name": "ipfsHash",
          "type": "string"
        }
      ],
      "name": "mintAsset",
      "outputs": [
        {
          "internalType": "uint256",
          "name": "",
          "type": "uint256"
        }
      ],
      "stateMutability": "nonpayable",
      "type": "function"
    },
    {
      "inputs": [],
      "name": "name",
      "outputs": [
        {
          "internalType": "string",
          "name": "",
          "type": "string"
        }
      ],
      "stateMutability": "view",
      "type": "function"
    },
    {
      "inputs": [],
      "name": "owner",
      "outputs": [
        {
          "internalType": "address",
          "name": "",
          "type": "address"
        }
      ],
      "stateMutability": "view",
      "type": "function"
    },
    {
      "inputs": [
        {
          "internalType": "uint256",
          "name": "tokenId",
          "type": "uint256"
        }
      ],
      "name": "ownerOf",
      "outputs": [
        {
          "internalType": "address",
          "name": "",
          "type": "address"
        }
      ],
      "stateMutability": "view",
      "type": "function"
    },
    {
      "inputs": [],
      "name": "renounceOwnership",
      "outputs": [],
      "stateMutability": "nonpayable",
      "type": "function"
    },
    {
      "inputs": [
        {
          "internalType": "address",
          "name": "from",
          "type": "address"
        },
        {
          "internalType": "address",
          "name": "to",
          "type": "address"
        },
        {
          "internalType": "uint256",
          "name": "tokenId",
          "type": "uint256"
        }
      ],
      "name": "safeTransferFrom",
      "outputs": [],
      "stateMutability": "nonpayable",
      "type": "function"
    },
    {
      "inputs": [
        {
          "internalType": "address",
          "name": "from",
          "type": "address"
        },
        {
          "internalType": "address",
          "name": "to",
          "type": "address"
        },
        {
          "internalType": "uint256",
          "name": "tokenId",
          "type": "uint256"
        },
        {
          "internalType": "bytes",
          "name": "data",
          "type": "bytes"
        }
      ],
      "name": "safeTransferFrom",
      "outputs": [],
      "stateMutability": "nonpayable",
      "type": "function"
    },
    {
      "inputs": [
        {
          "internalType": "address",
          "name": "operator",
          "type": "address"
        },
        {
          "internalType": "bool",
          "name": "approved",
          "type": "bool"
        }
      ],
      "name": "setApprovalForAll",
      "outputs": [],
      "stateMutability": "nonpayable",
      "type": "function"
    },
    {
      "inputs": [
        {
          "internalType": "uint256",
          "name": "_fee",
          "type": "uint256"
        }
      ],
      "name": "setTransferFee",
      "outputs": [],
      "stateMutability": "nonpayable",
      "type": "function"
    },
    {
      "inputs": [
        {
          "internalType": "bytes4",
          "name": "interfaceId",
          "type": "bytes4"
        }
      ],
      "name": "supportsInterface",
      "outputs": [
        {
          "internalType": "bool",
          "name": "",
          "type": "bool"
        }
      ],
      "stateMutability": "view",
      "type": "function"
    },
    {
      "inputs": [],
      "name": "symbol",
      "outputs": [
        {
          "internalType": "string",
          "name": "",
          "type": "string"
        }
      ],
      "stateMutability": "view",
      "type": "function"
    },
    {
      "inputs": [
        {
          "internalType": "uint256",
          "name": "tokenId",
          "type": "uint256"
        }
      ],
      "name": "tokenURI",
      "outputs": [
        {
          "internalType": "string",
          "name": "",
          "type": "string"
        }
      ],
      "stateMutability": "view",
      "type": "function"
    },
    {
      "inputs": [],
      "name": "totalSupply",
      "outputs": [
        {
          "internalType": "uint256",
          "name": "",
          "type": "uint256"
        }
      ],
      "stateMutability": "view",
      "type": "function"
    },
    {
      "inputs": [
        {
          "internalType": "address",
          "name": "from",
          "type": "address"
        },
        {
          "internalType": "address",
          "name": "to",
          "type": "address"
        },
        {
          "internalType": "uint256",
          "name": "tokenId",
          "type": "uint256"
        }
      ],
      "name": "transferAsset",
      "outputs": [],
      "stateMutability": "payable",
      "type": "function"
    },
    {
      "inputs": [],
      "name": "transferFee",
      "outputs": [
        {
          "internalType": "uint256",
          "name": "",
          "type": "uint256"
        }
      ],
      "stateMutability": "view",
      "type": "function"
    },
    {
      "inputs": [
        {
          "internalType": "address",
          "name": "from",
          "type": "address"
        },
        {
          "internalType": "address",
          "name": "to",
          "type": "address"
        },
        {
          "internalType": "uint256",
          "name": "tokenId",
          "type": "uint256"
        }
      ],
      "name": "transferFrom",
      "outputs": [],
      "stateMutability": "nonpayable",
      "type": "function"
    },
    {
      "inputs": [
        {
          "internalType": "address",
          "name": "newOwner",
          "type": "address"
        }
      ],
      "name": "transferOwnership",
      "outputs": [],
      "stateMutability": "nonpayable",
      "type": "function"
    }
  ],
  "bytecode": "0x608060405266038d7ea4c68000600a553480156200001c57600080fd5b5060405162002468380380620024688339810160408190526200003f9162000140565b806040518060400160405280600c81526020016b1094d05514d188105cdcd95d60a21b815250604051806040016040528060068152602001652129a0aa29a360d11b815250816000908162000095919062000217565b506001620000a4828262000217565b5050506001600160a01b038116620000d657604051631e4fbdf760e01b81526000600482015260240160405180910390fd5b620000e181620000ee565b50506001600855620002e3565b600780546001600160a01b038381166001600160a01b0319831681179093556040519116919082907f8be0079c531659141344cd1fd0a4f28419497f9722a3daafe3b4186f6b6457e090600090a35050565b6000602082840312156200015357600080fd5b81516001600160a01b03811681146200016b57600080fd5b9392505050565b634e487b7160e01b600052604160045260246000fd5b600181811c908216806200019d57607f821691505b602082108103620001be57634e487b7160e01b600052602260045260246000fd5b50919050565b601f8211156200021257600081815260208120601f850160051c81016020861015620001ed5750805b601f850160051c820191505b818110156200020e57828155600101620001f9565b5050505b505050565b81516001600160401b0381111562000233576200023362000172565b6200024b8162000244845462000188565b84620001c4565b602080601f8311600181146200028357600084156200026a5750858301515b600019600386901b1c1916600185901b1785556200020e565b600085815260208120601f198616915b82811015620002b45788860151825594840194600190910190840162000293565b5085821015620002d35787850151600019600388901b60f8161c191681555b5050505050600190811b01905550565b61217580620002f36000396000f3fe60806040526004361061014b5760003560e01c806370a08231116100b6578063acb2ad6f1161006f578063acb2ad6f146103b9578063b88d4fde146103cf578063c87b56dd146103ef578063cf2acf841461040f578063e985e9c51461043c578063f2fde38b1461045c57600080fd5b806370a0823114610311578063715018a6146103315780638da5cb5b146103465780638f02bb5b1461036457806395d89b4114610384578063a22cb4651461039957600080fd5b806323b872dd1161010857806323b872dd1461024057806340398d671461026057806342842e0e1461028d578063439e2e45146102ad578063504e35d3146102c05780636352211e146102f157600080fd5b806301ffc9a71461015057806306fdde0314610185578063081812fc146101a7578063095ea7b3146101df57806318160ddd146102015780631edbb51614610220575b600080fd5b34801561015c57600080fd5b5061017061016b366004611a5c565b61047c565b60405190151581526020015b60405180910390f35b34801561019157600080fd5b5061019a61048d565b60405161017c9190611ac9565b3480156101b357600080fd5b506101c76101c2366004611adc565b61051f565b6040516001600160a01b03909116815260200161017c565b3480156101eb57600080fd5b506101ff6101fa366004611b11565b610548565b005b34801561020d57600080fd5b506009545b60405190815260200161017c565b34801561022c57600080fd5b5061021261023b366004611be7565b610557565b34801561024c57600080fd5b506101ff61025b366004611ca5565b61066b565b34801561026c57600080fd5b5061028061027b366004611ce1565b6106fb565b60405161017c9190611cfc565b34801561029957600080fd5b506101ff6102a8366004611ca5565b6107c8565b6101ff6102bb366004611ca5565b6107e8565b3480156102cc57600080fd5b506102e06102db366004611adc565b61097a565b60405161017c959493929190611d40565b3480156102fd57600080fd5b506101c761030c366004611adc565b610b4a565b34801561031d57600080fd5b5061021261032c366004611ce1565b610b55565b34801561033d57600080fd5b506101ff610b9d565b34801561035257600080fd5b506007546001600160a01b03166101c7565b34801561037057600080fd5b506101ff61037f366004611adc565b610bb1565b34801561039057600080fd5b5061019a610bf4565b3480156103a557600080fd5b506101ff6103b4366004611d9c565b610c03565b3480156103c557600080fd5b50610212600a5481565b3480156103db57600080fd5b506101ff6103ea366004611dd8565b610c0e565b3480156103fb57600080fd5b5061019a61040a366004611adc565b610c26565b34801561041b57600080fd5b5061042f61042a366004611adc565b610c31565b60405161017c9190611e54565b34801561044857600080fd5b50610170610457366004611ed8565b610ea6565b34801561046857600080fd5b506101ff610477366004611ce1565b610ed4565b600061048782610f12565b92915050565b60606000805461049c90611f0b565b80601f01602080910402602001604051908101604052809291908181526020018280546104c890611f0b565b80156105155780601f106104ea57610100808354040283529160200191610515565b820191906000526020600020905b8154815290600101906020018083116104f857829003601f168201915b5050505050905090565b600061052a82610f37565b506000828152600460205260409020546001600160a01b0316610487565b610553828233610f70565b5050565b600980546000916001908361056c8385611f5b565b9091555061057c90508782610f7d565b6105868187610f97565b6040805160a08101825286815260208082018790528183018690524260608301523360808301526000848152600b90915291909120815181906105c99082611fb4565b50602082015160018201906105de9082611fb4565b50604082015160028201906105f39082611fb4565b5060608201516003820155608090910151600490910180546001600160a01b0319166001600160a01b039283161790556040519088169082907fa30dd43fc057b356acd774161b6c8743df78c9bd58d7f492dd56d00121dda6b590610659908a90611ac9565b60405180910390a39695505050505050565b6001600160a01b03821661069a57604051633250574960e11b8152600060048201526024015b60405180910390fd5b60006106a7838333610fe7565b9050836001600160a01b0316816001600160a01b0316146106f5576040516364283d7b60e01b81526001600160a01b0380861660048301526024820184905282166044820152606401610691565b50505050565b6060600061070883610b55565b905060008167ffffffffffffffff81111561072557610725611b3b565b60405190808252806020026020018201604052801561074e578160200160208202803683370190505b5090506000805b6009548110156107be57856001600160a01b031661077282610b4a565b6001600160a01b0316036107ac578083838151811061079357610793612074565b6020908102919091010152816107a88161208a565b9250505b806107b68161208a565b915050610755565b5090949350505050565b6107e383838360405180602001604052806000815250610c0e565b505050565b6107f06110e0565b60006107fb82610b4a565b9050336001600160a01b03821614806108245750336108198361051f565b6001600160a01b0316145b8061083457506108348133610ea6565b6108785760405162461bcd60e51b81526020600482015260156024820152742737ba1030b8383937bb32b21037b91037bbb732b960591b6044820152606401610691565b600a54348111156108cb5760405162461bcd60e51b815260206004820152601960248201527f496e73756666696369656e74207472616e7366657220666565000000000000006044820152606401610691565b6108d685858561110a565b801561090157610901816108f26007546001600160a01b031690565b6001600160a01b0316906111ba565b600061090d82346120a3565b9050801561091f5761091f81336108f2565b846001600160a01b0316866001600160a01b0316857ff3ece9284d33275d9c297a27c91c816d5543b99eb1a60525f3cee810ed7200918560405161096591815260200190565b60405180910390a45050506107e36001600855565b600b6020526000908152604090208054819061099590611f0b565b80601f01602080910402602001604051908101604052809291908181526020018280546109c190611f0b565b8015610a0e5780601f106109e357610100808354040283529160200191610a0e565b820191906000526020600020905b8154815290600101906020018083116109f157829003601f168201915b505050505090806001018054610a2390611f0b565b80601f0160208091040260200160405190810160405280929190818152602001828054610a4f90611f0b565b8015610a9c5780601f10610a7157610100808354040283529160200191610a9c565b820191906000526020600020905b815481529060010190602001808311610a7f57829003601f168201915b505050505090806002018054610ab190611f0b565b80601f0160208091040260200160405190810160405280929190818152602001828054610add90611f0b565b8015610b2a5780601f10610aff57610100808354040283529160200191610b2a565b820191906000526020600020905b815481529060010190602001808311610b0d57829003601f168201915b5050505060038301546004909301549192916001600160a01b0316905085565b600061048782610f37565b60006001600160a01b038216610b81576040516322718ad960e21b815260006004820152602401610691565b506001600160a01b031660009081526003602052604090205490565b610ba561124a565b610baf6000611277565b565b610bb961124a565b600a8190556040518181527ff9f635b7cf851af6071aaf78ef8a5f752dc52f19d556fea4512b0c2ad4baea729060200160405180910390a150565b60606001805461049c90611f0b565b6105533383836112c9565b610c1984848461066b565b6106f53385858585611368565b606061048782611493565b610c6c6040518060a001604052806060815260200160608152602001606081526020016000815260200160006001600160a01b031681525090565b6009548210610cb45760405162461bcd60e51b8152602060048201526014602482015273151bdad95b88191bd95cc81b9bdd08195e1a5cdd60621b6044820152606401610691565b6000828152600b602052604090819020815160a08101909252805482908290610cdc90611f0b565b80601f0160208091040260200160405190810160405280929190818152602001828054610d0890611f0b565b8015610d555780601f10610d2a57610100808354040283529160200191610d55565b820191906000526020600020905b815481529060010190602001808311610d3857829003601f168201915b50505050508152602001600182018054610d6e90611f0b565b80601f0160208091040260200160405190810160405280929190818152602001828054610d9a90611f0b565b8015610de75780601f10610dbc57610100808354040283529160200191610de7565b820191906000526020600020905b815481529060010190602001808311610dca57829003601f168201915b50505050508152602001600282018054610e0090611f0b565b80601f0160208091040260200160405190810160405280929190818152602001828054610e2c90611f0b565b8015610e795780601f10610e4e57610100808354040283529160200191610e79565b820191906000526020600020905b815481529060010190602001808311610e5c57829003601f168201915b5050509183525050600382015460208201526004909101546001600160a01b031660409091015292915050565b6001600160a01b03918216600090815260056020908152604080832093909416825291909152205460ff1690565b610edc61124a565b6001600160a01b038116610f0657604051631e4fbdf760e01b815260006004820152602401610691565b610f0f81611277565b50565b60006001600160e01b03198216632483248360e11b14806104875750610487826115a4565b6000818152600260205260408120546001600160a01b03168061048757604051637e27328960e01b815260048101849052602401610691565b6107e383838360016115f4565b6105538282604051806020016040528060008152506116fa565b6000828152600660205260409020610faf8282611fb4565b506040518281527ff8e1a15aba9398e019f0b49df1a4fde98ee17ae345cb5f6b5e2c27f5033e8ce79060200160405180910390a15050565b6000828152600260205260408120546001600160a01b039081169083161561101457611014818486611712565b6001600160a01b03811615611052576110316000856000806115f4565b6001600160a01b038116600090815260036020526040902080546000190190555b6001600160a01b03851615611081576001600160a01b0385166000908152600360205260409020805460010190555b60008481526002602052604080822080546001600160a01b0319166001600160a01b0389811691821790925591518793918516917fddf252ad1be2c89b69c2b068fc378daa952ba7f163c4a11628f55a4df523b3ef91a4949350505050565b60026008540361110357604051633ee5aeb560e01b815260040160405180910390fd5b6002600855565b6001600160a01b03821661113457604051633250574960e11b815260006004820152602401610691565b600061114283836000610fe7565b90506001600160a01b03811661116e57604051637e27328960e01b815260048101839052602401610691565b836001600160a01b0316816001600160a01b0316146106f5576040516364283d7b60e01b81526001600160a01b0380861660048301526024820184905282166044820152606401610691565b804710156111e45760405163cf47918160e01b815247600482015260248101829052604401610691565b600080836001600160a01b03168360405160006040518083038185875af1925050503d8060008114611232576040519150601f19603f3d011682016040523d82523d6000602084013e611237565b606091505b5091509150816106f5576106f581611776565b6007546001600160a01b03163314610baf5760405163118cdaa760e01b8152336004820152602401610691565b600780546001600160a01b038381166001600160a01b0319831681179093556040519116919082907f8be0079c531659141344cd1fd0a4f28419497f9722a3daafe3b4186f6b6457e090600090a35050565b6001600160a01b0382166112fb57604051630b61174360e31b81526001600160a01b0383166004820152602401610691565b6001600160a01b03838116600081815260056020908152604080832094871680845294825291829020805460ff191686151590811790915591519182527f17307eab39ab6107e8899845ad3d59bd9653f200f220920489ca2b5937696c31910160405180910390a3505050565b6001600160a01b0383163b1561148c57604051630a85bd0160e11b81526001600160a01b0384169063150b7a02906113aa9088908890879087906004016120b6565b6020604051808303816000875af19250505080156113e5575060408051601f3d908101601f191682019092526113e2918101906120f3565b60015b61144e573d808015611413576040519150601f19603f3d011682016040523d82523d6000602084013e611418565b606091505b50805160000361144657604051633250574960e11b81526001600160a01b0385166004820152602401610691565b805160208201fd5b6001600160e01b03198116630a85bd0160e11b1461148a57604051633250574960e11b81526001600160a01b0385166004820152602401610691565b505b5050505050565b606061149e82610f37565b50600082815260066020526040812080546114b890611f0b565b80601f01602080910402602001604051908101604052809291908181526020018280546114e490611f0b565b80156115315780601f1061150657610100808354040283529160200191611531565b820191906000526020600020905b81548152906001019060200180831161151457829003601f168201915b50505050509050600061154f60408051602081019091526000815290565b90508051600003611561575092915050565b81511561159357808260405160200161157b929190612110565b60405160208183030381529060405292505050919050565b61159c8461179e565b949350505050565b60006001600160e01b031982166380ac58cd60e01b14806115d557506001600160e01b03198216635b5e139f60e01b145b8061048757506301ffc9a760e01b6001600160e01b0319831614610487565b808061160857506001600160a01b03821615155b156116ca57600061161884610f37565b90506001600160a01b038316158015906116445750826001600160a01b0316816001600160a01b031614155b801561165757506116558184610ea6565b155b156116805760405163a9fbf51f60e01b81526001600160a01b0384166004820152602401610691565b81156116c85783856001600160a01b0316826001600160a01b03167f8c5be1e5ebec7d5bd14f71427d1e84f3dd0314c0f7b2291e5b200ac8c7c3b92560405160405180910390a45b505b5050600090815260046020526040902080546001600160a01b0319166001600160a01b0392909216919091179055565b6117048383611813565b6107e3336000858585611368565b61171d838383611878565b6107e3576001600160a01b03831661174b57604051637e27328960e01b815260048101829052602401610691565b60405163177e802f60e01b81526001600160a01b038316600482015260248101829052604401610691565b80511561178557805160208201fd5b60405163d6bda27560e01b815260040160405180910390fd5b60606117a982610f37565b5060006117c160408051602081019091526000815290565b905060008151116117e1576040518060200160405280600081525061180c565b806117eb846118db565b6040516020016117fc929190612110565b6040516020818303038152906040525b9392505050565b6001600160a01b03821661183d57604051633250574960e11b815260006004820152602401610691565b600061184b83836000610fe7565b90506001600160a01b038116156107e3576040516339e3563760e11b815260006004820152602401610691565b60006001600160a01b0383161580159061159c5750826001600160a01b0316846001600160a01b031614806118b257506118b28484610ea6565b8061159c5750506000908152600460205260409020546001600160a01b03908116911614919050565b606060006118e88361196e565b600101905060008167ffffffffffffffff81111561190857611908611b3b565b6040519080825280601f01601f191660200182016040528015611932576020820181803683370190505b5090508181016020015b600019016f181899199a1a9b1b9c1cb0b131b232b360811b600a86061a8153600a850494508461193c57509392505050565b60008072184f03e93ff9f4daa797ed6e38ed64bf6a1f0160401b83106119ad5772184f03e93ff9f4daa797ed6e38ed64bf6a1f0160401b830492506040015b6d04ee2d6d415b85acef810000000083106119d9576d04ee2d6d415b85acef8100000000830492506020015b662386f26fc1000083106119f757662386f26fc10000830492506010015b6305f5e1008310611a0f576305f5e100830492506008015b6127108310611a2357612710830492506004015b60648310611a35576064830492506002015b600a83106104875760010192915050565b6001600160e01b031981168114610f0f57600080fd5b600060208284031215611a6e57600080fd5b813561180c81611a46565b60005b83811015611a94578181015183820152602001611a7c565b50506000910152565b60008151808452611ab5816020860160208601611a79565b601f01601f19169290920160200192915050565b60208152600061180c6020830184611a9d565b600060208284031215611aee57600080fd5b5035919050565b80356001600160a01b0381168114611b0c57600080fd5b919050565b60008060408385031215611b2457600080fd5b611b2d83611af5565b946020939093013593505050565b634e487b7160e01b600052604160045260246000fd5b600067ffffffffffffffff80841115611b6c57611b6c611b3b565b604051601f8501601f19908116603f01168101908282118183101715611b9457611b94611b3b565b81604052809350858152868686011115611bad57600080fd5b858560208301376000602087830101525050509392505050565b600082601f830112611bd857600080fd5b61180c83833560208501611b51565b600080600080600060a08688031215611bff57600080fd5b611c0886611af5565b9450602086013567ffffffffffffffff80821115611c2557600080fd5b611c3189838a01611bc7565b95506040880135915080821115611c4757600080fd5b611c5389838a01611bc7565b94506060880135915080821115611c6957600080fd5b611c7589838a01611bc7565b93506080880135915080821115611c8b57600080fd5b50611c9888828901611bc7565b9150509295509295909350565b600080600060608486031215611cba57600080fd5b611cc384611af5565b9250611cd160208501611af5565b9150604084013590509250925092565b600060208284031215611cf357600080fd5b61180c82611af5565b6020808252825182820181905260009190848201906040850190845b81811015611d3457835183529284019291840191600101611d18565b50909695505050505050565b60a081526000611d5360a0830188611a9d565b8281036020840152611d658188611a9d565b90508281036040840152611d798187611a9d565b606084019590955250506001600160a01b03919091166080909101529392505050565b60008060408385031215611daf57600080fd5b611db883611af5565b915060208301358015158114611dcd57600080fd5b809150509250929050565b60008060008060808587031215611dee57600080fd5b611df785611af5565b9350611e0560208601611af5565b925060408501359150606085013567ffffffffffffffff811115611e2857600080fd5b8501601f81018713611e3957600080fd5b611e4887823560208401611b51565b91505092959194509250565b602081526000825160a06020840152611e7060c0840182611a9d565b90506020840151601f1980858403016040860152611e8e8383611a9d565b9250604086015191508085840301606086015250611eac8282611a9d565b6060860151608086810191909152909501516001600160a01b031660a090940193909352509192915050565b60008060408385031215611eeb57600080fd5b611ef483611af5565b9150611f0260208401611af5565b90509250929050565b600181811c90821680611f1f57607f821691505b602082108103611f3f57634e487b7160e01b600052602260045260246000fd5b50919050565b634e487b7160e01b600052601160045260246000fd5b8082018082111561048757610487611f45565b601f8211156107e357600081815260208120601f850160051c81016020861015611f955750805b601f850160051c820191505b8181101561148a57828155600101611fa1565b815167ffffffffffffffff811115611fce57611fce611b3b565b611fe281611fdc8454611f0b565b84611f6e565b602080601f8311600181146120175760008415611fff5750858301515b600019600386901b1c1916600185901b17855561148a565b600085815260208120601f198616915b8281101561204657888601518255948401946001909101908401612027565b50858210156120645787850151600019600388901b60f8161c191681555b5050505050600190811b01905550565b634e487b7160e01b600052603260045260246000fd5b60006001820161209c5761209c611f45565b5060010190565b8181038181111561048757610487611f45565b6001600160a01b03858116825284166020820152604081018390526080606082018190526000906120e990830184611a9d565b9695505050505050565b60006020828403121561210557600080fd5b815161180c81611a46565b60008351612122818460208801611a79565b835190830190612136818360208801611a79565b0194935050505056fea2646970667358221220152b2209a1083eea8c0cd672cb52f5af9a25aa4355209464b716983aa0e7ff2064736f6c63430008140033",
  "linkReferences": {},
  "deployedLinkReferences": {}
}